{
  "_format": "hh-sol-artifact-1",
  "contractName": "FlowRoll",
  "sourceName": "contracts/FlowRoll.sol",
  "abi": [
    {
      "inputs": [
        {
          "internalType": "address",
          "name": "_randProvider",
          "type": "address"
        },
        {
          "internalType": "uint256",
          "name": "_ERC721Index",
          "type": "uint256"
        },
        {
          "internalType": "address",
          "name": "_ERC20Address",
          "type": "address"
        },
        {
          "internalType": "uint8",
          "name": "_winnerPrizeShare",
          "type": "uint8"
        },
        {
          "internalType": "uint256",
          "name": "_diceRollCost",
          "type": "uint256"
        },
        {
          "internalType": "uint8",
          "name": "_houseEdge",
          "type": "uint8"
        },
        {
          "internalType": "uint256",
          "name": "_revealCompensation",
          "type": "uint256"
        },
        {
          "internalType": "uint16[3]",
          "name": "betParams",
          "type": "uint16[3]"
        }
      ],
      "stateMutability": "nonpayable",
      "type": "constructor"
    },
    {
      "inputs": [],
      "name": "FailedCall",
      "type": "error"
    },
    {
      "inputs": [
        {
          "internalType": "uint256",
          "name": "balance",
          "type": "uint256"
        },
        {
          "internalType": "uint256",
          "name": "needed",
          "type": "uint256"
        }
      ],
      "name": "InsufficientBalance",
      "type": "error"
    },
    {
      "anonymous": false,
      "inputs": [
        {
          "indexed": false,
          "internalType": "uint256",
          "name": "amount",
          "type": "uint256"
        }
      ],
      "name": "PrizePoolFunded",
      "type": "event"
    },
    {
      "anonymous": false,
      "inputs": [
        {
          "indexed": false,
          "internalType": "address",
          "name": "player",
          "type": "address"
        },
        {
          "indexed": false,
          "internalType": "uint16",
          "name": "bet",
          "type": "uint16"
        },
        {
          "indexed": false,
          "internalType": "uint256",
          "name": "prizePool",
          "type": "uint256"
        }
      ],
      "name": "RollPlaced",
      "type": "event"
    },
    {
      "anonymous": false,
      "inputs": [
        {
          "indexed": false,
          "internalType": "address",
          "name": "player",
          "type": "address"
        },
        {
          "indexed": false,
          "internalType": "bool",
          "name": "won",
          "type": "bool"
        },
        {
          "indexed": false,
          "internalType": "uint16",
          "name": "numberRolled",
          "type": "uint16"
        },
        {
          "indexed": false,
          "internalType": "uint256",
          "name": "payout",
          "type": "uint256"
        },
        {
          "indexed": false,
          "internalType": "uint256",
          "name": "newPrizePool",
          "type": "uint256"
        }
      ],
      "name": "RollResult",
      "type": "event"
    },
    {
      "inputs": [],
      "name": "ERC20Address",
      "outputs": [
        {
          "internalType": "address",
          "name": "",
          "type": "address"
        }
      ],
      "stateMutability": "view",
      "type": "function"
    },
    {
      "inputs": [],
      "name": "ERC721Index",
      "outputs": [
        {
          "internalType": "uint256",
          "name": "",
          "type": "uint256"
        }
      ],
      "stateMutability": "view",
      "type": "function"
    },
    {
      "inputs": [
        {
          "internalType": "uint256",
          "name": "betAmount",
          "type": "uint256"
        },
        {
          "internalType": "uint16",
          "name": "bet",
          "type": "uint16"
        }
      ],
      "name": "betERC20",
      "outputs": [],
      "stateMutability": "nonpayable",
      "type": "function"
    },
    {
      "inputs": [
        {
          "internalType": "uint16",
          "name": "bet",
          "type": "uint16"
        }
      ],
      "name": "betFlow",
      "outputs": [],
      "stateMutability": "payable",
      "type": "function"
    },
    {
      "inputs": [
        {
          "internalType": "uint256",
          "name": "",
          "type": "uint256"
        }
      ],
      "name": "bets",
      "outputs": [
        {
          "internalType": "uint256",
          "name": "requestId",
          "type": "uint256"
        },
        {
          "internalType": "uint256",
          "name": "createdAtBlock",
          "type": "uint256"
        },
        {
          "internalType": "address",
          "name": "player",
          "type": "address"
        },
        {
          "internalType": "uint16",
          "name": "bet",
          "type": "uint16"
        },
        {
          "internalType": "bool",
          "name": "closed",
          "type": "bool"
        },
        {
          "internalType": "bool",
          "name": "won",
          "type": "bool"
        },
        {
          "internalType": "uint16",
          "name": "numberRolled",
          "type": "uint16"
        },
        {
          "internalType": "uint256",
          "name": "payout",
          "type": "uint256"
        }
      ],
      "stateMutability": "view",
      "type": "function"
    },
    {
      "inputs": [
        {
          "internalType": "uint256",
          "name": "amount",
          "type": "uint256"
        }
      ],
      "name": "fundPrizePoolERC20",
      "outputs": [],
      "stateMutability": "nonpayable",
      "type": "function"
    },
    {
      "inputs": [
        {
          "internalType": "uint256",
          "name": "amount",
          "type": "uint256"
        }
      ],
      "name": "fundPrizePoolFLOW",
      "outputs": [],
      "stateMutability": "payable",
      "type": "function"
    },
    {
      "inputs": [],
      "name": "getContractParameters",
      "outputs": [
        {
          "internalType": "uint8",
          "name": "",
          "type": "uint8"
        },
        {
          "internalType": "uint256",
          "name": "",
          "type": "uint256"
        },
        {
          "internalType": "uint8",
          "name": "",
          "type": "uint8"
        },
        {
          "internalType": "uint256",
          "name": "",
          "type": "uint256"
        },
        {
          "internalType": "uint16",
          "name": "",
          "type": "uint16"
        },
        {
          "internalType": "uint16",
          "name": "",
          "type": "uint16"
        },
        {
          "internalType": "uint16",
          "name": "",
          "type": "uint16"
        }
      ],
      "stateMutability": "view",
      "type": "function"
    },
    {
      "inputs": [],
      "name": "lastBet",
      "outputs": [
        {
          "internalType": "uint256",
          "name": "",
          "type": "uint256"
        }
      ],
      "stateMutability": "view",
      "type": "function"
    },
    {
      "inputs": [],
      "name": "lastClosedBet",
      "outputs": [
        {
          "internalType": "uint256",
          "name": "",
          "type": "uint256"
        }
      ],
      "stateMutability": "view",
      "type": "function"
    },
    {
      "inputs": [],
      "name": "prizeVault",
      "outputs": [
        {
          "internalType": "uint256",
          "name": "",
          "type": "uint256"
        }
      ],
      "stateMutability": "view",
      "type": "function"
    },
    {
      "inputs": [],
      "name": "revealDiceRoll",
      "outputs": [],
      "stateMutability": "nonpayable",
      "type": "function"
    }
  ],
  "bytecode": "0x608060405234801561001057600080fd5b50604051611fa9380380611fa983398101604081905261002f916103f8565b60648560ff1611156100885760405162461bcd60e51b815260206004820152601760248201527f5072697a652073686172652069732031303025206d617800000000000000000060448201526064015b60405180910390fd5b60648360ff1611156100dc5760405162461bcd60e51b815260206004820152601660248201527f486f75736520656467652069732031303025206d617800000000000000000000604482015260640161007f565b83821061012b5760405162461bcd60e51b815260206004820152601c60248201527f52657665616c20636f6d70656e736174696f6e20746f6f206869676800000000604482015260640161007f565b836101358161037f565b61013f90846104f7565b1061019d5760405162461bcd60e51b815260206004820152602860248201527f696e76616c696420486f7573652065646765206f722072657665616c436f6d7060448201526732b739b0ba34b7b760c11b606482015260840161007f565b604081015161ffff166001036101f55760405162461bcd60e51b815260206004820152601460248201527f62657454797065203120697320696e76616c6964000000000000000000000000604482015260640161007f565b6020810151815161ffff9182169116106102515760405162461bcd60e51b815260206004820152601660248201527f6d696e206d757374206265203c207468616e206d617800000000000000000000604482015260640161007f565b6020810151604082015161ffff918216911611156102b15760405162461bcd60e51b815260206004820152601f60248201527f42657420747970652063616e2774206265206d6f7265207468616e206d617800604482015260640161007f565b600080546001600160a01b03998a166001600160a01b0319918216178255600180549091163317905560029790975560038790556004805460ff968716600160a01b026001600160a81b0319909116979099169690961797909717909455600591909155600680549190921660ff1990911617905560075560088190556009558051600b8054602084015160409094015161ffff948516620100000293851663ffffffff19909216919091179290921761ffff60201b19166401000000009390921692909202179055610543565b60065460009060ff1661039360648461050a565b61039d919061052c565b92915050565b80516001600160a01b03811681146103ba57600080fd5b919050565b805160ff811681146103ba57600080fd5b634e487b7160e01b600052604160045260246000fd5b805161ffff811681146103ba57600080fd5b600080600080600080600080610140898b03121561041557600080fd5b61041e896103a3565b60208a0151909850965061043460408a016103a3565b955061044260608a016103bf565b60808a0151909550935061045860a08a016103bf565b60c08a0151909350915060ff89018a1361047157600080fd5b604051606081016001600160401b0381118282101715610493576104936103d0565b604052806101408b018c8111156104a957600080fd5b60e08c015b818110156104cd576104bf816103e6565b8352602092830192016104ae565b505050809150509295985092959890939650565b634e487b7160e01b600052601160045260246000fd5b8082018082111561039d5761039d6104e1565b60008261052757634e487b7160e01b600052601260045260246000fd5b500490565b808202811582820484141761039d5761039d6104e1565b611a57806105526000396000f3fe6080604052600436106100c75760003560e01c80637801f84211610074578063a6021ace1161004e578063a6021ace1461026a578063bfacd9ed146102a2578063d03c0ade1461031b57600080fd5b80637801f84214610221578063945b62b7146102375780639a0d39921461025757600080fd5b806322af00fa116100a557806322af00fa1461011f5780632c2f45c8146101eb578063676a3a971461020b57600080fd5b8063033b337d146100cc57806311d86d47146100e157806317ba50ed1461010a575b600080fd5b6100df6100da36600461184f565b610331565b005b3480156100ed57600080fd5b506100f760025481565b6040519081526020015b60405180910390f35b34801561011657600080fd5b506100df6105e0565b34801561012b57600080fd5b5061019a61013a366004611871565b600a602052600090815260409020805460018201546002830154600390930154919290916001600160a01b0382169161ffff600160a01b820481169260ff600160b01b8404811693600160b81b810490911692600160c01b909104169088565b6040805198895260208901979097526001600160a01b039095169587019590955261ffff92831660608701529015156080860152151560a085015290911660c083015260e082015261010001610101565b3480156101f757600080fd5b506100df61020636600461188a565b6109d6565b34801561021757600080fd5b506100f760035481565b34801561022d57600080fd5b506100f760085481565b34801561024357600080fd5b506100df610252366004611871565b610cee565b6100df610265366004611871565b610e0a565b34801561027657600080fd5b5060045461028a906001600160a01b031681565b6040516001600160a01b039091168152602001610101565b3480156102ae57600080fd5b50600454600554600654600754600b5460408051600160a01b90960460ff908116875260208701959095529390921692840192909252606083019190915261ffff8082166080840152620100008204811660a08401526401000000009091041660c082015260e001610101565b34801561032757600080fd5b506100f760095481565b60055434146103875760405162461bcd60e51b815260206004820152601260248201527f496e76616c69642076616c75652073656e74000000000000000000000000000060448201526064015b60405180910390fd5b6004546001600160a01b0316156103e05760405162461bcd60e51b815260206004820152600960248201527f4f6e6c7920464c6f770000000000000000000000000000000000000000000000604482015260640161037e565b6103e981610ec4565b600554600360008282546103fd91906118cc565b909155505060008054604080516308903fb560e11b815290516001600160a01b03909216916311207f6a91600480820192602092909190829003018187875af115801561044e573d6000803e3d6000fd5b505050506040513d601f19601f8201168201806040525081019061047291906118df565b905060016008600082825461048791906118cc565b909155505060408051610100810182528281524360208083019182523383850181815261ffff8089166060870190815260006080880181815260a0890182815260c08a0183815260e08b018481526008548552600a909952928b902099518a55975160018a0155935160028901805493519551985192518516600160c01b0261ffff60c01b19931515600160b81b0260ff60b81b199a1515600160b01b029a909a1661ffff60b01b1997909616600160a01b0275ffffffffffffffffffffffffffffffffffffffffffff199095166001600160a01b03939093169290921793909317949094169290921795909517161790925551600392830155905491517fa5c1c40d4a5b56b243db9298ebb618d3f618999d4e053a0d3bd9e85322de2b33926105d492918691906001600160a01b0393909316835261ffff919091166020830152604082015260600190565b60405180910390a15050565b600954600854116106335760405162461bcd60e51b815260206004820152601660248201527f416c6c2062657473206172652066696e616c697a656400000000000000000000604482015260640161037e565b60098054906000610643836118f8565b90915550506009546000908152600a602052604090206001015443116106d15760405162461bcd60e51b815260206004820152602760248201527f43616e277420726f6c6c20616e642072657665616c20696e207468652073616d60448201527f6520626c6f636b00000000000000000000000000000000000000000000000000606482015260840161037e565b600080546009548252600a602052604080832054600b5491517f70dcea8b000000000000000000000000000000000000000000000000000000008152600481019190915261ffff80831660248301526201000090920490911660448201526001600160a01b03909116906370dcea8b906064016020604051808303816000875af1158015610763573d6000803e3d6000fd5b505050506040513d601f19601f820116820180604052508101906107879190611911565b6009546000908152600a60205260409020600201549091506107b490600160a01b900461ffff1682610fe6565b156108e457600980546000908152600a60205260408082206002908101805460ff60b01b1916600160b01b179055835483528183208101805460ff60b81b1916600160b81b179055925482528120909101805461ffff8416600160c01b0261ffff60c01b1990911617905580610828611037565b600980546000908152600a6020526040808220600301859055915481522060020154919350915061086590839083906001600160a01b031661107c565b6009546000908152600a60209081526040918290206002015460035483516001600160a01b03909216825260019282019290925261ffff8616928101929092526060820184905260808201527f90152513942e2aa2816826366268668d335149c05e1a0870302f245488dfcf459060a0015b60405180910390a1505050565b600980546000908152600a60205260408082206002908101805460ff60b01b1916600160b01b179055835483528183208101805460ff60b81b191690558354835281832060030183905592548252902001805461ffff8316600160c01b0261ffff60c01b1990911617905560055461095b9061134f565b6009546000908152600a602090815260408083206002015460035482516001600160a01b03909216825292810184905261ffff851691810191909152606081019290925260808201527f90152513942e2aa2816826366268668d335149c05e1a0870302f245488dfcf459060a0015b60405180910390a15b50565b6005548214610a275760405162461bcd60e51b815260206004820152600860248201527f496e76616c696420000000000000000000000000000000000000000000000000604482015260640161037e565b6004546001600160a01b0316610a7f5760405162461bcd60e51b815260206004820152600d60248201527f4d7573742075736520466c6f7700000000000000000000000000000000000000604482015260640161037e565b610a8881610ec4565b600480546040516323b872dd60e01b81523392810192909252306024830152604482018490526001600160a01b0316906323b872dd906064016020604051808303816000875af1158015610ae0573d6000803e3d6000fd5b505050506040513d601f19601f82011682018060405250810190610b04919061193b565b508160036000828254610b1791906118cc565b909155505060008054604080516308903fb560e11b815290516001600160a01b03909216916311207f6a91600480820192602092909190829003018187875af1158015610b68573d6000803e3d6000fd5b505050506040513d601f19601f82011682018060405250810190610b8c91906118df565b9050600160086000828254610ba191906118cc565b909155505060408051610100810182528281524360208083019182523383850181815261ffff8089166060870190815260006080880181815260a0890182815260c08a0183815260e08b018481526008548552600a909952928b902099518a55975160018a0155935160028901805493519551985192518516600160c01b0261ffff60c01b19931515600160b81b0260ff60b81b199a1515600160b01b029a909a1661ffff60b01b1997909616600160a01b0275ffffffffffffffffffffffffffffffffffffffffffff199095166001600160a01b03939093169290921793909317949094169290921795909517161790925551600392830155905491517fa5c1c40d4a5b56b243db9298ebb618d3f618999d4e053a0d3bd9e85322de2b33926108d792918691906001600160a01b0393909316835261ffff919091166020830152604082015260600190565b6004546001600160a01b0316610d465760405162461bcd60e51b815260206004820152601360248201527f43616e27742066756e642074686520706f6f6c00000000000000000000000000604482015260640161037e565b600480546040516323b872dd60e01b81523392810192909252306024830152604482018390526001600160a01b0316906323b872dd906064016020604051808303816000875af1158015610d9e573d6000803e3d6000fd5b505050506040513d601f19601f82011682018060405250810190610dc2919061193b565b508060036000828254610dd591906118cc565b90915550506040518181527f9d81ff1364df34467b23be983916ca00ebe5b231f3c47645a0ad063b56589f48906020016109ca565b6004546001600160a01b031615610e635760405162461bcd60e51b815260206004820152601360248201527f43616e27742066756e642074686520706f6f6c00000000000000000000000000604482015260640161037e565b348114610eb25760405162461bcd60e51b815260206004820152601660248201527f496e76616c6964206465706f73697420616d6f756e7400000000000000000000604482015260640161037e565b8060036000828254610dd591906118cc565b600b54640100000000900461ffff16600003610f9457600b5461ffff9081169082161015610f345760405162461bcd60e51b815260206004820152601260248201527f426574206d757374206265203e3d206d696e0000000000000000000000000000604482015260640161037e565b600b5461ffff62010000909104811690821611156109d35760405162461bcd60e51b815260206004820152601260248201527f426574206d757374206265203c3d206d61780000000000000000000000000000604482015260640161037e565b61ffff8116156109d35760405162461bcd60e51b815260206004820152601960248201527f4e6f7420616363657074696e6720637573746f6d206265747300000000000000604482015260640161037e565b600b54600090640100000000900461ffff168103611010578161ffff168361ffff16149050611031565b600b5461102990640100000000900461ffff1683611973565b61ffff161590505b92915050565b6000806000611047600354611586565b90506000611054826115ab565b9050600060075482846110679190611997565b6110719190611997565b959194509092505050565b6000611087836115bf565b905060006110958285611997565b905060006110a1611654565b6004549091506001600160a01b0316611108576110cf836110c06116e4565b6001600160a01b031690611747565b6110e26001600160a01b03821683611747565b6007546110f0903390611747565b6111036001600160a01b03851687611747565b611318565b6004546001600160a01b031663a9059cbb6111216116e4565b6040517fffffffff0000000000000000000000000000000000000000000000000000000060e084901b1681526001600160a01b039091166004820152602481018690526044016020604051808303816000875af1158015611186573d6000803e3d6000fd5b505050506040513d601f19601f820116820180604052508101906111aa919061193b565b506004805460405163a9059cbb60e01b81526001600160a01b03848116938201939093526024810185905291169063a9059cbb906044016020604051808303816000875af1158015611200573d6000803e3d6000fd5b505050506040513d601f19601f82011682018060405250810190611224919061193b565b506004805460075460405163a9059cbb60e01b8152339381019390935260248301526001600160a01b03169063a9059cbb906044016020604051808303816000875af1158015611278573d6000803e3d6000fd5b505050506040513d601f19601f8201168201806040525081019061129c919061193b565b506004805460405163a9059cbb60e01b81526001600160a01b03878116938201939093526024810189905291169063a9059cbb906044016020604051808303816000875af11580156112f2573d6000803e3d6000fd5b505050506040513d601f19601f82011682018060405250810190611316919061193b565b505b856007548661132791906118cc565b61133191906118cc565b600360008282546113429190611997565b9091555050505050505050565b600061135a826115ab565b90506000611367826115bf565b905060006113758284611997565b90506000611381611654565b6004549091506001600160a01b03166113c6576113a76001600160a01b03821683611747565b6113b3836110c06116e4565b6007546113c1903390611747565b61155c565b6004805460405163a9059cbb60e01b81526001600160a01b03848116938201939093526024810185905291169063a9059cbb906044016020604051808303816000875af115801561141b573d6000803e3d6000fd5b505050506040513d601f19601f8201168201806040525081019061143f919061193b565b506004546001600160a01b031663a9059cbb6114596116e4565b6040517fffffffff0000000000000000000000000000000000000000000000000000000060e084901b1681526001600160a01b039091166004820152602481018690526044016020604051808303816000875af11580156114be573d6000803e3d6000fd5b505050506040513d601f19601f820116820180604052508101906114e2919061193b565b506004805460075460405163a9059cbb60e01b8152339381019390935260248301526001600160a01b03169063a9059cbb906044016020604051808303816000875af1158015611536573d6000803e3d6000fd5b505050506040513d601f19601f8201168201806040525081019061155a919061193b565b505b60075461156990856118cc565b6003600082825461157a9190611997565b90915550505050505050565b600454600090600160a01b900460ff166115a16064846119aa565b61103191906119be565b60065460009060ff166115a16064846119aa565b600154604080517fb0e21e8a00000000000000000000000000000000000000000000000000000000815290516000926001600160a01b03169163b0e21e8a9160048083019260209291908290030181865afa158015611622573d6000803e3d6000fd5b505050506040513d601f19601f8201168201806040525081019061164691906119d5565b60ff166115a16064846119aa565b6001546002546040517f6352211e00000000000000000000000000000000000000000000000000000000815260048101919091526000916001600160a01b031690636352211e90602401602060405180830381865afa1580156116bb573d6000803e3d6000fd5b505050506040513d601f19601f820116820180604052508101906116df91906119f8565b905090565b600154604080517f8da5cb5b00000000000000000000000000000000000000000000000000000000815290516000926001600160a01b031691638da5cb5b9160048083019260209291908290030181865afa1580156116bb573d6000803e3d6000fd5b8047101561178a576040517fcf4791810000000000000000000000000000000000000000000000000000000081524760048201526024810182905260440161037e565b600080836001600160a01b03168360405160006040518083038185875af1925050503d80600081146117d8576040519150601f19603f3d011682016040523d82523d6000602084013e6117dd565b606091505b5091509150816117f0576117f0816117f6565b50505050565b8051156118065780518082602001fd5b6040517fd6bda27500000000000000000000000000000000000000000000000000000000815260040160405180910390fd5b803561ffff8116811461184a57600080fd5b919050565b60006020828403121561186157600080fd5b61186a82611838565b9392505050565b60006020828403121561188357600080fd5b5035919050565b6000806040838503121561189d57600080fd5b823591506118ad60208401611838565b90509250929050565b634e487b7160e01b600052601160045260246000fd5b80820180821115611031576110316118b6565b6000602082840312156118f157600080fd5b5051919050565b60006001820161190a5761190a6118b6565b5060010190565b60006020828403121561192357600080fd5b815167ffffffffffffffff8116811461186a57600080fd5b60006020828403121561194d57600080fd5b8151801515811461186a57600080fd5b634e487b7160e01b600052601260045260246000fd5b600061ffff8316806119875761198761195d565b8061ffff84160691505092915050565b81810381811115611031576110316118b6565b6000826119b9576119b961195d565b500490565b8082028115828204841417611031576110316118b6565b6000602082840312156119e757600080fd5b815160ff8116811461186a57600080fd5b600060208284031215611a0a57600080fd5b81516001600160a01b038116811461186a57600080fdfea2646970667358221220d857afe17186300b4638328ce3873841081a3513d05eb23368ef8e1bb51d6d3664736f6c634300081c0033",
  "linkReferences": {},
  "deployedLinkReferences": {}
}