{
  "_format": "hh-sol-artifact-1",
  "contractName": "FlowRollNFT",
  "sourceName": "contracts/FlowRollNFT.sol",
  "abi": [
    {
      "inputs": [
        {
          "internalType": "address",
          "name": "_randProvider",
          "type": "address"
        },
        {
          "internalType": "address",
          "name": "_nftSale",
          "type": "address"
        },
        {
          "internalType": "address",
          "name": "to",
          "type": "address"
        },
        {
          "internalType": "address",
          "name": "ERC20Address",
          "type": "address"
        },
        {
          "internalType": "uint8",
          "name": "winnerPrizeShare",
          "type": "uint8"
        },
        {
          "internalType": "uint256",
          "name": "diceRollCost",
          "type": "uint256"
        },
        {
          "internalType": "uint8",
          "name": "houseEdge",
          "type": "uint8"
        },
        {
          "internalType": "uint256",
          "name": "revealCompensation",
          "type": "uint256"
        },
        {
          "internalType": "uint16[3]",
          "name": "betParams",
          "type": "uint16[3]"
        }
      ],
      "stateMutability": "nonpayable",
      "type": "constructor"
    },
    {
      "inputs": [
        {
          "internalType": "address",
          "name": "sender",
          "type": "address"
        },
        {
          "internalType": "uint256",
          "name": "tokenId",
          "type": "uint256"
        },
        {
          "internalType": "address",
          "name": "owner",
          "type": "address"
        }
      ],
      "name": "ERC721IncorrectOwner",
      "type": "error"
    },
    {
      "inputs": [
        {
          "internalType": "address",
          "name": "operator",
          "type": "address"
        },
        {
          "internalType": "uint256",
          "name": "tokenId",
          "type": "uint256"
        }
      ],
      "name": "ERC721InsufficientApproval",
      "type": "error"
    },
    {
      "inputs": [
        {
          "internalType": "address",
          "name": "approver",
          "type": "address"
        }
      ],
      "name": "ERC721InvalidApprover",
      "type": "error"
    },
    {
      "inputs": [
        {
          "internalType": "address",
          "name": "operator",
          "type": "address"
        }
      ],
      "name": "ERC721InvalidOperator",
      "type": "error"
    },
    {
      "inputs": [
        {
          "internalType": "address",
          "name": "owner",
          "type": "address"
        }
      ],
      "name": "ERC721InvalidOwner",
      "type": "error"
    },
    {
      "inputs": [
        {
          "internalType": "address",
          "name": "receiver",
          "type": "address"
        }
      ],
      "name": "ERC721InvalidReceiver",
      "type": "error"
    },
    {
      "inputs": [
        {
          "internalType": "address",
          "name": "sender",
          "type": "address"
        }
      ],
      "name": "ERC721InvalidSender",
      "type": "error"
    },
    {
      "inputs": [
        {
          "internalType": "uint256",
          "name": "tokenId",
          "type": "uint256"
        }
      ],
      "name": "ERC721NonexistentToken",
      "type": "error"
    },
    {
      "inputs": [
        {
          "internalType": "address",
          "name": "owner",
          "type": "address"
        }
      ],
      "name": "OwnableInvalidOwner",
      "type": "error"
    },
    {
      "inputs": [
        {
          "internalType": "address",
          "name": "account",
          "type": "address"
        }
      ],
      "name": "OwnableUnauthorizedAccount",
      "type": "error"
    },
    {
      "anonymous": false,
      "inputs": [
        {
          "indexed": true,
          "internalType": "address",
          "name": "owner",
          "type": "address"
        },
        {
          "indexed": true,
          "internalType": "address",
          "name": "approved",
          "type": "address"
        },
        {
          "indexed": true,
          "internalType": "uint256",
          "name": "tokenId",
          "type": "uint256"
        }
      ],
      "name": "Approval",
      "type": "event"
    },
    {
      "anonymous": false,
      "inputs": [
        {
          "indexed": true,
          "internalType": "address",
          "name": "owner",
          "type": "address"
        },
        {
          "indexed": true,
          "internalType": "address",
          "name": "operator",
          "type": "address"
        },
        {
          "indexed": false,
          "internalType": "bool",
          "name": "approved",
          "type": "bool"
        }
      ],
      "name": "ApprovalForAll",
      "type": "event"
    },
    {
      "anonymous": false,
      "inputs": [
        {
          "indexed": false,
          "internalType": "uint256",
          "name": "_fromTokenId",
          "type": "uint256"
        },
        {
          "indexed": false,
          "internalType": "uint256",
          "name": "_toTokenId",
          "type": "uint256"
        }
      ],
      "name": "BatchMetadataUpdate",
      "type": "event"
    },
    {
      "anonymous": false,
      "inputs": [
        {
          "indexed": false,
          "internalType": "uint256",
          "name": "_tokenId",
          "type": "uint256"
        }
      ],
      "name": "MetadataUpdate",
      "type": "event"
    },
    {
      "anonymous": false,
      "inputs": [
        {
          "indexed": true,
          "internalType": "address",
          "name": "owner",
          "type": "address"
        }
      ],
      "name": "NewFlowRoll",
      "type": "event"
    },
    {
      "anonymous": false,
      "inputs": [
        {
          "indexed": true,
          "internalType": "address",
          "name": "previousOwner",
          "type": "address"
        },
        {
          "indexed": true,
          "internalType": "address",
          "name": "newOwner",
          "type": "address"
        }
      ],
      "name": "OwnershipTransferred",
      "type": "event"
    },
    {
      "anonymous": false,
      "inputs": [
        {
          "indexed": true,
          "internalType": "address",
          "name": "from",
          "type": "address"
        },
        {
          "indexed": true,
          "internalType": "address",
          "name": "to",
          "type": "address"
        },
        {
          "indexed": true,
          "internalType": "uint256",
          "name": "tokenId",
          "type": "uint256"
        }
      ],
      "name": "Transfer",
      "type": "event"
    },
    {
      "inputs": [],
      "name": "MAXMINT",
      "outputs": [
        {
          "internalType": "uint256",
          "name": "",
          "type": "uint256"
        }
      ],
      "stateMutability": "view",
      "type": "function"
    },
    {
      "inputs": [
        {
          "internalType": "address",
          "name": "to",
          "type": "address"
        },
        {
          "internalType": "uint256",
          "name": "tokenId",
          "type": "uint256"
        }
      ],
      "name": "approve",
      "outputs": [],
      "stateMutability": "nonpayable",
      "type": "function"
    },
    {
      "inputs": [
        {
          "internalType": "address",
          "name": "owner",
          "type": "address"
        }
      ],
      "name": "balanceOf",
      "outputs": [
        {
          "internalType": "uint256",
          "name": "",
          "type": "uint256"
        }
      ],
      "stateMutability": "view",
      "type": "function"
    },
    {
      "inputs": [
        {
          "internalType": "uint256",
          "name": "to",
          "type": "uint256"
        }
      ],
      "name": "changeMaxMint",
      "outputs": [],
      "stateMutability": "nonpayable",
      "type": "function"
    },
    {
      "inputs": [
        {
          "internalType": "address",
          "name": "to",
          "type": "address"
        }
      ],
      "name": "changeNFTSaleContract",
      "outputs": [],
      "stateMutability": "nonpayable",
      "type": "function"
    },
    {
      "inputs": [],
      "name": "count",
      "outputs": [
        {
          "internalType": "uint256",
          "name": "",
          "type": "uint256"
        }
      ],
      "stateMutability": "view",
      "type": "function"
    },
    {
      "inputs": [
        {
          "internalType": "uint256",
          "name": "",
          "type": "uint256"
        }
      ],
      "name": "flowRollContractAddresses",
      "outputs": [
        {
          "internalType": "address",
          "name": "",
          "type": "address"
        }
      ],
      "stateMutability": "view",
      "type": "function"
    },
    {
      "inputs": [
        {
          "internalType": "uint256",
          "name": "tokenId",
          "type": "uint256"
        }
      ],
      "name": "getApproved",
      "outputs": [
        {
          "internalType": "address",
          "name": "",
          "type": "address"
        }
      ],
      "stateMutability": "view",
      "type": "function"
    },
    {
      "inputs": [
        {
          "internalType": "address",
          "name": "ERC20Address",
          "type": "address"
        },
        {
          "internalType": "uint8",
          "name": "winnerPrizeShare",
          "type": "uint8"
        },
        {
          "internalType": "uint256",
          "name": "diceRollCost",
          "type": "uint256"
        },
        {
          "internalType": "uint8",
          "name": "houseEdge",
          "type": "uint8"
        },
        {
          "internalType": "uint256",
          "name": "revealCompensation",
          "type": "uint256"
        },
        {
          "internalType": "uint16",
          "name": "min",
          "type": "uint16"
        },
        {
          "internalType": "uint16",
          "name": "max",
          "type": "uint16"
        },
        {
          "internalType": "uint16",
          "name": "betType",
          "type": "uint16"
        }
      ],
      "name": "hashRollParameters",
      "outputs": [
        {
          "internalType": "bytes32",
          "name": "",
          "type": "bytes32"
        }
      ],
      "stateMutability": "pure",
      "type": "function"
    },
    {
      "inputs": [
        {
          "internalType": "address",
          "name": "owner",
          "type": "address"
        },
        {
          "internalType": "address",
          "name": "operator",
          "type": "address"
        }
      ],
      "name": "isApprovedForAll",
      "outputs": [
        {
          "internalType": "bool",
          "name": "",
          "type": "bool"
        }
      ],
      "stateMutability": "view",
      "type": "function"
    },
    {
      "inputs": [
        {
          "internalType": "address",
          "name": "to",
          "type": "address"
        },
        {
          "internalType": "address",
          "name": "ERC20Address",
          "type": "address"
        },
        {
          "internalType": "uint8",
          "name": "winnerPrizeShare",
          "type": "uint8"
        },
        {
          "internalType": "uint256",
          "name": "diceRollCost",
          "type": "uint256"
        },
        {
          "internalType": "uint8",
          "name": "houseEdge",
          "type": "uint8"
        },
        {
          "internalType": "uint256",
          "name": "revealCompensation",
          "type": "uint256"
        },
        {
          "internalType": "uint16[3]",
          "name": "betParams",
          "type": "uint16[3]"
        }
      ],
      "name": "mintFlowRoll",
      "outputs": [],
      "stateMutability": "nonpayable",
      "type": "function"
    },
    {
      "inputs": [],
      "name": "name",
      "outputs": [
        {
          "internalType": "string",
          "name": "",
          "type": "string"
        }
      ],
      "stateMutability": "view",
      "type": "function"
    },
    {
      "inputs": [],
      "name": "owner",
      "outputs": [
        {
          "internalType": "address",
          "name": "",
          "type": "address"
        }
      ],
      "stateMutability": "view",
      "type": "function"
    },
    {
      "inputs": [
        {
          "internalType": "uint256",
          "name": "tokenId",
          "type": "uint256"
        }
      ],
      "name": "ownerOf",
      "outputs": [
        {
          "internalType": "address",
          "name": "",
          "type": "address"
        }
      ],
      "stateMutability": "view",
      "type": "function"
    },
    {
      "inputs": [],
      "name": "protocolFee",
      "outputs": [
        {
          "internalType": "uint8",
          "name": "",
          "type": "uint8"
        }
      ],
      "stateMutability": "view",
      "type": "function"
    },
    {
      "inputs": [],
      "name": "renounceOwnership",
      "outputs": [],
      "stateMutability": "nonpayable",
      "type": "function"
    },
    {
      "inputs": [
        {
          "internalType": "address",
          "name": "from",
          "type": "address"
        },
        {
          "internalType": "address",
          "name": "to",
          "type": "address"
        },
        {
          "internalType": "uint256",
          "name": "tokenId",
          "type": "uint256"
        }
      ],
      "name": "safeTransferFrom",
      "outputs": [],
      "stateMutability": "nonpayable",
      "type": "function"
    },
    {
      "inputs": [
        {
          "internalType": "address",
          "name": "from",
          "type": "address"
        },
        {
          "internalType": "address",
          "name": "to",
          "type": "address"
        },
        {
          "internalType": "uint256",
          "name": "tokenId",
          "type": "uint256"
        },
        {
          "internalType": "bytes",
          "name": "data",
          "type": "bytes"
        }
      ],
      "name": "safeTransferFrom",
      "outputs": [],
      "stateMutability": "nonpayable",
      "type": "function"
    },
    {
      "inputs": [
        {
          "internalType": "address",
          "name": "operator",
          "type": "address"
        },
        {
          "internalType": "bool",
          "name": "approved",
          "type": "bool"
        }
      ],
      "name": "setApprovalForAll",
      "outputs": [],
      "stateMutability": "nonpayable",
      "type": "function"
    },
    {
      "inputs": [
        {
          "internalType": "uint8",
          "name": "to",
          "type": "uint8"
        }
      ],
      "name": "setProtocolFee",
      "outputs": [],
      "stateMutability": "nonpayable",
      "type": "function"
    },
    {
      "inputs": [
        {
          "internalType": "bytes4",
          "name": "interfaceId",
          "type": "bytes4"
        }
      ],
      "name": "supportsInterface",
      "outputs": [
        {
          "internalType": "bool",
          "name": "",
          "type": "bool"
        }
      ],
      "stateMutability": "view",
      "type": "function"
    },
    {
      "inputs": [],
      "name": "symbol",
      "outputs": [
        {
          "internalType": "string",
          "name": "",
          "type": "string"
        }
      ],
      "stateMutability": "view",
      "type": "function"
    },
    {
      "inputs": [
        {
          "internalType": "uint256",
          "name": "tokenId",
          "type": "uint256"
        }
      ],
      "name": "tokenURI",
      "outputs": [
        {
          "internalType": "string",
          "name": "",
          "type": "string"
        }
      ],
      "stateMutability": "view",
      "type": "function"
    },
    {
      "inputs": [
        {
          "internalType": "address",
          "name": "from",
          "type": "address"
        },
        {
          "internalType": "address",
          "name": "to",
          "type": "address"
        },
        {
          "internalType": "uint256",
          "name": "tokenId",
          "type": "uint256"
        }
      ],
      "name": "transferFrom",
      "outputs": [],
      "stateMutability": "nonpayable",
      "type": "function"
    },
    {
      "inputs": [
        {
          "internalType": "address",
          "name": "newOwner",
          "type": "address"
        }
      ],
      "name": "transferOwnership",
      "outputs": [],
      "stateMutability": "nonpayable",
      "type": "function"
    }
  ],
  "bytecode": "0x608060405234801561001057600080fd5b506040516167f03803806167f083398101604081905261002f916108f8565b336040518060400160405280600b81526020016a119b1bddd49bdb1b13919560aa1b8152506040518060400160405280600381526020016211949360ea1b815250816000908161007f9190610a7a565b50600161008c8282610a7a565b5050506001600160a01b0381166100be57604051631e4fbdf760e01b8152600060048201526024015b60405180910390fd5b6100c781610120565b50600b80546001600160a01b03808b166001600160a01b03199283161790925560006009556103e8600855600d8054928c169290911691909117905561011287878787878787610172565b505050505050505050610c75565b600780546001600160a01b038381166001600160a01b0319831681179093556040519116919082907f8be0079c531659141344cd1fd0a4f28419497f9722a3daafe3b4186f6b6457e090600090a35050565b6008546009541061018257600080fd5b805160208083015160408085015181516001600160601b031960608d901b16818601527fff0000000000000000000000000000000000000000000000000000000000000060f88c811b82166034840152603583018c90528a901b166055820152605681018890526001600160f01b031960f096871b8116607683015293861b84166078820152941b909116607a8401528051808403605c018152607c909301905281519101206000906000818152600c602052604090205490915060ff161561028d5760405162461bcd60e51b815260206004820152601460248201527f4475706c696361746520706172616d657465727300000000000000000000000060448201526064016100b5565b6000818152600c6020526040808220805460ff19166001179055600d5460095491516001600160a01b0390911691908a908a908a908a908a908a906102d190610896565b6102e2989796959493929190610b38565b604051809103906000f0801580156102fe573d6000803e3d6000fd5b50600980546000908152600a6020526040902080546001600160a01b0319166001600160a01b03841617905554909150610339908a90610380565b600954610347906001610bb2565b60095560405133907f99f345f41aa6fa64220ff92c2b427dd16f0dab03be922a76a6e61b2540b888db90600090a2505050505050505050565b6103a08282604051806020016040528060008152506103a460201b60201c565b5050565b6103ae83836103c1565b6103bc336000858585610425565b505050565b6001600160a01b0382166103eb57604051633250574960e11b8152600060048201526024016100b5565b60006103f8838383610550565b90506001600160a01b038116156103bc576040516339e3563760e11b8152600060048201526024016100b5565b6001600160a01b0383163b1561054957604051630a85bd0160e11b81526001600160a01b0384169063150b7a0290610467908890889087908790600401610bd3565b6020604051808303816000875af19250505080156104a2575060408051601f3d908101601f1916820190925261049f91810190610c44565b60015b61050b573d8080156104d0576040519150601f19603f3d011682016040523d82523d6000602084013e6104d5565b606091505b50805160000361050357604051633250574960e11b81526001600160a01b03851660048201526024016100b5565b805181602001fd5b6001600160e01b03198116630a85bd0160e11b1461054757604051633250574960e11b81526001600160a01b03851660048201526024016100b5565b505b5050505050565b6000828152600260205260408120546001600160a01b039081169083161561057d5761057d818486610648565b6001600160a01b038116156105ba5761059960008581806106ac565b6001600160a01b038116600090815260036020526040902080546000190190555b6001600160a01b038516156105e9576001600160a01b0385166000908152600360205260409020805460010190555b60008481526002602052604080822080546001600160a01b0319166001600160a01b0389811691821790925591518793918516917fddf252ad1be2c89b69c2b068fc378daa952ba7f163c4a11628f55a4df523b3ef91a4949350505050565b6106538383836107d1565b6103bc576001600160a01b03831661068157604051637e27328960e01b8152600481018290526024016100b5565b60405163177e802f60e01b81526001600160a01b0383166004820152602481018290526044016100b5565b80806106c057506001600160a01b03821615155b156107a15760006106d084610857565b90506001600160a01b038316158015906106fc5750826001600160a01b0316816001600160a01b031614155b801561072e57506001600160a01b0380821660009081526005602090815260408083209387168352929052205460ff16155b156107575760405163a9fbf51f60e01b81526001600160a01b03841660048201526024016100b5565b811561079f5783856001600160a01b0316826001600160a01b03167f8c5be1e5ebec7d5bd14f71427d1e84f3dd0314c0f7b2291e5b200ac8c7c3b92560405160405180910390a45b505b5050600090815260046020526040902080546001600160a01b0319166001600160a01b0392909216919091179055565b60006001600160a01b0383161580159061084f5750826001600160a01b0316846001600160a01b0316148061082b57506001600160a01b0380851660009081526005602090815260408083209387168352929052205460ff165b8061084f57506000828152600460205260409020546001600160a01b038481169116145b949350505050565b6000818152600260205260408120546001600160a01b03168061089057604051637e27328960e01b8152600481018490526024016100b5565b92915050565b611fa98061484783390190565b80516001600160a01b03811681146108ba57600080fd5b919050565b805160ff811681146108ba57600080fd5b634e487b7160e01b600052604160045260246000fd5b805161ffff811681146108ba57600080fd5b60008060008060008060008060006101608a8c03121561091757600080fd5b6109208a6108a3565b985061092e60208b016108a3565b975061093c60408b016108a3565b965061094a60608b016108a3565b955061095860808b016108bf565b60a08b0151909550935061096e60c08b016108bf565b60e08b0151909350915061011f8a018b1361098857600080fd5b604051606081016001600160401b03811182821017156109aa576109aa6108d0565b604052806101608c018d8111156109c057600080fd5b6101008d015b818110156109e5576109d7816108e6565b8352602092830192016109c6565b505050809150509295985092959850929598565b600181811c90821680610a0d57607f821691505b602082108103610a2d57634e487b7160e01b600052602260045260246000fd5b50919050565b601f8211156103bc57806000526020600020601f840160051c81016020851015610a5a5750805b601f840160051c820191505b818110156105495760008155600101610a66565b81516001600160401b03811115610a9357610a936108d0565b610aa781610aa184546109f9565b84610a33565b6020601f821160018114610adb5760008315610ac35750848201515b600019600385901b1c1916600184901b178455610549565b600084815260208120601f198516915b82811015610b0b5787850151825560209485019460019092019101610aeb565b5084821015610b295786840151600019600387901b60f8161c191681555b50505050600190811b01905550565b6001600160a01b038981168252602082018990528716604082015260ff868116606083015260808201869052841660a082015260c08101839052610140810160e082018360005b6003811015610ba257815161ffff16835260209283019290910190600101610b7f565b5050509998505050505050505050565b8082018082111561089057634e487b7160e01b600052601160045260246000fd5b6001600160a01b03858116825284166020820152604081018390526080606082018190528251908201819052600090815b81811015610c2157602081860181015160a0868401015201610c04565b50600060a0828501015260a0601f19601f83011684010191505095945050505050565b600060208284031215610c5657600080fd5b81516001600160e01b031981168114610c6e57600080fd5b9392505050565b613bc380610c846000396000f3fe608060405234801561001057600080fd5b50600436106101a35760003560e01c806370a08231116100ee578063a22cb46511610097578063c87b56dd11610071578063c87b56dd14610422578063e985e9c514610435578063f2fde38b14610471578063f5dfbcfe1461048457600080fd5b8063a22cb465146103d6578063b0e21e8a146103e9578063b88d4fde1461040f57600080fd5b806380450bf9116100c857806380450bf9146103aa5780638da5cb5b146103bd57806395d89b41146103ce57600080fd5b806370a08231146102b7578063715018a6146102ca5780637465d894146102d257600080fd5b806323b872dd116101505780634e91f8111161012a5780634e91f8111461027e5780636352211e146102915780636f95c34f146102a457600080fd5b806323b872dd1461024f5780633d8a56601461026257806342842e0e1461026b57600080fd5b8063081812fc11610181578063081812fc146101fc578063095ea7b31461022757806320c63e3b1461023c57600080fd5b806301ffc9a7146101a857806306661abd146101d057806306fdde03146101e7575b600080fd5b6101bb6101b6366004611617565b6104ad565b60405190151581526020015b60405180910390f35b6101d960095481565b6040519081526020016101c7565b6101ef6104be565b6040516101c79190611684565b61020f61020a366004611697565b610550565b6040516001600160a01b0390911681526020016101c7565b61023a6102353660046116cc565b610579565b005b61023a61024a366004611697565b610588565b61023a61025d3660046116f6565b6105eb565b6101d960085481565b61023a6102793660046116f6565b61068f565b61023a61028c366004611744565b6106af565b61020f61029f366004611697565b610746565b61023a6102b236600461175f565b610751565b6101d96102c536600461175f565b61077b565b61023a6107dc565b6101d96102e036600461178c565b6040516bffffffffffffffffffffffff1960608a901b1660208201527fff0000000000000000000000000000000000000000000000000000000000000060f889811b821660348401526035830189905287901b166055820152605681018590527fffff00000000000000000000000000000000000000000000000000000000000060f085811b8216607684015284811b8216607884015283901b16607a820152600090607c0160405160208183030381529060405280519060200120905098975050505050505050565b61023a6103b8366004611885565b6107f0565b6007546001600160a01b031661020f565b6101ef610862565b61023a6103e4366004611945565b610871565b600d546103fd90600160a01b900460ff1681565b60405160ff90911681526020016101c7565b61023a61041d366004611981565b61087c565b6101ef610430366004611697565b610894565b6101bb610443366004611a46565b6001600160a01b03918216600090815260056020908152604080832093909416825291909152205460ff1690565b61023a61047f36600461175f565b61089f565b61020f610492366004611697565b600a602052600090815260409020546001600160a01b031681565b60006104b8826108f6565b92915050565b6060600080546104cd90611a79565b80601f01602080910402602001604051908101604052809291908181526020018280546104f990611a79565b80156105465780601f1061051b57610100808354040283529160200191610546565b820191906000526020600020905b81548152906001019060200180831161052957829003601f168201915b5050505050905090565b600061055b82610934565b506000828152600460205260409020546001600160a01b03166104b8565b61058482823361096d565b5050565b61059061097a565b61271081106105e65760405162461bcd60e51b815260206004820152600b60248201527f4d6178696d756d2031306b00000000000000000000000000000000000000000060448201526064015b60405180910390fd5b600855565b6001600160a01b03821661061557604051633250574960e11b8152600060048201526024016105dd565b60006106228383336109c0565b9050836001600160a01b0316816001600160a01b031614610689576040517f64283d7b0000000000000000000000000000000000000000000000000000000081526001600160a01b03808616600483015260248201849052821660448201526064016105dd565b50505050565b6106aa8383836040518060200160405280600081525061087c565b505050565b6106b761097a565b60148160ff16111561070b5760405162461bcd60e51b815260206004820152600660248201527f3230206d6178000000000000000000000000000000000000000000000000000060448201526064016105dd565b600d805460ff909216600160a01b027fffffffffffffffffffffff00ffffffffffffffffffffffffffffffffffffffff909216919091179055565b60006104b882610934565b61075961097a565b600b80546001600160a01b0319166001600160a01b0392909216919091179055565b60006001600160a01b0382166107c0576040517f89c62b64000000000000000000000000000000000000000000000000000000008152600060048201526024016105dd565b506001600160a01b031660009081526003602052604090205490565b6107e461097a565b6107ee6000610ab9565b565b600b546001600160a01b0316331461084a5760405162461bcd60e51b815260206004820152601560248201527f4f6e6c792073656c6c696e6720636f6e7472616374000000000000000000000060448201526064016105dd565b61085987878787878787610b0b565b50505050505050565b6060600180546104cd90611a79565b610584338383610d36565b6108878484846105eb565b6106893385858585610dee565b60606104b882610f19565b6108a761097a565b6001600160a01b0381166108ea576040517f1e4fbdf7000000000000000000000000000000000000000000000000000000008152600060048201526024016105dd565b6108f381610ab9565b50565b60006001600160e01b031982167f490649060000000000000000000000000000000000000000000000000000000014806104b857506104b88261104f565b6000818152600260205260408120546001600160a01b0316806104b857604051637e27328960e01b8152600481018490526024016105dd565b6106aa83838360016110ea565b6007546001600160a01b031633146107ee576040517f118cdaa70000000000000000000000000000000000000000000000000000000081523360048201526024016105dd565b6000828152600260205260408120546001600160a01b03908116908316156109ed576109ed818486611228565b6001600160a01b03811615610a2b57610a0a6000856000806110ea565b6001600160a01b038116600090815260036020526040902080546000190190555b6001600160a01b03851615610a5a576001600160a01b0385166000908152600360205260409020805460010190555b60008481526002602052604080822080546001600160a01b0319166001600160a01b0389811691821790925591518793918516917fddf252ad1be2c89b69c2b068fc378daa952ba7f163c4a11628f55a4df523b3ef91a4949350505050565b600780546001600160a01b038381166001600160a01b0319831681179093556040519116919082907f8be0079c531659141344cd1fd0a4f28419497f9722a3daafe3b4186f6b6457e090600090a35050565b60085460095410610b1b57600080fd5b805160208083015160408085015181516bffffffffffffffffffffffff1960608d901b16818601527fff0000000000000000000000000000000000000000000000000000000000000060f88c811b82166034840152603583018c90528a901b166055820152605681018890527fffff00000000000000000000000000000000000000000000000000000000000060f096871b8116607683015293861b84166078820152941b909116607a8401528051808403605c018152607c909301905281519101206000906000818152600c602052604090205490915060ff1615610c435760405162461bcd60e51b815260206004820152601460248201527f4475706c696361746520706172616d657465727300000000000000000000000060448201526064016105dd565b6000818152600c6020526040808220805460ff19166001179055600d5460095491516001600160a01b0390911691908a908a908a908a908a908a90610c87906115f4565b610c98989796959493929190611ab3565b604051809103906000f080158015610cb4573d6000803e3d6000fd5b50600980546000908152600a6020526040902080546001600160a01b0319166001600160a01b03841617905554909150610cef908a906112a5565b600954610cfd906001611b36565b60095560405133907f99f345f41aa6fa64220ff92c2b427dd16f0dab03be922a76a6e61b2540b888db90600090a2505050505050505050565b6001600160a01b038216610d81576040517f5b08ba180000000000000000000000000000000000000000000000000000000081526001600160a01b03831660048201526024016105dd565b6001600160a01b03838116600081815260056020908152604080832094871680845294825291829020805460ff191686151590811790915591519182527f17307eab39ab6107e8899845ad3d59bd9653f200f220920489ca2b5937696c31910160405180910390a3505050565b6001600160a01b0383163b15610f1257604051630a85bd0160e11b81526001600160a01b0384169063150b7a0290610e30908890889087908790600401611b57565b6020604051808303816000875af1925050508015610e6b575060408051601f3d908101601f19168201909252610e6891810190611b98565b60015b610ed4573d808015610e99576040519150601f19603f3d011682016040523d82523d6000602084013e610e9e565b606091505b508051600003610ecc57604051633250574960e11b81526001600160a01b03851660048201526024016105dd565b805181602001fd5b6001600160e01b03198116630a85bd0160e11b14610f1057604051633250574960e11b81526001600160a01b03851660048201526024016105dd565b505b5050505050565b6060610f2482610934565b5060008281526006602052604081208054610f3e90611a79565b80601f0160208091040260200160405190810160405280929190818152602001828054610f6a90611a79565b8015610fb75780601f10610f8c57610100808354040283529160200191610fb7565b820191906000526020600020905b815481529060010190602001808311610f9a57829003601f168201915b505050505090506000610ffa60408051808201909152601681527f68747470733a2f2f666c6f77726f6c6c2e636c75622f00000000000000000000602082015290565b9050805160000361100c575092915050565b81511561103e578082604051602001611026929190611bb5565b60405160208183030381529060405292505050919050565b611047846112bf565b949350505050565b60006001600160e01b031982167f80ac58cd0000000000000000000000000000000000000000000000000000000014806110b257506001600160e01b031982167f5b5e139f00000000000000000000000000000000000000000000000000000000145b806104b857507f01ffc9a7000000000000000000000000000000000000000000000000000000006001600160e01b03198316146104b8565b80806110fe57506001600160a01b03821615155b156111f857600061110e84610934565b90506001600160a01b0383161580159061113a5750826001600160a01b0316816001600160a01b031614155b801561116c57506001600160a01b0380821660009081526005602090815260408083209387168352929052205460ff16155b156111ae576040517fa9fbf51f0000000000000000000000000000000000000000000000000000000081526001600160a01b03841660048201526024016105dd565b81156111f65783856001600160a01b0316826001600160a01b03167f8c5be1e5ebec7d5bd14f71427d1e84f3dd0314c0f7b2291e5b200ac8c7c3b92560405160405180910390a45b505b5050600090815260046020526040902080546001600160a01b0319166001600160a01b0392909216919091179055565b611233838383611359565b6106aa576001600160a01b03831661126157604051637e27328960e01b8152600481018290526024016105dd565b6040517f177e802f0000000000000000000000000000000000000000000000000000000081526001600160a01b0383166004820152602481018290526044016105dd565b6105848282604051806020016040528060008152506113dc565b60606112ca82610934565b50600061130760408051808201909152601681527f68747470733a2f2f666c6f77726f6c6c2e636c75622f00000000000000000000602082015290565b905060008151116113275760405180602001604052806000815250611352565b80611331846113f4565b604051602001611342929190611bb5565b6040516020818303038152906040525b9392505050565b60006001600160a01b038316158015906110475750826001600160a01b0316846001600160a01b031614806113b357506001600160a01b0380851660009081526005602090815260408083209387168352929052205460ff165b806110475750506000908152600460205260409020546001600160a01b03908116911614919050565b6113e68383611494565b6106aa336000858585610dee565b6060600061140183611512565b600101905060008167ffffffffffffffff81111561142157611421611815565b6040519080825280601f01601f19166020018201604052801561144b576020820181803683370190505b5090508181016020015b600019017f3031323334353637383961626364656600000000000000000000000000000000600a86061a8153600a850494508461145557509392505050565b6001600160a01b0382166114be57604051633250574960e11b8152600060048201526024016105dd565b60006114cc838360006109c0565b90506001600160a01b038116156106aa576040517f73c6ac6e000000000000000000000000000000000000000000000000000000008152600060048201526024016105dd565b6000807a184f03e93ff9f4daa797ed6e38ed64bf6a1f010000000000000000831061155b577a184f03e93ff9f4daa797ed6e38ed64bf6a1f010000000000000000830492506040015b6d04ee2d6d415b85acef81000000008310611587576d04ee2d6d415b85acef8100000000830492506020015b662386f26fc1000083106115a557662386f26fc10000830492506010015b6305f5e10083106115bd576305f5e100830492506008015b61271083106115d157612710830492506004015b606483106115e3576064830492506002015b600a83106104b85760010192915050565b611fa980611be583390190565b6001600160e01b0319811681146108f357600080fd5b60006020828403121561162957600080fd5b813561135281611601565b60005b8381101561164f578181015183820152602001611637565b50506000910152565b60008151808452611670816020860160208601611634565b601f01601f19169290920160200192915050565b6020815260006113526020830184611658565b6000602082840312156116a957600080fd5b5035919050565b80356001600160a01b03811681146116c757600080fd5b919050565b600080604083850312156116df57600080fd5b6116e8836116b0565b946020939093013593505050565b60008060006060848603121561170b57600080fd5b611714846116b0565b9250611722602085016116b0565b929592945050506040919091013590565b803560ff811681146116c757600080fd5b60006020828403121561175657600080fd5b61135282611733565b60006020828403121561177157600080fd5b611352826116b0565b803561ffff811681146116c757600080fd5b600080600080600080600080610100898b0312156117a957600080fd5b6117b2896116b0565b97506117c060208a01611733565b9650604089013595506117d560608a01611733565b9450608089013593506117ea60a08a0161177a565b92506117f860c08a0161177a565b915061180660e08a0161177a565b90509295985092959890939650565b634e487b7160e01b600052604160045260246000fd5b6040516060810167ffffffffffffffff8111828210171561184e5761184e611815565b60405290565b604051601f8201601f1916810167ffffffffffffffff8111828210171561187d5761187d611815565b604052919050565b6000806000806000806000610120888a0312156118a157600080fd5b6118aa886116b0565b96506118b8602089016116b0565b95506118c660408901611733565b9450606088013593506118db60808901611733565b925060a0880135915060df880189136118f357600080fd5b6118fb61182b565b806101208a018b81111561190e57600080fd5b60c08b015b81811015611932576119248161177a565b845260209384019301611913565b5050809250505092959891949750929550565b6000806040838503121561195857600080fd5b611961836116b0565b91506020830135801515811461197657600080fd5b809150509250929050565b6000806000806080858703121561199757600080fd5b6119a0856116b0565b93506119ae602086016116b0565b925060408501359150606085013567ffffffffffffffff8111156119d157600080fd5b8501601f810187136119e257600080fd5b803567ffffffffffffffff8111156119fc576119fc611815565b611a0f601f8201601f1916602001611854565b818152886020838501011115611a2457600080fd5b8160208401602083013760006020838301015280935050505092959194509250565b60008060408385031215611a5957600080fd5b611a62836116b0565b9150611a70602084016116b0565b90509250929050565b600181811c90821680611a8d57607f821691505b602082108103611aad57634e487b7160e01b600052602260045260246000fd5b50919050565b6000610140820190506001600160a01b038a1682528860208301526001600160a01b038816604083015260ff8716606083015285608083015260ff851660a08301528360c083015260e082018360005b6003811015611b2657815161ffff16835260209283019290910190600101611b03565b5050509998505050505050505050565b808201808211156104b857634e487b7160e01b600052601160045260246000fd5b6001600160a01b03851681526001600160a01b0384166020820152826040820152608060608201526000611b8e6080830184611658565b9695505050505050565b600060208284031215611baa57600080fd5b815161135281611601565b60008351611bc7818460208801611634565b835190830190611bdb818360208801611634565b0194935050505056fe608060405234801561001057600080fd5b50604051611fa9380380611fa983398101604081905261002f916103f8565b60648560ff1611156100885760405162461bcd60e51b815260206004820152601760248201527f5072697a652073686172652069732031303025206d617800000000000000000060448201526064015b60405180910390fd5b60648360ff1611156100dc5760405162461bcd60e51b815260206004820152601660248201527f486f75736520656467652069732031303025206d617800000000000000000000604482015260640161007f565b83821061012b5760405162461bcd60e51b815260206004820152601c60248201527f52657665616c20636f6d70656e736174696f6e20746f6f206869676800000000604482015260640161007f565b836101358161037f565b61013f90846104f7565b1061019d5760405162461bcd60e51b815260206004820152602860248201527f696e76616c696420486f7573652065646765206f722072657665616c436f6d7060448201526732b739b0ba34b7b760c11b606482015260840161007f565b604081015161ffff166001036101f55760405162461bcd60e51b815260206004820152601460248201527f62657454797065203120697320696e76616c6964000000000000000000000000604482015260640161007f565b6020810151815161ffff9182169116106102515760405162461bcd60e51b815260206004820152601660248201527f6d696e206d757374206265203c207468616e206d617800000000000000000000604482015260640161007f565b6020810151604082015161ffff918216911611156102b15760405162461bcd60e51b815260206004820152601f60248201527f42657420747970652063616e2774206265206d6f7265207468616e206d617800604482015260640161007f565b600080546001600160a01b03998a166001600160a01b0319918216178255600180549091163317905560029790975560038790556004805460ff968716600160a01b026001600160a81b0319909116979099169690961797909717909455600591909155600680549190921660ff1990911617905560075560088190556009558051600b8054602084015160409094015161ffff948516620100000293851663ffffffff19909216919091179290921761ffff60201b19166401000000009390921692909202179055610543565b60065460009060ff1661039360648461050a565b61039d919061052c565b92915050565b80516001600160a01b03811681146103ba57600080fd5b919050565b805160ff811681146103ba57600080fd5b634e487b7160e01b600052604160045260246000fd5b805161ffff811681146103ba57600080fd5b600080600080600080600080610140898b03121561041557600080fd5b61041e896103a3565b60208a0151909850965061043460408a016103a3565b955061044260608a016103bf565b60808a0151909550935061045860a08a016103bf565b60c08a0151909350915060ff89018a1361047157600080fd5b604051606081016001600160401b0381118282101715610493576104936103d0565b604052806101408b018c8111156104a957600080fd5b60e08c015b818110156104cd576104bf816103e6565b8352602092830192016104ae565b505050809150509295985092959890939650565b634e487b7160e01b600052601160045260246000fd5b8082018082111561039d5761039d6104e1565b60008261052757634e487b7160e01b600052601260045260246000fd5b500490565b808202811582820484141761039d5761039d6104e1565b611a57806105526000396000f3fe6080604052600436106100c75760003560e01c8063945b62b711610074578063bfacd9ed1161004e578063bfacd9ed1461028f578063d03c0ade14610308578063fd94183d1461031e57600080fd5b8063945b62b7146102245780639a0d399214610244578063a6021ace1461025757600080fd5b806322af00fa116100a557806322af00fa1461012c578063676a3a97146101f85780637801f8421461020e57600080fd5b806311d86d47146100cc57806317ba50ed146100f55780631beb7b071461010c575b600080fd5b3480156100d857600080fd5b506100e260025481565b6040519081526020015b60405180910390f35b34801561010157600080fd5b5061010a610331565b005b34801561011857600080fd5b5061010a61012736600461184f565b61072c565b34801561013857600080fd5b506101a761014736600461187b565b600a602052600090815260409020805460018201546002830154600390930154919290916001600160a01b0382169161ffff600160a01b820481169260ff600160b01b8404811693600160b81b810490911692600160c01b909104169088565b6040805198895260208901979097526001600160a01b039095169587019590955261ffff92831660608701529015156080860152151560a085015290911660c083015260e0820152610100016100ec565b34801561020457600080fd5b506100e260035481565b34801561021a57600080fd5b506100e260085481565b34801561023057600080fd5b5061010a61023f36600461187b565b610a44565b61010a61025236600461187b565b610b60565b34801561026357600080fd5b50600454610277906001600160a01b031681565b6040516001600160a01b0390911681526020016100ec565b34801561029b57600080fd5b50600454600554600654600754600b5460408051600160a01b90960460ff908116875260208701959095529390921692840192909252606083019190915261ffff8082166080840152620100008204811660a08401526401000000009091041660c082015260e0016100ec565b34801561031457600080fd5b506100e260095481565b61010a61032c366004611894565b610c1a565b600954600854116103895760405162461bcd60e51b815260206004820152601660248201527f416c6c2062657473206172652066696e616c697a65640000000000000000000060448201526064015b60405180910390fd5b60098054906000610399836118cc565b90915550506009546000908152600a602052604090206001015443116104275760405162461bcd60e51b815260206004820152602760248201527f43616e277420726f6c6c20616e642072657665616c20696e207468652073616d60448201527f6520626c6f636b000000000000000000000000000000000000000000000000006064820152608401610380565b600080546009548252600a602052604080832054600b5491517f70dcea8b000000000000000000000000000000000000000000000000000000008152600481019190915261ffff80831660248301526201000090920490911660448201526001600160a01b03909116906370dcea8b906064016020604051808303816000875af11580156104b9573d6000803e3d6000fd5b505050506040513d601f19601f820116820180604052508101906104dd91906118e5565b6009546000908152600a602052604090206002015490915061050a90600160a01b900461ffff1682610ec4565b1561063a57600980546000908152600a60205260408082206002908101805460ff60b01b1916600160b01b179055835483528183208101805460ff60b81b1916600160b81b179055925482528120909101805461ffff8416600160c01b0261ffff60c01b199091161790558061057e610f15565b600980546000908152600a602052604080822060030185905591548152206002015491935091506105bb90839083906001600160a01b0316610f5a565b6009546000908152600a60209081526040918290206002015460035483516001600160a01b03909216825260019282019290925261ffff8616928101929092526060820184905260808201527f90152513942e2aa2816826366268668d335149c05e1a0870302f245488dfcf459060a0015b60405180910390a1505050565b600980546000908152600a60205260408082206002908101805460ff60b01b1916600160b01b179055835483528183208101805460ff60b81b191690558354835281832060030183905592548252902001805461ffff8316600160c01b0261ffff60c01b199091161790556005546106b19061122d565b6009546000908152600a602090815260408083206002015460035482516001600160a01b03909216825292810184905261ffff851691810191909152606081019290925260808201527f90152513942e2aa2816826366268668d335149c05e1a0870302f245488dfcf459060a0015b60405180910390a15b50565b600554821461077d5760405162461bcd60e51b815260206004820152600860248201527f496e76616c6964200000000000000000000000000000000000000000000000006044820152606401610380565b6004546001600160a01b03166107d55760405162461bcd60e51b815260206004820152600d60248201527f4d7573742075736520466c6f77000000000000000000000000000000000000006044820152606401610380565b6107de81611464565b600480546040516323b872dd60e01b81523392810192909252306024830152604482018490526001600160a01b0316906323b872dd906064016020604051808303816000875af1158015610836573d6000803e3d6000fd5b505050506040513d601f19601f8201168201806040525081019061085a919061190f565b50816003600082825461086d9190611931565b909155505060008054604080516308903fb560e11b815290516001600160a01b03909216916311207f6a91600480820192602092909190829003018187875af11580156108be573d6000803e3d6000fd5b505050506040513d601f19601f820116820180604052508101906108e29190611944565b90506001600860008282546108f79190611931565b909155505060408051610100810182528281524360208083019182523383850181815261ffff8089166060870190815260006080880181815260a0890182815260c08a0183815260e08b018481526008548552600a909952928b902099518a55975160018a0155935160028901805493519551985192518516600160c01b0261ffff60c01b19931515600160b81b0260ff60b81b199a1515600160b01b029a909a1661ffff60b01b1997909616600160a01b0275ffffffffffffffffffffffffffffffffffffffffffff199095166001600160a01b03939093169290921793909317949094169290921795909517161790925551600392830155905491517fa5c1c40d4a5b56b243db9298ebb618d3f618999d4e053a0d3bd9e85322de2b339261062d92918691906001600160a01b0393909316835261ffff919091166020830152604082015260600190565b6004546001600160a01b0316610a9c5760405162461bcd60e51b815260206004820152601360248201527f43616e27742066756e642074686520706f6f6c000000000000000000000000006044820152606401610380565b600480546040516323b872dd60e01b81523392810192909252306024830152604482018390526001600160a01b0316906323b872dd906064016020604051808303816000875af1158015610af4573d6000803e3d6000fd5b505050506040513d601f19601f82011682018060405250810190610b18919061190f565b508060036000828254610b2b9190611931565b90915550506040518181527f9d81ff1364df34467b23be983916ca00ebe5b231f3c47645a0ad063b56589f4890602001610720565b6004546001600160a01b031615610bb95760405162461bcd60e51b815260206004820152601360248201527f43616e27742066756e642074686520706f6f6c000000000000000000000000006044820152606401610380565b348114610c085760405162461bcd60e51b815260206004820152601660248201527f496e76616c6964206465706f73697420616d6f756e74000000000000000000006044820152606401610380565b8060036000828254610b2b9190611931565b6005543414610c6b5760405162461bcd60e51b815260206004820152601260248201527f496e76616c69642076616c75652073656e7400000000000000000000000000006044820152606401610380565b6004546001600160a01b031615610cc45760405162461bcd60e51b815260206004820152600960248201527f4f6e6c7920464c6f7700000000000000000000000000000000000000000000006044820152606401610380565b610ccd81611464565b60055460036000828254610ce19190611931565b909155505060008054604080516308903fb560e11b815290516001600160a01b03909216916311207f6a91600480820192602092909190829003018187875af1158015610d32573d6000803e3d6000fd5b505050506040513d601f19601f82011682018060405250810190610d569190611944565b9050600160086000828254610d6b9190611931565b909155505060408051610100810182528281524360208083019182523383850181815261ffff8089166060870190815260006080880181815260a0890182815260c08a0183815260e08b018481526008548552600a909952928b902099518a55975160018a0155935160028901805493519551985192518516600160c01b0261ffff60c01b19931515600160b81b0260ff60b81b199a1515600160b01b029a909a1661ffff60b01b1997909616600160a01b0275ffffffffffffffffffffffffffffffffffffffffffff199095166001600160a01b03939093169290921793909317949094169290921795909517161790925551600392830155905491517fa5c1c40d4a5b56b243db9298ebb618d3f618999d4e053a0d3bd9e85322de2b3392610eb892918691906001600160a01b0393909316835261ffff919091166020830152604082015260600190565b60405180910390a15050565b600b54600090640100000000900461ffff168103610eee578161ffff168361ffff16149050610f0f565b600b54610f0790640100000000900461ffff1683611973565b61ffff161590505b92915050565b6000806000610f25600354611586565b90506000610f32826115ab565b905060006007548284610f459190611997565b610f4f9190611997565b959194509092505050565b6000610f65836115bf565b90506000610f738285611997565b90506000610f7f611654565b6004549091506001600160a01b0316610fe657610fad83610f9e6116e4565b6001600160a01b031690611747565b610fc06001600160a01b03821683611747565b600754610fce903390611747565b610fe16001600160a01b03851687611747565b6111f6565b6004546001600160a01b031663a9059cbb610fff6116e4565b6040517fffffffff0000000000000000000000000000000000000000000000000000000060e084901b1681526001600160a01b039091166004820152602481018690526044016020604051808303816000875af1158015611064573d6000803e3d6000fd5b505050506040513d601f19601f82011682018060405250810190611088919061190f565b506004805460405163a9059cbb60e01b81526001600160a01b03848116938201939093526024810185905291169063a9059cbb906044016020604051808303816000875af11580156110de573d6000803e3d6000fd5b505050506040513d601f19601f82011682018060405250810190611102919061190f565b506004805460075460405163a9059cbb60e01b8152339381019390935260248301526001600160a01b03169063a9059cbb906044016020604051808303816000875af1158015611156573d6000803e3d6000fd5b505050506040513d601f19601f8201168201806040525081019061117a919061190f565b506004805460405163a9059cbb60e01b81526001600160a01b03878116938201939093526024810189905291169063a9059cbb906044016020604051808303816000875af11580156111d0573d6000803e3d6000fd5b505050506040513d601f19601f820116820180604052508101906111f4919061190f565b505b85600754866112059190611931565b61120f9190611931565b600360008282546112209190611997565b9091555050505050505050565b6000611238826115ab565b90506000611245826115bf565b905060006112538284611997565b9050600061125f611654565b6004549091506001600160a01b03166112a4576112856001600160a01b03821683611747565b61129183610f9e6116e4565b60075461129f903390611747565b61143a565b6004805460405163a9059cbb60e01b81526001600160a01b03848116938201939093526024810185905291169063a9059cbb906044016020604051808303816000875af11580156112f9573d6000803e3d6000fd5b505050506040513d601f19601f8201168201806040525081019061131d919061190f565b506004546001600160a01b031663a9059cbb6113376116e4565b6040517fffffffff0000000000000000000000000000000000000000000000000000000060e084901b1681526001600160a01b039091166004820152602481018690526044016020604051808303816000875af115801561139c573d6000803e3d6000fd5b505050506040513d601f19601f820116820180604052508101906113c0919061190f565b506004805460075460405163a9059cbb60e01b8152339381019390935260248301526001600160a01b03169063a9059cbb906044016020604051808303816000875af1158015611414573d6000803e3d6000fd5b505050506040513d601f19601f82011682018060405250810190611438919061190f565b505b6007546114479085611931565b600360008282546114589190611997565b90915550505050505050565b600b54640100000000900461ffff1660000361153457600b5461ffff90811690821610156114d45760405162461bcd60e51b815260206004820152601260248201527f426574206d757374206265203e3d206d696e00000000000000000000000000006044820152606401610380565b600b5461ffff62010000909104811690821611156107295760405162461bcd60e51b815260206004820152601260248201527f426574206d757374206265203c3d206d617800000000000000000000000000006044820152606401610380565b61ffff8116156107295760405162461bcd60e51b815260206004820152601960248201527f4e6f7420616363657074696e6720637573746f6d2062657473000000000000006044820152606401610380565b600454600090600160a01b900460ff166115a16064846119aa565b610f0f91906119be565b60065460009060ff166115a16064846119aa565b600154604080517fb0e21e8a00000000000000000000000000000000000000000000000000000000815290516000926001600160a01b03169163b0e21e8a9160048083019260209291908290030181865afa158015611622573d6000803e3d6000fd5b505050506040513d601f19601f8201168201806040525081019061164691906119d5565b60ff166115a16064846119aa565b6001546002546040517f6352211e00000000000000000000000000000000000000000000000000000000815260048101919091526000916001600160a01b031690636352211e90602401602060405180830381865afa1580156116bb573d6000803e3d6000fd5b505050506040513d601f19601f820116820180604052508101906116df91906119f8565b905090565b600154604080517f8da5cb5b00000000000000000000000000000000000000000000000000000000815290516000926001600160a01b031691638da5cb5b9160048083019260209291908290030181865afa1580156116bb573d6000803e3d6000fd5b8047101561178a576040517fcf47918100000000000000000000000000000000000000000000000000000000815247600482015260248101829052604401610380565b600080836001600160a01b03168360405160006040518083038185875af1925050503d80600081146117d8576040519150601f19603f3d011682016040523d82523d6000602084013e6117dd565b606091505b5091509150816117f0576117f0816117f6565b50505050565b8051156118065780518082602001fd5b6040517fd6bda27500000000000000000000000000000000000000000000000000000000815260040160405180910390fd5b803561ffff8116811461184a57600080fd5b919050565b6000806040838503121561186257600080fd5b8235915061187260208401611838565b90509250929050565b60006020828403121561188d57600080fd5b5035919050565b6000602082840312156118a657600080fd5b6118af82611838565b9392505050565b634e487b7160e01b600052601160045260246000fd5b6000600182016118de576118de6118b6565b5060010190565b6000602082840312156118f757600080fd5b815167ffffffffffffffff811681146118af57600080fd5b60006020828403121561192157600080fd5b815180151581146118af57600080fd5b80820180821115610f0f57610f0f6118b6565b60006020828403121561195657600080fd5b5051919050565b634e487b7160e01b600052601260045260246000fd5b600061ffff8316806119875761198761195d565b8061ffff84160691505092915050565b81810381811115610f0f57610f0f6118b6565b6000826119b9576119b961195d565b500490565b8082028115828204841417610f0f57610f0f6118b6565b6000602082840312156119e757600080fd5b815160ff811681146118af57600080fd5b600060208284031215611a0a57600080fd5b81516001600160a01b03811681146118af57600080fdfea264697066735822122020a6042f4c0f65798c5b8db7166ae47d67ab84f85301781630c661c55d9c023c64736f6c634300081c0033a2646970667358221220c44dd3032b249703a81d90349fa67ef884a362d2766fafa7d3868e649ec9730264736f6c634300081c0033608060405234801561001057600080fd5b50604051611fa9380380611fa983398101604081905261002f916103f8565b60648560ff1611156100885760405162461bcd60e51b815260206004820152601760248201527f5072697a652073686172652069732031303025206d617800000000000000000060448201526064015b60405180910390fd5b60648360ff1611156100dc5760405162461bcd60e51b815260206004820152601660248201527f486f75736520656467652069732031303025206d617800000000000000000000604482015260640161007f565b83821061012b5760405162461bcd60e51b815260206004820152601c60248201527f52657665616c20636f6d70656e736174696f6e20746f6f206869676800000000604482015260640161007f565b836101358161037f565b61013f90846104f7565b1061019d5760405162461bcd60e51b815260206004820152602860248201527f696e76616c696420486f7573652065646765206f722072657665616c436f6d7060448201526732b739b0ba34b7b760c11b606482015260840161007f565b604081015161ffff166001036101f55760405162461bcd60e51b815260206004820152601460248201527f62657454797065203120697320696e76616c6964000000000000000000000000604482015260640161007f565b6020810151815161ffff9182169116106102515760405162461bcd60e51b815260206004820152601660248201527f6d696e206d757374206265203c207468616e206d617800000000000000000000604482015260640161007f565b6020810151604082015161ffff918216911611156102b15760405162461bcd60e51b815260206004820152601f60248201527f42657420747970652063616e2774206265206d6f7265207468616e206d617800604482015260640161007f565b600080546001600160a01b03998a166001600160a01b0319918216178255600180549091163317905560029790975560038790556004805460ff968716600160a01b026001600160a81b0319909116979099169690961797909717909455600591909155600680549190921660ff1990911617905560075560088190556009558051600b8054602084015160409094015161ffff948516620100000293851663ffffffff19909216919091179290921761ffff60201b19166401000000009390921692909202179055610543565b60065460009060ff1661039360648461050a565b61039d919061052c565b92915050565b80516001600160a01b03811681146103ba57600080fd5b919050565b805160ff811681146103ba57600080fd5b634e487b7160e01b600052604160045260246000fd5b805161ffff811681146103ba57600080fd5b600080600080600080600080610140898b03121561041557600080fd5b61041e896103a3565b60208a0151909850965061043460408a016103a3565b955061044260608a016103bf565b60808a0151909550935061045860a08a016103bf565b60c08a0151909350915060ff89018a1361047157600080fd5b604051606081016001600160401b0381118282101715610493576104936103d0565b604052806101408b018c8111156104a957600080fd5b60e08c015b818110156104cd576104bf816103e6565b8352602092830192016104ae565b505050809150509295985092959890939650565b634e487b7160e01b600052601160045260246000fd5b8082018082111561039d5761039d6104e1565b60008261052757634e487b7160e01b600052601260045260246000fd5b500490565b808202811582820484141761039d5761039d6104e1565b611a57806105526000396000f3fe6080604052600436106100c75760003560e01c8063945b62b711610074578063bfacd9ed1161004e578063bfacd9ed1461028f578063d03c0ade14610308578063fd94183d1461031e57600080fd5b8063945b62b7146102245780639a0d399214610244578063a6021ace1461025757600080fd5b806322af00fa116100a557806322af00fa1461012c578063676a3a97146101f85780637801f8421461020e57600080fd5b806311d86d47146100cc57806317ba50ed146100f55780631beb7b071461010c575b600080fd5b3480156100d857600080fd5b506100e260025481565b6040519081526020015b60405180910390f35b34801561010157600080fd5b5061010a610331565b005b34801561011857600080fd5b5061010a61012736600461184f565b61072c565b34801561013857600080fd5b506101a761014736600461187b565b600a602052600090815260409020805460018201546002830154600390930154919290916001600160a01b0382169161ffff600160a01b820481169260ff600160b01b8404811693600160b81b810490911692600160c01b909104169088565b6040805198895260208901979097526001600160a01b039095169587019590955261ffff92831660608701529015156080860152151560a085015290911660c083015260e0820152610100016100ec565b34801561020457600080fd5b506100e260035481565b34801561021a57600080fd5b506100e260085481565b34801561023057600080fd5b5061010a61023f36600461187b565b610a44565b61010a61025236600461187b565b610b60565b34801561026357600080fd5b50600454610277906001600160a01b031681565b6040516001600160a01b0390911681526020016100ec565b34801561029b57600080fd5b50600454600554600654600754600b5460408051600160a01b90960460ff908116875260208701959095529390921692840192909252606083019190915261ffff8082166080840152620100008204811660a08401526401000000009091041660c082015260e0016100ec565b34801561031457600080fd5b506100e260095481565b61010a61032c366004611894565b610c1a565b600954600854116103895760405162461bcd60e51b815260206004820152601660248201527f416c6c2062657473206172652066696e616c697a65640000000000000000000060448201526064015b60405180910390fd5b60098054906000610399836118cc565b90915550506009546000908152600a602052604090206001015443116104275760405162461bcd60e51b815260206004820152602760248201527f43616e277420726f6c6c20616e642072657665616c20696e207468652073616d60448201527f6520626c6f636b000000000000000000000000000000000000000000000000006064820152608401610380565b600080546009548252600a602052604080832054600b5491517f70dcea8b000000000000000000000000000000000000000000000000000000008152600481019190915261ffff80831660248301526201000090920490911660448201526001600160a01b03909116906370dcea8b906064016020604051808303816000875af11580156104b9573d6000803e3d6000fd5b505050506040513d601f19601f820116820180604052508101906104dd91906118e5565b6009546000908152600a602052604090206002015490915061050a90600160a01b900461ffff1682610ec4565b1561063a57600980546000908152600a60205260408082206002908101805460ff60b01b1916600160b01b179055835483528183208101805460ff60b81b1916600160b81b179055925482528120909101805461ffff8416600160c01b0261ffff60c01b199091161790558061057e610f15565b600980546000908152600a602052604080822060030185905591548152206002015491935091506105bb90839083906001600160a01b0316610f5a565b6009546000908152600a60209081526040918290206002015460035483516001600160a01b03909216825260019282019290925261ffff8616928101929092526060820184905260808201527f90152513942e2aa2816826366268668d335149c05e1a0870302f245488dfcf459060a0015b60405180910390a1505050565b600980546000908152600a60205260408082206002908101805460ff60b01b1916600160b01b179055835483528183208101805460ff60b81b191690558354835281832060030183905592548252902001805461ffff8316600160c01b0261ffff60c01b199091161790556005546106b19061122d565b6009546000908152600a602090815260408083206002015460035482516001600160a01b03909216825292810184905261ffff851691810191909152606081019290925260808201527f90152513942e2aa2816826366268668d335149c05e1a0870302f245488dfcf459060a0015b60405180910390a15b50565b600554821461077d5760405162461bcd60e51b815260206004820152600860248201527f496e76616c6964200000000000000000000000000000000000000000000000006044820152606401610380565b6004546001600160a01b03166107d55760405162461bcd60e51b815260206004820152600d60248201527f4d7573742075736520466c6f77000000000000000000000000000000000000006044820152606401610380565b6107de81611464565b600480546040516323b872dd60e01b81523392810192909252306024830152604482018490526001600160a01b0316906323b872dd906064016020604051808303816000875af1158015610836573d6000803e3d6000fd5b505050506040513d601f19601f8201168201806040525081019061085a919061190f565b50816003600082825461086d9190611931565b909155505060008054604080516308903fb560e11b815290516001600160a01b03909216916311207f6a91600480820192602092909190829003018187875af11580156108be573d6000803e3d6000fd5b505050506040513d601f19601f820116820180604052508101906108e29190611944565b90506001600860008282546108f79190611931565b909155505060408051610100810182528281524360208083019182523383850181815261ffff8089166060870190815260006080880181815260a0890182815260c08a0183815260e08b018481526008548552600a909952928b902099518a55975160018a0155935160028901805493519551985192518516600160c01b0261ffff60c01b19931515600160b81b0260ff60b81b199a1515600160b01b029a909a1661ffff60b01b1997909616600160a01b0275ffffffffffffffffffffffffffffffffffffffffffff199095166001600160a01b03939093169290921793909317949094169290921795909517161790925551600392830155905491517fa5c1c40d4a5b56b243db9298ebb618d3f618999d4e053a0d3bd9e85322de2b339261062d92918691906001600160a01b0393909316835261ffff919091166020830152604082015260600190565b6004546001600160a01b0316610a9c5760405162461bcd60e51b815260206004820152601360248201527f43616e27742066756e642074686520706f6f6c000000000000000000000000006044820152606401610380565b600480546040516323b872dd60e01b81523392810192909252306024830152604482018390526001600160a01b0316906323b872dd906064016020604051808303816000875af1158015610af4573d6000803e3d6000fd5b505050506040513d601f19601f82011682018060405250810190610b18919061190f565b508060036000828254610b2b9190611931565b90915550506040518181527f9d81ff1364df34467b23be983916ca00ebe5b231f3c47645a0ad063b56589f4890602001610720565b6004546001600160a01b031615610bb95760405162461bcd60e51b815260206004820152601360248201527f43616e27742066756e642074686520706f6f6c000000000000000000000000006044820152606401610380565b348114610c085760405162461bcd60e51b815260206004820152601660248201527f496e76616c6964206465706f73697420616d6f756e74000000000000000000006044820152606401610380565b8060036000828254610b2b9190611931565b6005543414610c6b5760405162461bcd60e51b815260206004820152601260248201527f496e76616c69642076616c75652073656e7400000000000000000000000000006044820152606401610380565b6004546001600160a01b031615610cc45760405162461bcd60e51b815260206004820152600960248201527f4f6e6c7920464c6f7700000000000000000000000000000000000000000000006044820152606401610380565b610ccd81611464565b60055460036000828254610ce19190611931565b909155505060008054604080516308903fb560e11b815290516001600160a01b03909216916311207f6a91600480820192602092909190829003018187875af1158015610d32573d6000803e3d6000fd5b505050506040513d601f19601f82011682018060405250810190610d569190611944565b9050600160086000828254610d6b9190611931565b909155505060408051610100810182528281524360208083019182523383850181815261ffff8089166060870190815260006080880181815260a0890182815260c08a0183815260e08b018481526008548552600a909952928b902099518a55975160018a0155935160028901805493519551985192518516600160c01b0261ffff60c01b19931515600160b81b0260ff60b81b199a1515600160b01b029a909a1661ffff60b01b1997909616600160a01b0275ffffffffffffffffffffffffffffffffffffffffffff199095166001600160a01b03939093169290921793909317949094169290921795909517161790925551600392830155905491517fa5c1c40d4a5b56b243db9298ebb618d3f618999d4e053a0d3bd9e85322de2b3392610eb892918691906001600160a01b0393909316835261ffff919091166020830152604082015260600190565b60405180910390a15050565b600b54600090640100000000900461ffff168103610eee578161ffff168361ffff16149050610f0f565b600b54610f0790640100000000900461ffff1683611973565b61ffff161590505b92915050565b6000806000610f25600354611586565b90506000610f32826115ab565b905060006007548284610f459190611997565b610f4f9190611997565b959194509092505050565b6000610f65836115bf565b90506000610f738285611997565b90506000610f7f611654565b6004549091506001600160a01b0316610fe657610fad83610f9e6116e4565b6001600160a01b031690611747565b610fc06001600160a01b03821683611747565b600754610fce903390611747565b610fe16001600160a01b03851687611747565b6111f6565b6004546001600160a01b031663a9059cbb610fff6116e4565b6040517fffffffff0000000000000000000000000000000000000000000000000000000060e084901b1681526001600160a01b039091166004820152602481018690526044016020604051808303816000875af1158015611064573d6000803e3d6000fd5b505050506040513d601f19601f82011682018060405250810190611088919061190f565b506004805460405163a9059cbb60e01b81526001600160a01b03848116938201939093526024810185905291169063a9059cbb906044016020604051808303816000875af11580156110de573d6000803e3d6000fd5b505050506040513d601f19601f82011682018060405250810190611102919061190f565b506004805460075460405163a9059cbb60e01b8152339381019390935260248301526001600160a01b03169063a9059cbb906044016020604051808303816000875af1158015611156573d6000803e3d6000fd5b505050506040513d601f19601f8201168201806040525081019061117a919061190f565b506004805460405163a9059cbb60e01b81526001600160a01b03878116938201939093526024810189905291169063a9059cbb906044016020604051808303816000875af11580156111d0573d6000803e3d6000fd5b505050506040513d601f19601f820116820180604052508101906111f4919061190f565b505b85600754866112059190611931565b61120f9190611931565b600360008282546112209190611997565b9091555050505050505050565b6000611238826115ab565b90506000611245826115bf565b905060006112538284611997565b9050600061125f611654565b6004549091506001600160a01b03166112a4576112856001600160a01b03821683611747565b61129183610f9e6116e4565b60075461129f903390611747565b61143a565b6004805460405163a9059cbb60e01b81526001600160a01b03848116938201939093526024810185905291169063a9059cbb906044016020604051808303816000875af11580156112f9573d6000803e3d6000fd5b505050506040513d601f19601f8201168201806040525081019061131d919061190f565b506004546001600160a01b031663a9059cbb6113376116e4565b6040517fffffffff0000000000000000000000000000000000000000000000000000000060e084901b1681526001600160a01b039091166004820152602481018690526044016020604051808303816000875af115801561139c573d6000803e3d6000fd5b505050506040513d601f19601f820116820180604052508101906113c0919061190f565b506004805460075460405163a9059cbb60e01b8152339381019390935260248301526001600160a01b03169063a9059cbb906044016020604051808303816000875af1158015611414573d6000803e3d6000fd5b505050506040513d601f19601f82011682018060405250810190611438919061190f565b505b6007546114479085611931565b600360008282546114589190611997565b90915550505050505050565b600b54640100000000900461ffff1660000361153457600b5461ffff90811690821610156114d45760405162461bcd60e51b815260206004820152601260248201527f426574206d757374206265203e3d206d696e00000000000000000000000000006044820152606401610380565b600b5461ffff62010000909104811690821611156107295760405162461bcd60e51b815260206004820152601260248201527f426574206d757374206265203c3d206d617800000000000000000000000000006044820152606401610380565b61ffff8116156107295760405162461bcd60e51b815260206004820152601960248201527f4e6f7420616363657074696e6720637573746f6d2062657473000000000000006044820152606401610380565b600454600090600160a01b900460ff166115a16064846119aa565b610f0f91906119be565b60065460009060ff166115a16064846119aa565b600154604080517fb0e21e8a00000000000000000000000000000000000000000000000000000000815290516000926001600160a01b03169163b0e21e8a9160048083019260209291908290030181865afa158015611622573d6000803e3d6000fd5b505050506040513d601f19601f8201168201806040525081019061164691906119d5565b60ff166115a16064846119aa565b6001546002546040517f6352211e00000000000000000000000000000000000000000000000000000000815260048101919091526000916001600160a01b031690636352211e90602401602060405180830381865afa1580156116bb573d6000803e3d6000fd5b505050506040513d601f19601f820116820180604052508101906116df91906119f8565b905090565b600154604080517f8da5cb5b00000000000000000000000000000000000000000000000000000000815290516000926001600160a01b031691638da5cb5b9160048083019260209291908290030181865afa1580156116bb573d6000803e3d6000fd5b8047101561178a576040517fcf47918100000000000000000000000000000000000000000000000000000000815247600482015260248101829052604401610380565b600080836001600160a01b03168360405160006040518083038185875af1925050503d80600081146117d8576040519150601f19603f3d011682016040523d82523d6000602084013e6117dd565b606091505b5091509150816117f0576117f0816117f6565b50505050565b8051156118065780518082602001fd5b6040517fd6bda27500000000000000000000000000000000000000000000000000000000815260040160405180910390fd5b803561ffff8116811461184a57600080fd5b919050565b6000806040838503121561186257600080fd5b8235915061187260208401611838565b90509250929050565b60006020828403121561188d57600080fd5b5035919050565b6000602082840312156118a657600080fd5b6118af82611838565b9392505050565b634e487b7160e01b600052601160045260246000fd5b6000600182016118de576118de6118b6565b5060010190565b6000602082840312156118f757600080fd5b815167ffffffffffffffff811681146118af57600080fd5b60006020828403121561192157600080fd5b815180151581146118af57600080fd5b80820180821115610f0f57610f0f6118b6565b60006020828403121561195657600080fd5b5051919050565b634e487b7160e01b600052601260045260246000fd5b600061ffff8316806119875761198761195d565b8061ffff84160691505092915050565b81810381811115610f0f57610f0f6118b6565b6000826119b9576119b961195d565b500490565b8082028115828204841417610f0f57610f0f6118b6565b6000602082840312156119e757600080fd5b815160ff811681146118af57600080fd5b600060208284031215611a0a57600080fd5b81516001600160a01b03811681146118af57600080fdfea264697066735822122020a6042f4c0f65798c5b8db7166ae47d67ab84f85301781630c661c55d9c023c64736f6c634300081c0033",
  "linkReferences": {},
  "deployedLinkReferences": {}
}