{
  "_format": "hh-sol-artifact-1",
  "contractName": "FlowRoll",
  "sourceName": "contracts/FlowRoll.sol",
  "abi": [
    {
      "inputs": [
        {
          "internalType": "address",
          "name": "_randProvider",
          "type": "address"
        },
        {
          "internalType": "uint256",
          "name": "_ERC721Index",
          "type": "uint256"
        },
        {
          "internalType": "address",
          "name": "_ERC20Address",
          "type": "address"
        },
        {
          "internalType": "uint8",
          "name": "_winnerPrizeShare",
          "type": "uint8"
        },
        {
          "internalType": "uint256",
          "name": "_diceRollCost",
          "type": "uint256"
        },
        {
          "internalType": "uint8",
          "name": "_houseEdge",
          "type": "uint8"
        },
        {
          "internalType": "uint256",
          "name": "_revealCompensation",
          "type": "uint256"
        },
        {
          "internalType": "uint16[3]",
          "name": "betParams",
          "type": "uint16[3]"
        }
      ],
      "stateMutability": "nonpayable",
      "type": "constructor"
    },
    {
      "inputs": [],
      "name": "FailedCall",
      "type": "error"
    },
    {
      "inputs": [
        {
          "internalType": "uint256",
          "name": "balance",
          "type": "uint256"
        },
        {
          "internalType": "uint256",
          "name": "needed",
          "type": "uint256"
        }
      ],
      "name": "InsufficientBalance",
      "type": "error"
    },
    {
      "anonymous": false,
      "inputs": [
        {
          "indexed": false,
          "internalType": "uint256",
          "name": "amount",
          "type": "uint256"
        }
      ],
      "name": "PrizePoolFunded",
      "type": "event"
    },
    {
      "anonymous": false,
      "inputs": [
        {
          "indexed": false,
          "internalType": "address",
          "name": "player",
          "type": "address"
        },
        {
          "indexed": false,
          "internalType": "uint16",
          "name": "bet",
          "type": "uint16"
        },
        {
          "indexed": false,
          "internalType": "uint256",
          "name": "prizePool",
          "type": "uint256"
        }
      ],
      "name": "RollPlaced",
      "type": "event"
    },
    {
      "anonymous": false,
      "inputs": [
        {
          "indexed": false,
          "internalType": "address",
          "name": "player",
          "type": "address"
        },
        {
          "indexed": false,
          "internalType": "bool",
          "name": "won",
          "type": "bool"
        },
        {
          "indexed": false,
          "internalType": "uint16",
          "name": "numberRolled",
          "type": "uint16"
        },
        {
          "indexed": false,
          "internalType": "uint256",
          "name": "payout",
          "type": "uint256"
        },
        {
          "indexed": false,
          "internalType": "uint256",
          "name": "newPrizePool",
          "type": "uint256"
        }
      ],
      "name": "RollResult",
      "type": "event"
    },
    {
      "inputs": [],
      "name": "ERC20Address",
      "outputs": [
        {
          "internalType": "address",
          "name": "",
          "type": "address"
        }
      ],
      "stateMutability": "view",
      "type": "function"
    },
    {
      "inputs": [],
      "name": "ERC721Index",
      "outputs": [
        {
          "internalType": "uint256",
          "name": "",
          "type": "uint256"
        }
      ],
      "stateMutability": "view",
      "type": "function"
    },
    {
      "inputs": [
        {
          "internalType": "uint256",
          "name": "",
          "type": "uint256"
        }
      ],
      "name": "bets",
      "outputs": [
        {
          "internalType": "uint256",
          "name": "requestId",
          "type": "uint256"
        },
        {
          "internalType": "uint256",
          "name": "createdAtBlock",
          "type": "uint256"
        },
        {
          "internalType": "address",
          "name": "player",
          "type": "address"
        },
        {
          "internalType": "uint16",
          "name": "bet",
          "type": "uint16"
        },
        {
          "internalType": "bool",
          "name": "closed",
          "type": "bool"
        },
        {
          "internalType": "bool",
          "name": "won",
          "type": "bool"
        },
        {
          "internalType": "uint16",
          "name": "numberRolled",
          "type": "uint16"
        },
        {
          "internalType": "uint256",
          "name": "payout",
          "type": "uint256"
        }
      ],
      "stateMutability": "view",
      "type": "function"
    },
    {
      "inputs": [
        {
          "internalType": "uint256",
          "name": "amount",
          "type": "uint256"
        }
      ],
      "name": "fundPrizePoolERC20",
      "outputs": [],
      "stateMutability": "nonpayable",
      "type": "function"
    },
    {
      "inputs": [
        {
          "internalType": "uint256",
          "name": "amount",
          "type": "uint256"
        }
      ],
      "name": "fundPrizePoolFLOW",
      "outputs": [],
      "stateMutability": "payable",
      "type": "function"
    },
    {
      "inputs": [],
      "name": "getContractParameters",
      "outputs": [
        {
          "internalType": "uint8",
          "name": "",
          "type": "uint8"
        },
        {
          "internalType": "uint256",
          "name": "",
          "type": "uint256"
        },
        {
          "internalType": "uint8",
          "name": "",
          "type": "uint8"
        },
        {
          "internalType": "uint256",
          "name": "",
          "type": "uint256"
        },
        {
          "internalType": "uint16",
          "name": "",
          "type": "uint16"
        },
        {
          "internalType": "uint16",
          "name": "",
          "type": "uint16"
        },
        {
          "internalType": "uint16",
          "name": "",
          "type": "uint16"
        }
      ],
      "stateMutability": "view",
      "type": "function"
    },
    {
      "inputs": [],
      "name": "lastBet",
      "outputs": [
        {
          "internalType": "uint256",
          "name": "",
          "type": "uint256"
        }
      ],
      "stateMutability": "view",
      "type": "function"
    },
    {
      "inputs": [],
      "name": "lastClosedBet",
      "outputs": [
        {
          "internalType": "uint256",
          "name": "",
          "type": "uint256"
        }
      ],
      "stateMutability": "view",
      "type": "function"
    },
    {
      "inputs": [],
      "name": "prizeVault",
      "outputs": [
        {
          "internalType": "uint256",
          "name": "",
          "type": "uint256"
        }
      ],
      "stateMutability": "view",
      "type": "function"
    },
    {
      "inputs": [],
      "name": "revealDiceRoll",
      "outputs": [],
      "stateMutability": "nonpayable",
      "type": "function"
    },
    {
      "inputs": [
        {
          "internalType": "uint256",
          "name": "betAmount",
          "type": "uint256"
        },
        {
          "internalType": "uint16",
          "name": "bet",
          "type": "uint16"
        }
      ],
      "name": "rollDiceERC20",
      "outputs": [],
      "stateMutability": "nonpayable",
      "type": "function"
    },
    {
      "inputs": [
        {
          "internalType": "uint16",
          "name": "bet",
          "type": "uint16"
        }
      ],
      "name": "rollDiceFLOW",
      "outputs": [],
      "stateMutability": "payable",
      "type": "function"
    }
  ],
  "bytecode": "0x608060405234801561001057600080fd5b50604051611fa9380380611fa983398101604081905261002f916103f8565b60648560ff1611156100885760405162461bcd60e51b815260206004820152601760248201527f5072697a652073686172652069732031303025206d617800000000000000000060448201526064015b60405180910390fd5b60648360ff1611156100dc5760405162461bcd60e51b815260206004820152601660248201527f486f75736520656467652069732031303025206d617800000000000000000000604482015260640161007f565b83821061012b5760405162461bcd60e51b815260206004820152601c60248201527f52657665616c20636f6d70656e736174696f6e20746f6f206869676800000000604482015260640161007f565b836101358161037f565b61013f90846104f7565b1061019d5760405162461bcd60e51b815260206004820152602860248201527f696e76616c696420486f7573652065646765206f722072657665616c436f6d7060448201526732b739b0ba34b7b760c11b606482015260840161007f565b604081015161ffff166001036101f55760405162461bcd60e51b815260206004820152601460248201527f62657454797065203120697320696e76616c6964000000000000000000000000604482015260640161007f565b6020810151815161ffff9182169116106102515760405162461bcd60e51b815260206004820152601660248201527f6d696e206d757374206265203c207468616e206d617800000000000000000000604482015260640161007f565b6020810151604082015161ffff918216911611156102b15760405162461bcd60e51b815260206004820152601f60248201527f42657420747970652063616e2774206265206d6f7265207468616e206d617800604482015260640161007f565b600080546001600160a01b03998a166001600160a01b0319918216178255600180549091163317905560029790975560038790556004805460ff968716600160a01b026001600160a81b0319909116979099169690961797909717909455600591909155600680549190921660ff1990911617905560075560088190556009558051600b8054602084015160409094015161ffff948516620100000293851663ffffffff19909216919091179290921761ffff60201b19166401000000009390921692909202179055610543565b60065460009060ff1661039360648461050a565b61039d919061052c565b92915050565b80516001600160a01b03811681146103ba57600080fd5b919050565b805160ff811681146103ba57600080fd5b634e487b7160e01b600052604160045260246000fd5b805161ffff811681146103ba57600080fd5b600080600080600080600080610140898b03121561041557600080fd5b61041e896103a3565b60208a0151909850965061043460408a016103a3565b955061044260608a016103bf565b60808a0151909550935061045860a08a016103bf565b60c08a0151909350915060ff89018a1361047157600080fd5b604051606081016001600160401b0381118282101715610493576104936103d0565b604052806101408b018c8111156104a957600080fd5b60e08c015b818110156104cd576104bf816103e6565b8352602092830192016104ae565b505050809150509295985092959890939650565b634e487b7160e01b600052601160045260246000fd5b8082018082111561039d5761039d6104e1565b60008261052757634e487b7160e01b600052601260045260246000fd5b500490565b808202811582820484141761039d5761039d6104e1565b611a57806105526000396000f3fe6080604052600436106100c75760003560e01c8063945b62b711610074578063bfacd9ed1161004e578063bfacd9ed1461028f578063d03c0ade14610308578063fd94183d1461031e57600080fd5b8063945b62b7146102245780639a0d399214610244578063a6021ace1461025757600080fd5b806322af00fa116100a557806322af00fa1461012c578063676a3a97146101f85780637801f8421461020e57600080fd5b806311d86d47146100cc57806317ba50ed146100f55780631beb7b071461010c575b600080fd5b3480156100d857600080fd5b506100e260025481565b6040519081526020015b60405180910390f35b34801561010157600080fd5b5061010a610331565b005b34801561011857600080fd5b5061010a61012736600461184f565b61072c565b34801561013857600080fd5b506101a761014736600461187b565b600a602052600090815260409020805460018201546002830154600390930154919290916001600160a01b0382169161ffff600160a01b820481169260ff600160b01b8404811693600160b81b810490911692600160c01b909104169088565b6040805198895260208901979097526001600160a01b039095169587019590955261ffff92831660608701529015156080860152151560a085015290911660c083015260e0820152610100016100ec565b34801561020457600080fd5b506100e260035481565b34801561021a57600080fd5b506100e260085481565b34801561023057600080fd5b5061010a61023f36600461187b565b610a44565b61010a61025236600461187b565b610b60565b34801561026357600080fd5b50600454610277906001600160a01b031681565b6040516001600160a01b0390911681526020016100ec565b34801561029b57600080fd5b50600454600554600654600754600b5460408051600160a01b90960460ff908116875260208701959095529390921692840192909252606083019190915261ffff8082166080840152620100008204811660a08401526401000000009091041660c082015260e0016100ec565b34801561031457600080fd5b506100e260095481565b61010a61032c366004611894565b610c1a565b600954600854116103895760405162461bcd60e51b815260206004820152601660248201527f416c6c2062657473206172652066696e616c697a65640000000000000000000060448201526064015b60405180910390fd5b60098054906000610399836118cc565b90915550506009546000908152600a602052604090206001015443116104275760405162461bcd60e51b815260206004820152602760248201527f43616e277420726f6c6c20616e642072657665616c20696e207468652073616d60448201527f6520626c6f636b000000000000000000000000000000000000000000000000006064820152608401610380565b600080546009548252600a602052604080832054600b5491517f70dcea8b000000000000000000000000000000000000000000000000000000008152600481019190915261ffff80831660248301526201000090920490911660448201526001600160a01b03909116906370dcea8b906064016020604051808303816000875af11580156104b9573d6000803e3d6000fd5b505050506040513d601f19601f820116820180604052508101906104dd91906118e5565b6009546000908152600a602052604090206002015490915061050a90600160a01b900461ffff1682610ec4565b1561063a57600980546000908152600a60205260408082206002908101805460ff60b01b1916600160b01b179055835483528183208101805460ff60b81b1916600160b81b179055925482528120909101805461ffff8416600160c01b0261ffff60c01b199091161790558061057e610f15565b600980546000908152600a602052604080822060030185905591548152206002015491935091506105bb90839083906001600160a01b0316610f5a565b6009546000908152600a60209081526040918290206002015460035483516001600160a01b03909216825260019282019290925261ffff8616928101929092526060820184905260808201527f90152513942e2aa2816826366268668d335149c05e1a0870302f245488dfcf459060a0015b60405180910390a1505050565b600980546000908152600a60205260408082206002908101805460ff60b01b1916600160b01b179055835483528183208101805460ff60b81b191690558354835281832060030183905592548252902001805461ffff8316600160c01b0261ffff60c01b199091161790556005546106b19061122d565b6009546000908152600a602090815260408083206002015460035482516001600160a01b03909216825292810184905261ffff851691810191909152606081019290925260808201527f90152513942e2aa2816826366268668d335149c05e1a0870302f245488dfcf459060a0015b60405180910390a15b50565b600554821461077d5760405162461bcd60e51b815260206004820152600860248201527f496e76616c6964200000000000000000000000000000000000000000000000006044820152606401610380565b6004546001600160a01b03166107d55760405162461bcd60e51b815260206004820152600d60248201527f4d7573742075736520466c6f77000000000000000000000000000000000000006044820152606401610380565b6107de81611464565b600480546040516323b872dd60e01b81523392810192909252306024830152604482018490526001600160a01b0316906323b872dd906064016020604051808303816000875af1158015610836573d6000803e3d6000fd5b505050506040513d601f19601f8201168201806040525081019061085a919061190f565b50816003600082825461086d9190611931565b909155505060008054604080516308903fb560e11b815290516001600160a01b03909216916311207f6a91600480820192602092909190829003018187875af11580156108be573d6000803e3d6000fd5b505050506040513d601f19601f820116820180604052508101906108e29190611944565b90506001600860008282546108f79190611931565b909155505060408051610100810182528281524360208083019182523383850181815261ffff8089166060870190815260006080880181815260a0890182815260c08a0183815260e08b018481526008548552600a909952928b902099518a55975160018a0155935160028901805493519551985192518516600160c01b0261ffff60c01b19931515600160b81b0260ff60b81b199a1515600160b01b029a909a1661ffff60b01b1997909616600160a01b0275ffffffffffffffffffffffffffffffffffffffffffff199095166001600160a01b03939093169290921793909317949094169290921795909517161790925551600392830155905491517fa5c1c40d4a5b56b243db9298ebb618d3f618999d4e053a0d3bd9e85322de2b339261062d92918691906001600160a01b0393909316835261ffff919091166020830152604082015260600190565b6004546001600160a01b0316610a9c5760405162461bcd60e51b815260206004820152601360248201527f43616e27742066756e642074686520706f6f6c000000000000000000000000006044820152606401610380565b600480546040516323b872dd60e01b81523392810192909252306024830152604482018390526001600160a01b0316906323b872dd906064016020604051808303816000875af1158015610af4573d6000803e3d6000fd5b505050506040513d601f19601f82011682018060405250810190610b18919061190f565b508060036000828254610b2b9190611931565b90915550506040518181527f9d81ff1364df34467b23be983916ca00ebe5b231f3c47645a0ad063b56589f4890602001610720565b6004546001600160a01b031615610bb95760405162461bcd60e51b815260206004820152601360248201527f43616e27742066756e642074686520706f6f6c000000000000000000000000006044820152606401610380565b348114610c085760405162461bcd60e51b815260206004820152601660248201527f496e76616c6964206465706f73697420616d6f756e74000000000000000000006044820152606401610380565b8060036000828254610b2b9190611931565b6005543414610c6b5760405162461bcd60e51b815260206004820152601260248201527f496e76616c69642076616c75652073656e7400000000000000000000000000006044820152606401610380565b6004546001600160a01b031615610cc45760405162461bcd60e51b815260206004820152600960248201527f4f6e6c7920464c6f7700000000000000000000000000000000000000000000006044820152606401610380565b610ccd81611464565b60055460036000828254610ce19190611931565b909155505060008054604080516308903fb560e11b815290516001600160a01b03909216916311207f6a91600480820192602092909190829003018187875af1158015610d32573d6000803e3d6000fd5b505050506040513d601f19601f82011682018060405250810190610d569190611944565b9050600160086000828254610d6b9190611931565b909155505060408051610100810182528281524360208083019182523383850181815261ffff8089166060870190815260006080880181815260a0890182815260c08a0183815260e08b018481526008548552600a909952928b902099518a55975160018a0155935160028901805493519551985192518516600160c01b0261ffff60c01b19931515600160b81b0260ff60b81b199a1515600160b01b029a909a1661ffff60b01b1997909616600160a01b0275ffffffffffffffffffffffffffffffffffffffffffff199095166001600160a01b03939093169290921793909317949094169290921795909517161790925551600392830155905491517fa5c1c40d4a5b56b243db9298ebb618d3f618999d4e053a0d3bd9e85322de2b3392610eb892918691906001600160a01b0393909316835261ffff919091166020830152604082015260600190565b60405180910390a15050565b600b54600090640100000000900461ffff168103610eee578161ffff168361ffff16149050610f0f565b600b54610f0790640100000000900461ffff1683611973565b61ffff161590505b92915050565b6000806000610f25600354611586565b90506000610f32826115ab565b905060006007548284610f459190611997565b610f4f9190611997565b959194509092505050565b6000610f65836115bf565b90506000610f738285611997565b90506000610f7f611654565b6004549091506001600160a01b0316610fe657610fad83610f9e6116e4565b6001600160a01b031690611747565b610fc06001600160a01b03821683611747565b600754610fce903390611747565b610fe16001600160a01b03851687611747565b6111f6565b6004546001600160a01b031663a9059cbb610fff6116e4565b6040517fffffffff0000000000000000000000000000000000000000000000000000000060e084901b1681526001600160a01b039091166004820152602481018690526044016020604051808303816000875af1158015611064573d6000803e3d6000fd5b505050506040513d601f19601f82011682018060405250810190611088919061190f565b506004805460405163a9059cbb60e01b81526001600160a01b03848116938201939093526024810185905291169063a9059cbb906044016020604051808303816000875af11580156110de573d6000803e3d6000fd5b505050506040513d601f19601f82011682018060405250810190611102919061190f565b506004805460075460405163a9059cbb60e01b8152339381019390935260248301526001600160a01b03169063a9059cbb906044016020604051808303816000875af1158015611156573d6000803e3d6000fd5b505050506040513d601f19601f8201168201806040525081019061117a919061190f565b506004805460405163a9059cbb60e01b81526001600160a01b03878116938201939093526024810189905291169063a9059cbb906044016020604051808303816000875af11580156111d0573d6000803e3d6000fd5b505050506040513d601f19601f820116820180604052508101906111f4919061190f565b505b85600754866112059190611931565b61120f9190611931565b600360008282546112209190611997565b9091555050505050505050565b6000611238826115ab565b90506000611245826115bf565b905060006112538284611997565b9050600061125f611654565b6004549091506001600160a01b03166112a4576112856001600160a01b03821683611747565b61129183610f9e6116e4565b60075461129f903390611747565b61143a565b6004805460405163a9059cbb60e01b81526001600160a01b03848116938201939093526024810185905291169063a9059cbb906044016020604051808303816000875af11580156112f9573d6000803e3d6000fd5b505050506040513d601f19601f8201168201806040525081019061131d919061190f565b506004546001600160a01b031663a9059cbb6113376116e4565b6040517fffffffff0000000000000000000000000000000000000000000000000000000060e084901b1681526001600160a01b039091166004820152602481018690526044016020604051808303816000875af115801561139c573d6000803e3d6000fd5b505050506040513d601f19601f820116820180604052508101906113c0919061190f565b506004805460075460405163a9059cbb60e01b8152339381019390935260248301526001600160a01b03169063a9059cbb906044016020604051808303816000875af1158015611414573d6000803e3d6000fd5b505050506040513d601f19601f82011682018060405250810190611438919061190f565b505b6007546114479085611931565b600360008282546114589190611997565b90915550505050505050565b600b54640100000000900461ffff1660000361153457600b5461ffff90811690821610156114d45760405162461bcd60e51b815260206004820152601260248201527f426574206d757374206265203e3d206d696e00000000000000000000000000006044820152606401610380565b600b5461ffff62010000909104811690821611156107295760405162461bcd60e51b815260206004820152601260248201527f426574206d757374206265203c3d206d617800000000000000000000000000006044820152606401610380565b61ffff8116156107295760405162461bcd60e51b815260206004820152601960248201527f4e6f7420616363657074696e6720637573746f6d2062657473000000000000006044820152606401610380565b600454600090600160a01b900460ff166115a16064846119aa565b610f0f91906119be565b60065460009060ff166115a16064846119aa565b600154604080517fb0e21e8a00000000000000000000000000000000000000000000000000000000815290516000926001600160a01b03169163b0e21e8a9160048083019260209291908290030181865afa158015611622573d6000803e3d6000fd5b505050506040513d601f19601f8201168201806040525081019061164691906119d5565b60ff166115a16064846119aa565b6001546002546040517f6352211e00000000000000000000000000000000000000000000000000000000815260048101919091526000916001600160a01b031690636352211e90602401602060405180830381865afa1580156116bb573d6000803e3d6000fd5b505050506040513d601f19601f820116820180604052508101906116df91906119f8565b905090565b600154604080517f8da5cb5b00000000000000000000000000000000000000000000000000000000815290516000926001600160a01b031691638da5cb5b9160048083019260209291908290030181865afa1580156116bb573d6000803e3d6000fd5b8047101561178a576040517fcf47918100000000000000000000000000000000000000000000000000000000815247600482015260248101829052604401610380565b600080836001600160a01b03168360405160006040518083038185875af1925050503d80600081146117d8576040519150601f19603f3d011682016040523d82523d6000602084013e6117dd565b606091505b5091509150816117f0576117f0816117f6565b50505050565b8051156118065780518082602001fd5b6040517fd6bda27500000000000000000000000000000000000000000000000000000000815260040160405180910390fd5b803561ffff8116811461184a57600080fd5b919050565b6000806040838503121561186257600080fd5b8235915061187260208401611838565b90509250929050565b60006020828403121561188d57600080fd5b5035919050565b6000602082840312156118a657600080fd5b6118af82611838565b9392505050565b634e487b7160e01b600052601160045260246000fd5b6000600182016118de576118de6118b6565b5060010190565b6000602082840312156118f757600080fd5b815167ffffffffffffffff811681146118af57600080fd5b60006020828403121561192157600080fd5b815180151581146118af57600080fd5b80820180821115610f0f57610f0f6118b6565b60006020828403121561195657600080fd5b5051919050565b634e487b7160e01b600052601260045260246000fd5b600061ffff8316806119875761198761195d565b8061ffff84160691505092915050565b81810381811115610f0f57610f0f6118b6565b6000826119b9576119b961195d565b500490565b8082028115828204841417610f0f57610f0f6118b6565b6000602082840312156119e757600080fd5b815160ff811681146118af57600080fd5b600060208284031215611a0a57600080fd5b81516001600160a01b03811681146118af57600080fdfea264697066735822122020a6042f4c0f65798c5b8db7166ae47d67ab84f85301781630c661c55d9c023c64736f6c634300081c0033",
  "linkReferences": {},
  "deployedLinkReferences": {}
}