{
  "_format": "hh-sol-artifact-1",
  "contractName": "FlowRollNFT",
  "sourceName": "contracts/FlowRollNFT.sol",
  "abi": [
    {
      "inputs": [
        {
          "internalType": "address",
          "name": "_randProvider",
          "type": "address"
        },
        {
          "internalType": "address",
          "name": "_nftSale",
          "type": "address"
        },
        {
          "internalType": "address",
          "name": "to",
          "type": "address"
        },
        {
          "internalType": "address",
          "name": "ERC20Address",
          "type": "address"
        },
        {
          "internalType": "uint8",
          "name": "winnerPrizeShare",
          "type": "uint8"
        },
        {
          "internalType": "uint256",
          "name": "diceRollCost",
          "type": "uint256"
        },
        {
          "internalType": "uint8",
          "name": "houseEdge",
          "type": "uint8"
        },
        {
          "internalType": "uint256",
          "name": "revealCompensation",
          "type": "uint256"
        },
        {
          "internalType": "uint16[3]",
          "name": "betParams",
          "type": "uint16[3]"
        }
      ],
      "stateMutability": "nonpayable",
      "type": "constructor"
    },
    {
      "inputs": [
        {
          "internalType": "address",
          "name": "sender",
          "type": "address"
        },
        {
          "internalType": "uint256",
          "name": "tokenId",
          "type": "uint256"
        },
        {
          "internalType": "address",
          "name": "owner",
          "type": "address"
        }
      ],
      "name": "ERC721IncorrectOwner",
      "type": "error"
    },
    {
      "inputs": [
        {
          "internalType": "address",
          "name": "operator",
          "type": "address"
        },
        {
          "internalType": "uint256",
          "name": "tokenId",
          "type": "uint256"
        }
      ],
      "name": "ERC721InsufficientApproval",
      "type": "error"
    },
    {
      "inputs": [
        {
          "internalType": "address",
          "name": "approver",
          "type": "address"
        }
      ],
      "name": "ERC721InvalidApprover",
      "type": "error"
    },
    {
      "inputs": [
        {
          "internalType": "address",
          "name": "operator",
          "type": "address"
        }
      ],
      "name": "ERC721InvalidOperator",
      "type": "error"
    },
    {
      "inputs": [
        {
          "internalType": "address",
          "name": "owner",
          "type": "address"
        }
      ],
      "name": "ERC721InvalidOwner",
      "type": "error"
    },
    {
      "inputs": [
        {
          "internalType": "address",
          "name": "receiver",
          "type": "address"
        }
      ],
      "name": "ERC721InvalidReceiver",
      "type": "error"
    },
    {
      "inputs": [
        {
          "internalType": "address",
          "name": "sender",
          "type": "address"
        }
      ],
      "name": "ERC721InvalidSender",
      "type": "error"
    },
    {
      "inputs": [
        {
          "internalType": "uint256",
          "name": "tokenId",
          "type": "uint256"
        }
      ],
      "name": "ERC721NonexistentToken",
      "type": "error"
    },
    {
      "inputs": [
        {
          "internalType": "address",
          "name": "owner",
          "type": "address"
        }
      ],
      "name": "OwnableInvalidOwner",
      "type": "error"
    },
    {
      "inputs": [
        {
          "internalType": "address",
          "name": "account",
          "type": "address"
        }
      ],
      "name": "OwnableUnauthorizedAccount",
      "type": "error"
    },
    {
      "anonymous": false,
      "inputs": [
        {
          "indexed": true,
          "internalType": "address",
          "name": "owner",
          "type": "address"
        },
        {
          "indexed": true,
          "internalType": "address",
          "name": "approved",
          "type": "address"
        },
        {
          "indexed": true,
          "internalType": "uint256",
          "name": "tokenId",
          "type": "uint256"
        }
      ],
      "name": "Approval",
      "type": "event"
    },
    {
      "anonymous": false,
      "inputs": [
        {
          "indexed": true,
          "internalType": "address",
          "name": "owner",
          "type": "address"
        },
        {
          "indexed": true,
          "internalType": "address",
          "name": "operator",
          "type": "address"
        },
        {
          "indexed": false,
          "internalType": "bool",
          "name": "approved",
          "type": "bool"
        }
      ],
      "name": "ApprovalForAll",
      "type": "event"
    },
    {
      "anonymous": false,
      "inputs": [
        {
          "indexed": true,
          "internalType": "address",
          "name": "owner",
          "type": "address"
        }
      ],
      "name": "NewFlowRoll",
      "type": "event"
    },
    {
      "anonymous": false,
      "inputs": [
        {
          "indexed": true,
          "internalType": "address",
          "name": "previousOwner",
          "type": "address"
        },
        {
          "indexed": true,
          "internalType": "address",
          "name": "newOwner",
          "type": "address"
        }
      ],
      "name": "OwnershipTransferred",
      "type": "event"
    },
    {
      "anonymous": false,
      "inputs": [
        {
          "indexed": true,
          "internalType": "address",
          "name": "from",
          "type": "address"
        },
        {
          "indexed": true,
          "internalType": "address",
          "name": "to",
          "type": "address"
        },
        {
          "indexed": true,
          "internalType": "uint256",
          "name": "tokenId",
          "type": "uint256"
        }
      ],
      "name": "Transfer",
      "type": "event"
    },
    {
      "inputs": [],
      "name": "MAXMINT",
      "outputs": [
        {
          "internalType": "uint256",
          "name": "",
          "type": "uint256"
        }
      ],
      "stateMutability": "view",
      "type": "function"
    },
    {
      "inputs": [
        {
          "internalType": "address",
          "name": "to",
          "type": "address"
        },
        {
          "internalType": "uint256",
          "name": "tokenId",
          "type": "uint256"
        }
      ],
      "name": "approve",
      "outputs": [],
      "stateMutability": "nonpayable",
      "type": "function"
    },
    {
      "inputs": [
        {
          "internalType": "address",
          "name": "owner",
          "type": "address"
        }
      ],
      "name": "balanceOf",
      "outputs": [
        {
          "internalType": "uint256",
          "name": "",
          "type": "uint256"
        }
      ],
      "stateMutability": "view",
      "type": "function"
    },
    {
      "inputs": [
        {
          "internalType": "uint256",
          "name": "to",
          "type": "uint256"
        }
      ],
      "name": "changeMaxMint",
      "outputs": [],
      "stateMutability": "nonpayable",
      "type": "function"
    },
    {
      "inputs": [
        {
          "internalType": "address",
          "name": "to",
          "type": "address"
        }
      ],
      "name": "changeNFTSaleContract",
      "outputs": [],
      "stateMutability": "nonpayable",
      "type": "function"
    },
    {
      "inputs": [],
      "name": "count",
      "outputs": [
        {
          "internalType": "uint256",
          "name": "",
          "type": "uint256"
        }
      ],
      "stateMutability": "view",
      "type": "function"
    },
    {
      "inputs": [
        {
          "internalType": "uint256",
          "name": "",
          "type": "uint256"
        }
      ],
      "name": "flowRollContractAddresses",
      "outputs": [
        {
          "internalType": "address",
          "name": "",
          "type": "address"
        }
      ],
      "stateMutability": "view",
      "type": "function"
    },
    {
      "inputs": [
        {
          "internalType": "uint256",
          "name": "tokenId",
          "type": "uint256"
        }
      ],
      "name": "getApproved",
      "outputs": [
        {
          "internalType": "address",
          "name": "",
          "type": "address"
        }
      ],
      "stateMutability": "view",
      "type": "function"
    },
    {
      "inputs": [
        {
          "internalType": "address",
          "name": "ERC20Address",
          "type": "address"
        },
        {
          "internalType": "uint8",
          "name": "winnerPrizeShare",
          "type": "uint8"
        },
        {
          "internalType": "uint256",
          "name": "diceRollCost",
          "type": "uint256"
        },
        {
          "internalType": "uint8",
          "name": "houseEdge",
          "type": "uint8"
        },
        {
          "internalType": "uint256",
          "name": "revealCompensation",
          "type": "uint256"
        },
        {
          "internalType": "uint16",
          "name": "min",
          "type": "uint16"
        },
        {
          "internalType": "uint16",
          "name": "max",
          "type": "uint16"
        },
        {
          "internalType": "uint16",
          "name": "betType",
          "type": "uint16"
        }
      ],
      "name": "hashRollParameters",
      "outputs": [
        {
          "internalType": "bytes32",
          "name": "",
          "type": "bytes32"
        }
      ],
      "stateMutability": "pure",
      "type": "function"
    },
    {
      "inputs": [
        {
          "internalType": "address",
          "name": "owner",
          "type": "address"
        },
        {
          "internalType": "address",
          "name": "operator",
          "type": "address"
        }
      ],
      "name": "isApprovedForAll",
      "outputs": [
        {
          "internalType": "bool",
          "name": "",
          "type": "bool"
        }
      ],
      "stateMutability": "view",
      "type": "function"
    },
    {
      "inputs": [
        {
          "internalType": "address",
          "name": "to",
          "type": "address"
        },
        {
          "internalType": "address",
          "name": "ERC20Address",
          "type": "address"
        },
        {
          "internalType": "uint8",
          "name": "winnerPrizeShare",
          "type": "uint8"
        },
        {
          "internalType": "uint256",
          "name": "diceRollCost",
          "type": "uint256"
        },
        {
          "internalType": "uint8",
          "name": "houseEdge",
          "type": "uint8"
        },
        {
          "internalType": "uint256",
          "name": "revealCompensation",
          "type": "uint256"
        },
        {
          "internalType": "uint16[3]",
          "name": "betParams",
          "type": "uint16[3]"
        }
      ],
      "name": "mintFlowRoll",
      "outputs": [],
      "stateMutability": "nonpayable",
      "type": "function"
    },
    {
      "inputs": [],
      "name": "name",
      "outputs": [
        {
          "internalType": "string",
          "name": "",
          "type": "string"
        }
      ],
      "stateMutability": "view",
      "type": "function"
    },
    {
      "inputs": [
        {
          "internalType": "uint256",
          "name": "",
          "type": "uint256"
        }
      ],
      "name": "names",
      "outputs": [
        {
          "internalType": "string",
          "name": "",
          "type": "string"
        }
      ],
      "stateMutability": "view",
      "type": "function"
    },
    {
      "inputs": [],
      "name": "owner",
      "outputs": [
        {
          "internalType": "address",
          "name": "",
          "type": "address"
        }
      ],
      "stateMutability": "view",
      "type": "function"
    },
    {
      "inputs": [
        {
          "internalType": "uint256",
          "name": "tokenId",
          "type": "uint256"
        }
      ],
      "name": "ownerOf",
      "outputs": [
        {
          "internalType": "address",
          "name": "",
          "type": "address"
        }
      ],
      "stateMutability": "view",
      "type": "function"
    },
    {
      "inputs": [
        {
          "internalType": "bytes32",
          "name": "",
          "type": "bytes32"
        }
      ],
      "name": "parametersExist",
      "outputs": [
        {
          "internalType": "bool",
          "name": "",
          "type": "bool"
        }
      ],
      "stateMutability": "view",
      "type": "function"
    },
    {
      "inputs": [],
      "name": "protocolFee",
      "outputs": [
        {
          "internalType": "uint8",
          "name": "",
          "type": "uint8"
        }
      ],
      "stateMutability": "view",
      "type": "function"
    },
    {
      "inputs": [],
      "name": "renounceOwnership",
      "outputs": [],
      "stateMutability": "nonpayable",
      "type": "function"
    },
    {
      "inputs": [
        {
          "internalType": "address",
          "name": "from",
          "type": "address"
        },
        {
          "internalType": "address",
          "name": "to",
          "type": "address"
        },
        {
          "internalType": "uint256",
          "name": "tokenId",
          "type": "uint256"
        }
      ],
      "name": "safeTransferFrom",
      "outputs": [],
      "stateMutability": "nonpayable",
      "type": "function"
    },
    {
      "inputs": [
        {
          "internalType": "address",
          "name": "from",
          "type": "address"
        },
        {
          "internalType": "address",
          "name": "to",
          "type": "address"
        },
        {
          "internalType": "uint256",
          "name": "tokenId",
          "type": "uint256"
        },
        {
          "internalType": "bytes",
          "name": "data",
          "type": "bytes"
        }
      ],
      "name": "safeTransferFrom",
      "outputs": [],
      "stateMutability": "nonpayable",
      "type": "function"
    },
    {
      "inputs": [
        {
          "internalType": "address",
          "name": "operator",
          "type": "address"
        },
        {
          "internalType": "bool",
          "name": "approved",
          "type": "bool"
        }
      ],
      "name": "setApprovalForAll",
      "outputs": [],
      "stateMutability": "nonpayable",
      "type": "function"
    },
    {
      "inputs": [
        {
          "internalType": "uint256",
          "name": "_tokenId",
          "type": "uint256"
        },
        {
          "internalType": "string",
          "name": "name",
          "type": "string"
        }
      ],
      "name": "setName",
      "outputs": [],
      "stateMutability": "nonpayable",
      "type": "function"
    },
    {
      "inputs": [
        {
          "internalType": "uint8",
          "name": "to",
          "type": "uint8"
        }
      ],
      "name": "setProtocolFee",
      "outputs": [],
      "stateMutability": "nonpayable",
      "type": "function"
    },
    {
      "inputs": [
        {
          "internalType": "bytes4",
          "name": "interfaceId",
          "type": "bytes4"
        }
      ],
      "name": "supportsInterface",
      "outputs": [
        {
          "internalType": "bool",
          "name": "",
          "type": "bool"
        }
      ],
      "stateMutability": "view",
      "type": "function"
    },
    {
      "inputs": [],
      "name": "symbol",
      "outputs": [
        {
          "internalType": "string",
          "name": "",
          "type": "string"
        }
      ],
      "stateMutability": "view",
      "type": "function"
    },
    {
      "inputs": [
        {
          "internalType": "uint256",
          "name": "tokenId",
          "type": "uint256"
        }
      ],
      "name": "tokenURI",
      "outputs": [
        {
          "internalType": "string",
          "name": "",
          "type": "string"
        }
      ],
      "stateMutability": "view",
      "type": "function"
    },
    {
      "inputs": [
        {
          "internalType": "address",
          "name": "from",
          "type": "address"
        },
        {
          "internalType": "address",
          "name": "to",
          "type": "address"
        },
        {
          "internalType": "uint256",
          "name": "tokenId",
          "type": "uint256"
        }
      ],
      "name": "transferFrom",
      "outputs": [],
      "stateMutability": "nonpayable",
      "type": "function"
    },
    {
      "inputs": [
        {
          "internalType": "address",
          "name": "newOwner",
          "type": "address"
        }
      ],
      "name": "transferOwnership",
      "outputs": [],
      "stateMutability": "nonpayable",
      "type": "function"
    }
  ],
  "bytecode": "0x608060405234801561001057600080fd5b506040516169fe3803806169fe83398101604081905261002f916108f8565b336040518060400160405280600b81526020016a119b1bddd49bdb1b13919560aa1b8152506040518060400160405280600381526020016211949360ea1b815250816000908161007f9190610a7a565b50600161008c8282610a7a565b5050506001600160a01b0381166100be57604051631e4fbdf760e01b8152600060048201526024015b60405180910390fd5b6100c781610120565b50600a80546001600160a01b03808b166001600160a01b03199283161790925560006008556103e8600755600c8054928c169290911691909117905561011287878787878787610172565b505050505050505050610c75565b600680546001600160a01b038381166001600160a01b0319831681179093556040519116919082907f8be0079c531659141344cd1fd0a4f28419497f9722a3daafe3b4186f6b6457e090600090a35050565b6007546008541061018257600080fd5b805160208083015160408085015181516001600160601b031960608d901b16818601527fff0000000000000000000000000000000000000000000000000000000000000060f88c811b82166034840152603583018c90528a901b166055820152605681018890526001600160f01b031960f096871b8116607683015293861b84166078820152941b909116607a8401528051808403605c018152607c909301905281519101206000906000818152600b602052604090205490915060ff161561028d5760405162461bcd60e51b815260206004820152601460248201527f4475706c696361746520706172616d657465727300000000000000000000000060448201526064016100b5565b6000818152600b6020526040808220805460ff19166001179055600c5460085491516001600160a01b0390911691908a908a908a908a908a908a906102d190610896565b6102e2989796959493929190610b38565b604051809103906000f0801580156102fe573d6000803e3d6000fd5b5060088054600090815260096020526040902080546001600160a01b0319166001600160a01b03841617905554909150610339908a90610380565b600854610347906001610bb2565b60085560405133907f99f345f41aa6fa64220ff92c2b427dd16f0dab03be922a76a6e61b2540b888db90600090a2505050505050505050565b6103a08282604051806020016040528060008152506103a460201b60201c565b5050565b6103ae83836103c1565b6103bc336000858585610425565b505050565b6001600160a01b0382166103eb57604051633250574960e11b8152600060048201526024016100b5565b60006103f8838383610550565b90506001600160a01b038116156103bc576040516339e3563760e11b8152600060048201526024016100b5565b6001600160a01b0383163b1561054957604051630a85bd0160e11b81526001600160a01b0384169063150b7a0290610467908890889087908790600401610bd3565b6020604051808303816000875af19250505080156104a2575060408051601f3d908101601f1916820190925261049f91810190610c44565b60015b61050b573d8080156104d0576040519150601f19603f3d011682016040523d82523d6000602084013e6104d5565b606091505b50805160000361050357604051633250574960e11b81526001600160a01b03851660048201526024016100b5565b805181602001fd5b6001600160e01b03198116630a85bd0160e11b1461054757604051633250574960e11b81526001600160a01b03851660048201526024016100b5565b505b5050505050565b6000828152600260205260408120546001600160a01b039081169083161561057d5761057d818486610648565b6001600160a01b038116156105ba5761059960008581806106ac565b6001600160a01b038116600090815260036020526040902080546000190190555b6001600160a01b038516156105e9576001600160a01b0385166000908152600360205260409020805460010190555b60008481526002602052604080822080546001600160a01b0319166001600160a01b0389811691821790925591518793918516917fddf252ad1be2c89b69c2b068fc378daa952ba7f163c4a11628f55a4df523b3ef91a4949350505050565b6106538383836107d1565b6103bc576001600160a01b03831661068157604051637e27328960e01b8152600481018290526024016100b5565b60405163177e802f60e01b81526001600160a01b0383166004820152602481018290526044016100b5565b80806106c057506001600160a01b03821615155b156107a15760006106d084610857565b90506001600160a01b038316158015906106fc5750826001600160a01b0316816001600160a01b031614155b801561072e57506001600160a01b0380821660009081526005602090815260408083209387168352929052205460ff16155b156107575760405163a9fbf51f60e01b81526001600160a01b03841660048201526024016100b5565b811561079f5783856001600160a01b0316826001600160a01b03167f8c5be1e5ebec7d5bd14f71427d1e84f3dd0314c0f7b2291e5b200ac8c7c3b92560405160405180910390a45b505b5050600090815260046020526040902080546001600160a01b0319166001600160a01b0392909216919091179055565b60006001600160a01b0383161580159061084f5750826001600160a01b0316846001600160a01b0316148061082b57506001600160a01b0380851660009081526005602090815260408083209387168352929052205460ff165b8061084f57506000828152600460205260409020546001600160a01b038481169116145b949350505050565b6000818152600260205260408120546001600160a01b03168061089057604051637e27328960e01b8152600481018490526024016100b5565b92915050565b611fa980614a5583390190565b80516001600160a01b03811681146108ba57600080fd5b919050565b805160ff811681146108ba57600080fd5b634e487b7160e01b600052604160045260246000fd5b805161ffff811681146108ba57600080fd5b60008060008060008060008060006101608a8c03121561091757600080fd5b6109208a6108a3565b985061092e60208b016108a3565b975061093c60408b016108a3565b965061094a60608b016108a3565b955061095860808b016108bf565b60a08b0151909550935061096e60c08b016108bf565b60e08b0151909350915061011f8a018b1361098857600080fd5b604051606081016001600160401b03811182821017156109aa576109aa6108d0565b604052806101608c018d8111156109c057600080fd5b6101008d015b818110156109e5576109d7816108e6565b8352602092830192016109c6565b505050809150509295985092959850929598565b600181811c90821680610a0d57607f821691505b602082108103610a2d57634e487b7160e01b600052602260045260246000fd5b50919050565b601f8211156103bc57806000526020600020601f840160051c81016020851015610a5a5750805b601f840160051c820191505b818110156105495760008155600101610a66565b81516001600160401b03811115610a9357610a936108d0565b610aa781610aa184546109f9565b84610a33565b6020601f821160018114610adb5760008315610ac35750848201515b600019600385901b1c1916600184901b178455610549565b600084815260208120601f198516915b82811015610b0b5787850151825560209485019460019092019101610aeb565b5084821015610b295786840151600019600387901b60f8161c191681555b50505050600190811b01905550565b6001600160a01b038981168252602082018990528716604082015260ff868116606083015260808201869052841660a082015260c08101839052610140810160e082018360005b6003811015610ba257815161ffff16835260209283019290910190600101610b7f565b5050509998505050505050505050565b8082018082111561089057634e487b7160e01b600052601160045260246000fd5b6001600160a01b03858116825284166020820152604081018390526080606082018190528251908201819052600090815b81811015610c2157602081860181015160a0868401015201610c04565b50600060a0828501015260a0601f19601f83011684010191505095945050505050565b600060208284031215610c5657600080fd5b81516001600160e01b031981168114610c6e57600080fd5b9392505050565b613dd180610c846000396000f3fe608060405234801561001057600080fd5b50600436106101c45760003560e01c8063715018a6116100f9578063b88d4fde11610097578063e985e9c511610071578063e985e9c51461048c578063f2fde38b146104c8578063f5dfbcfe146104db578063fe55932a1461050457600080fd5b8063b88d4fde14610443578063bd99100314610456578063c87b56dd1461047957600080fd5b80638da5cb5b116100d35780638da5cb5b146103f157806395d89b4114610402578063a22cb4651461040a578063b0e21e8a1461041d57600080fd5b8063715018a6146102fe5780637465d8941461030657806380450bf9146103de57600080fd5b80633d8a5660116101665780634e91f811116101405780634e91f811146102b25780636352211e146102c55780636f95c34f146102d857806370a08231146102eb57600080fd5b80633d8a56601461028357806342842e0e1461028c5780634622ab031461029f57600080fd5b8063081812fc116101a2578063081812fc1461021d578063095ea7b31461024857806320c63e3b1461025d57806323b872dd1461027057600080fd5b806301ffc9a7146101c957806306661abd146101f157806306fdde0314610208575b600080fd5b6101dc6101d73660046116a0565b610517565b60405190151581526020015b60405180910390f35b6101fa60085481565b6040519081526020016101e8565b610210610528565b6040516101e8919061170d565b61023061022b366004611720565b6105ba565b6040516001600160a01b0390911681526020016101e8565b61025b610256366004611755565b6105e3565b005b61025b61026b366004611720565b6105f2565b61025b61027e36600461177f565b610655565b6101fa60075481565b61025b61029a36600461177f565b6106f9565b6102106102ad366004611720565b610719565b61025b6102c03660046117cd565b6107b3565b6102306102d3366004611720565b61084a565b61025b6102e63660046117e8565b610855565b6101fa6102f93660046117e8565b61087f565b61025b6108e0565b6101fa610314366004611815565b6040516bffffffffffffffffffffffff1960608a901b1660208201527fff0000000000000000000000000000000000000000000000000000000000000060f889811b821660348401526035830189905287901b166055820152605681018590527fffff00000000000000000000000000000000000000000000000000000000000060f085811b8216607684015284811b8216607884015283901b16607a820152600090607c0160405160208183030381529060405280519060200120905098975050505050505050565b61025b6103ec36600461190e565b6108f4565b6006546001600160a01b0316610230565b610210610966565b61025b6104183660046119ce565b610975565b600c5461043190600160a01b900460ff1681565b60405160ff90911681526020016101e8565b61025b610451366004611a0a565b610980565b6101dc610464366004611720565b600b6020526000908152604090205460ff1681565b610210610487366004611720565b610998565b6101dc61049a366004611acf565b6001600160a01b03918216600090815260056020908152604080832093909416825291909152205460ff1690565b61025b6104d63660046117e8565b6109a3565b6102306104e9366004611720565b6009602052600090815260409020546001600160a01b031681565b61025b610512366004611b02565b6109fa565b600061052282610af0565b92915050565b60606000805461053790611b80565b80601f016020809104026020016040519081016040528092919081815260200182805461056390611b80565b80156105b05780601f10610585576101008083540402835291602001916105b0565b820191906000526020600020905b81548152906001019060200180831161059357829003601f168201915b5050505050905090565b60006105c582610b8b565b506000828152600460205260409020546001600160a01b0316610522565b6105ee828233610bc4565b5050565b6105fa610bd1565b61271081106106505760405162461bcd60e51b815260206004820152600b60248201527f4d6178696d756d2031306b00000000000000000000000000000000000000000060448201526064015b60405180910390fd5b600755565b6001600160a01b03821661067f57604051633250574960e11b815260006004820152602401610647565b600061068c838333610c17565b9050836001600160a01b0316816001600160a01b0316146106f3576040517f64283d7b0000000000000000000000000000000000000000000000000000000081526001600160a01b0380861660048301526024820184905282166044820152606401610647565b50505050565b61071483838360405180602001604052806000815250610980565b505050565b600d602052600090815260409020805461073290611b80565b80601f016020809104026020016040519081016040528092919081815260200182805461075e90611b80565b80156107ab5780601f10610780576101008083540402835291602001916107ab565b820191906000526020600020905b81548152906001019060200180831161078e57829003601f168201915b505050505081565b6107bb610bd1565b60148160ff16111561080f5760405162461bcd60e51b815260206004820152600660248201527f3230206d617800000000000000000000000000000000000000000000000000006044820152606401610647565b600c805460ff909216600160a01b027fffffffffffffffffffffff00ffffffffffffffffffffffffffffffffffffffff909216919091179055565b600061052282610b8b565b61085d610bd1565b600a80546001600160a01b0319166001600160a01b0392909216919091179055565b60006001600160a01b0382166108c4576040517f89c62b6400000000000000000000000000000000000000000000000000000000815260006004820152602401610647565b506001600160a01b031660009081526003602052604090205490565b6108e8610bd1565b6108f26000610d10565b565b600a546001600160a01b0316331461094e5760405162461bcd60e51b815260206004820152601560248201527f4f6e6c792073656c6c696e6720636f6e747261637400000000000000000000006044820152606401610647565b61095d87878787878787610d62565b50505050505050565b60606001805461053790611b80565b6105ee338383610f8d565b61098b848484610655565b6106f33385858585611045565b606061052282611170565b6109ab610bd1565b6001600160a01b0381166109ee576040517f1e4fbdf700000000000000000000000000000000000000000000000000000000815260006004820152602401610647565b6109f781610d10565b50565b33610a048461084a565b6001600160a01b031614610a5a5760405162461bcd60e51b815260206004820152601360248201527f446f65736e2774206f776e20746f6b656e4964000000000000000000000000006044820152606401610647565b6000838152600e602052604090205460ff1615610ab95760405162461bcd60e51b815260206004820152601160248201527f546f6b656e204e616d65204578697374730000000000000000000000000000006044820152606401610647565b6000838152600d60205260409020610ad2828483611c01565b5050506000908152600e60205260409020805460ff19166001179055565b60006001600160e01b031982167f80ac58cd000000000000000000000000000000000000000000000000000000001480610b5357506001600160e01b031982167f5b5e139f00000000000000000000000000000000000000000000000000000000145b8061052257507f01ffc9a7000000000000000000000000000000000000000000000000000000006001600160e01b0319831614610522565b6000818152600260205260408120546001600160a01b03168061052257604051637e27328960e01b815260048101849052602401610647565b610714838383600161120a565b6006546001600160a01b031633146108f2576040517f118cdaa7000000000000000000000000000000000000000000000000000000008152336004820152602401610647565b6000828152600260205260408120546001600160a01b0390811690831615610c4457610c44818486611348565b6001600160a01b03811615610c8257610c6160008560008061120a565b6001600160a01b038116600090815260036020526040902080546000190190555b6001600160a01b03851615610cb1576001600160a01b0385166000908152600360205260409020805460010190555b60008481526002602052604080822080546001600160a01b0319166001600160a01b0389811691821790925591518793918516917fddf252ad1be2c89b69c2b068fc378daa952ba7f163c4a11628f55a4df523b3ef91a4949350505050565b600680546001600160a01b038381166001600160a01b0319831681179093556040519116919082907f8be0079c531659141344cd1fd0a4f28419497f9722a3daafe3b4186f6b6457e090600090a35050565b60075460085410610d7257600080fd5b805160208083015160408085015181516bffffffffffffffffffffffff1960608d901b16818601527fff0000000000000000000000000000000000000000000000000000000000000060f88c811b82166034840152603583018c90528a901b166055820152605681018890527fffff00000000000000000000000000000000000000000000000000000000000060f096871b8116607683015293861b84166078820152941b909116607a8401528051808403605c018152607c909301905281519101206000906000818152600b602052604090205490915060ff1615610e9a5760405162461bcd60e51b815260206004820152601460248201527f4475706c696361746520706172616d65746572730000000000000000000000006044820152606401610647565b6000818152600b6020526040808220805460ff19166001179055600c5460085491516001600160a01b0390911691908a908a908a908a908a908a90610ede9061167d565b610eef989796959493929190611cc1565b604051809103906000f080158015610f0b573d6000803e3d6000fd5b5060088054600090815260096020526040902080546001600160a01b0319166001600160a01b03841617905554909150610f46908a906113c5565b600854610f54906001611d44565b60085560405133907f99f345f41aa6fa64220ff92c2b427dd16f0dab03be922a76a6e61b2540b888db90600090a2505050505050505050565b6001600160a01b038216610fd8576040517f5b08ba180000000000000000000000000000000000000000000000000000000081526001600160a01b0383166004820152602401610647565b6001600160a01b03838116600081815260056020908152604080832094871680845294825291829020805460ff191686151590811790915591519182527f17307eab39ab6107e8899845ad3d59bd9653f200f220920489ca2b5937696c31910160405180910390a3505050565b6001600160a01b0383163b1561116957604051630a85bd0160e11b81526001600160a01b0384169063150b7a0290611087908890889087908790600401611d65565b6020604051808303816000875af19250505080156110c2575060408051601f3d908101601f191682019092526110bf91810190611da6565b60015b61112b573d8080156110f0576040519150601f19603f3d011682016040523d82523d6000602084013e6110f5565b606091505b50805160000361112357604051633250574960e11b81526001600160a01b0385166004820152602401610647565b805181602001fd5b6001600160e01b03198116630a85bd0160e11b1461116757604051633250574960e11b81526001600160a01b0385166004820152602401610647565b505b5050505050565b606061117b82610b8b565b5060006111b860408051808201909152601b81527f68747470733a2f2f666c6f77726f6c6c2e636c75622f6d6574612f0000000000602082015290565b905060008151116111d85760405180602001604052806000815250611203565b806111e2846113df565b6040516020016111f3929190611dc3565b6040516020818303038152906040525b9392505050565b808061121e57506001600160a01b03821615155b1561131857600061122e84610b8b565b90506001600160a01b0383161580159061125a5750826001600160a01b0316816001600160a01b031614155b801561128c57506001600160a01b0380821660009081526005602090815260408083209387168352929052205460ff16155b156112ce576040517fa9fbf51f0000000000000000000000000000000000000000000000000000000081526001600160a01b0384166004820152602401610647565b81156113165783856001600160a01b0316826001600160a01b03167f8c5be1e5ebec7d5bd14f71427d1e84f3dd0314c0f7b2291e5b200ac8c7c3b92560405160405180910390a45b505b5050600090815260046020526040902080546001600160a01b0319166001600160a01b0392909216919091179055565b61135383838361147f565b610714576001600160a01b03831661138157604051637e27328960e01b815260048101829052602401610647565b6040517f177e802f0000000000000000000000000000000000000000000000000000000081526001600160a01b038316600482015260248101829052604401610647565b6105ee828260405180602001604052806000815250611505565b606060006113ec8361151d565b600101905060008167ffffffffffffffff81111561140c5761140c61189e565b6040519080825280601f01601f191660200182016040528015611436576020820181803683370190505b5090508181016020015b600019017f3031323334353637383961626364656600000000000000000000000000000000600a86061a8153600a850494508461144057509392505050565b60006001600160a01b038316158015906114fd5750826001600160a01b0316846001600160a01b031614806114d957506001600160a01b0380851660009081526005602090815260408083209387168352929052205460ff165b806114fd57506000828152600460205260409020546001600160a01b038481169116145b949350505050565b61150f83836115ff565b610714336000858585611045565b6000807a184f03e93ff9f4daa797ed6e38ed64bf6a1f0100000000000000008310611566577a184f03e93ff9f4daa797ed6e38ed64bf6a1f010000000000000000830492506040015b6d04ee2d6d415b85acef81000000008310611592576d04ee2d6d415b85acef8100000000830492506020015b662386f26fc1000083106115b057662386f26fc10000830492506010015b6305f5e10083106115c8576305f5e100830492506008015b61271083106115dc57612710830492506004015b606483106115ee576064830492506002015b600a83106105225760010192915050565b6001600160a01b03821661162957604051633250574960e11b815260006004820152602401610647565b600061163783836000610c17565b90506001600160a01b03811615610714576040517f73c6ac6e00000000000000000000000000000000000000000000000000000000815260006004820152602401610647565b611fa980611df383390190565b6001600160e01b0319811681146109f757600080fd5b6000602082840312156116b257600080fd5b81356112038161168a565b60005b838110156116d85781810151838201526020016116c0565b50506000910152565b600081518084526116f98160208601602086016116bd565b601f01601f19169290920160200192915050565b60208152600061120360208301846116e1565b60006020828403121561173257600080fd5b5035919050565b80356001600160a01b038116811461175057600080fd5b919050565b6000806040838503121561176857600080fd5b61177183611739565b946020939093013593505050565b60008060006060848603121561179457600080fd5b61179d84611739565b92506117ab60208501611739565b929592945050506040919091013590565b803560ff8116811461175057600080fd5b6000602082840312156117df57600080fd5b611203826117bc565b6000602082840312156117fa57600080fd5b61120382611739565b803561ffff8116811461175057600080fd5b600080600080600080600080610100898b03121561183257600080fd5b61183b89611739565b975061184960208a016117bc565b96506040890135955061185e60608a016117bc565b94506080890135935061187360a08a01611803565b925061188160c08a01611803565b915061188f60e08a01611803565b90509295985092959890939650565b634e487b7160e01b600052604160045260246000fd5b6040516060810167ffffffffffffffff811182821017156118d7576118d761189e565b60405290565b604051601f8201601f1916810167ffffffffffffffff811182821017156119065761190661189e565b604052919050565b6000806000806000806000610120888a03121561192a57600080fd5b61193388611739565b965061194160208901611739565b955061194f604089016117bc565b945060608801359350611964608089016117bc565b925060a0880135915060df8801891361197c57600080fd5b6119846118b4565b806101208a018b81111561199757600080fd5b60c08b015b818110156119bb576119ad81611803565b84526020938401930161199c565b5050809250505092959891949750929550565b600080604083850312156119e157600080fd5b6119ea83611739565b9150602083013580151581146119ff57600080fd5b809150509250929050565b60008060008060808587031215611a2057600080fd5b611a2985611739565b9350611a3760208601611739565b925060408501359150606085013567ffffffffffffffff811115611a5a57600080fd5b8501601f81018713611a6b57600080fd5b803567ffffffffffffffff811115611a8557611a8561189e565b611a98601f8201601f19166020016118dd565b818152886020838501011115611aad57600080fd5b8160208401602083013760006020838301015280935050505092959194509250565b60008060408385031215611ae257600080fd5b611aeb83611739565b9150611af960208401611739565b90509250929050565b600080600060408486031215611b1757600080fd5b83359250602084013567ffffffffffffffff811115611b3557600080fd5b8401601f81018613611b4657600080fd5b803567ffffffffffffffff811115611b5d57600080fd5b866020828401011115611b6f57600080fd5b939660209190910195509293505050565b600181811c90821680611b9457607f821691505b602082108103611bb457634e487b7160e01b600052602260045260246000fd5b50919050565b601f82111561071457806000526020600020601f840160051c81016020851015611be15750805b601f840160051c820191505b818110156111695760008155600101611bed565b67ffffffffffffffff831115611c1957611c1961189e565b611c2d83611c278354611b80565b83611bba565b6000601f841160018114611c615760008515611c495750838201355b600019600387901b1c1916600186901b178355611169565b600083815260209020601f19861690835b82811015611c925786850135825560209485019460019092019101611c72565b5086821015611caf5760001960f88860031b161c19848701351681555b505060018560011b0183555050505050565b6000610140820190506001600160a01b038a1682528860208301526001600160a01b038816604083015260ff8716606083015285608083015260ff851660a08301528360c083015260e082018360005b6003811015611d3457815161ffff16835260209283019290910190600101611d11565b5050509998505050505050505050565b8082018082111561052257634e487b7160e01b600052601160045260246000fd5b6001600160a01b03851681526001600160a01b0384166020820152826040820152608060608201526000611d9c60808301846116e1565b9695505050505050565b600060208284031215611db857600080fd5b81516112038161168a565b60008351611dd58184602088016116bd565b835190830190611de98183602088016116bd565b0194935050505056fe608060405234801561001057600080fd5b50604051611fa9380380611fa983398101604081905261002f916103f8565b60648560ff1611156100885760405162461bcd60e51b815260206004820152601760248201527f5072697a652073686172652069732031303025206d617800000000000000000060448201526064015b60405180910390fd5b60648360ff1611156100dc5760405162461bcd60e51b815260206004820152601660248201527f486f75736520656467652069732031303025206d617800000000000000000000604482015260640161007f565b83821061012b5760405162461bcd60e51b815260206004820152601c60248201527f52657665616c20636f6d70656e736174696f6e20746f6f206869676800000000604482015260640161007f565b836101358161037f565b61013f90846104f7565b1061019d5760405162461bcd60e51b815260206004820152602860248201527f696e76616c696420486f7573652065646765206f722072657665616c436f6d7060448201526732b739b0ba34b7b760c11b606482015260840161007f565b604081015161ffff166001036101f55760405162461bcd60e51b815260206004820152601460248201527f62657454797065203120697320696e76616c6964000000000000000000000000604482015260640161007f565b6020810151815161ffff9182169116106102515760405162461bcd60e51b815260206004820152601660248201527f6d696e206d757374206265203c207468616e206d617800000000000000000000604482015260640161007f565b6020810151604082015161ffff918216911611156102b15760405162461bcd60e51b815260206004820152601f60248201527f42657420747970652063616e2774206265206d6f7265207468616e206d617800604482015260640161007f565b600080546001600160a01b03998a166001600160a01b0319918216178255600180549091163317905560029790975560038790556004805460ff968716600160a01b026001600160a81b0319909116979099169690961797909717909455600591909155600680549190921660ff1990911617905560075560088190556009558051600b8054602084015160409094015161ffff948516620100000293851663ffffffff19909216919091179290921761ffff60201b19166401000000009390921692909202179055610543565b60065460009060ff1661039360648461050a565b61039d919061052c565b92915050565b80516001600160a01b03811681146103ba57600080fd5b919050565b805160ff811681146103ba57600080fd5b634e487b7160e01b600052604160045260246000fd5b805161ffff811681146103ba57600080fd5b600080600080600080600080610140898b03121561041557600080fd5b61041e896103a3565b60208a0151909850965061043460408a016103a3565b955061044260608a016103bf565b60808a0151909550935061045860a08a016103bf565b60c08a0151909350915060ff89018a1361047157600080fd5b604051606081016001600160401b0381118282101715610493576104936103d0565b604052806101408b018c8111156104a957600080fd5b60e08c015b818110156104cd576104bf816103e6565b8352602092830192016104ae565b505050809150509295985092959890939650565b634e487b7160e01b600052601160045260246000fd5b8082018082111561039d5761039d6104e1565b60008261052757634e487b7160e01b600052601260045260246000fd5b500490565b808202811582820484141761039d5761039d6104e1565b611a57806105526000396000f3fe6080604052600436106100c75760003560e01c80637801f84211610074578063a6021ace1161004e578063a6021ace1461026a578063bfacd9ed146102a2578063d03c0ade1461031b57600080fd5b80637801f84214610221578063945b62b7146102375780639a0d39921461025757600080fd5b806322af00fa116100a557806322af00fa1461011f5780632c2f45c8146101eb578063676a3a971461020b57600080fd5b8063033b337d146100cc57806311d86d47146100e157806317ba50ed1461010a575b600080fd5b6100df6100da36600461184f565b610331565b005b3480156100ed57600080fd5b506100f760025481565b6040519081526020015b60405180910390f35b34801561011657600080fd5b506100df6105e0565b34801561012b57600080fd5b5061019a61013a366004611871565b600a602052600090815260409020805460018201546002830154600390930154919290916001600160a01b0382169161ffff600160a01b820481169260ff600160b01b8404811693600160b81b810490911692600160c01b909104169088565b6040805198895260208901979097526001600160a01b039095169587019590955261ffff92831660608701529015156080860152151560a085015290911660c083015260e082015261010001610101565b3480156101f757600080fd5b506100df61020636600461188a565b6109d6565b34801561021757600080fd5b506100f760035481565b34801561022d57600080fd5b506100f760085481565b34801561024357600080fd5b506100df610252366004611871565b610cee565b6100df610265366004611871565b610e0a565b34801561027657600080fd5b5060045461028a906001600160a01b031681565b6040516001600160a01b039091168152602001610101565b3480156102ae57600080fd5b50600454600554600654600754600b5460408051600160a01b90960460ff908116875260208701959095529390921692840192909252606083019190915261ffff8082166080840152620100008204811660a08401526401000000009091041660c082015260e001610101565b34801561032757600080fd5b506100f760095481565b60055434146103875760405162461bcd60e51b815260206004820152601260248201527f496e76616c69642076616c75652073656e74000000000000000000000000000060448201526064015b60405180910390fd5b6004546001600160a01b0316156103e05760405162461bcd60e51b815260206004820152600960248201527f4f6e6c7920464c6f770000000000000000000000000000000000000000000000604482015260640161037e565b6103e981610ec4565b600554600360008282546103fd91906118cc565b909155505060008054604080516308903fb560e11b815290516001600160a01b03909216916311207f6a91600480820192602092909190829003018187875af115801561044e573d6000803e3d6000fd5b505050506040513d601f19601f8201168201806040525081019061047291906118df565b905060016008600082825461048791906118cc565b909155505060408051610100810182528281524360208083019182523383850181815261ffff8089166060870190815260006080880181815260a0890182815260c08a0183815260e08b018481526008548552600a909952928b902099518a55975160018a0155935160028901805493519551985192518516600160c01b0261ffff60c01b19931515600160b81b0260ff60b81b199a1515600160b01b029a909a1661ffff60b01b1997909616600160a01b0275ffffffffffffffffffffffffffffffffffffffffffff199095166001600160a01b03939093169290921793909317949094169290921795909517161790925551600392830155905491517fa5c1c40d4a5b56b243db9298ebb618d3f618999d4e053a0d3bd9e85322de2b33926105d492918691906001600160a01b0393909316835261ffff919091166020830152604082015260600190565b60405180910390a15050565b600954600854116106335760405162461bcd60e51b815260206004820152601660248201527f416c6c2062657473206172652066696e616c697a656400000000000000000000604482015260640161037e565b60098054906000610643836118f8565b90915550506009546000908152600a602052604090206001015443116106d15760405162461bcd60e51b815260206004820152602760248201527f43616e277420726f6c6c20616e642072657665616c20696e207468652073616d60448201527f6520626c6f636b00000000000000000000000000000000000000000000000000606482015260840161037e565b600080546009548252600a602052604080832054600b5491517f70dcea8b000000000000000000000000000000000000000000000000000000008152600481019190915261ffff80831660248301526201000090920490911660448201526001600160a01b03909116906370dcea8b906064016020604051808303816000875af1158015610763573d6000803e3d6000fd5b505050506040513d601f19601f820116820180604052508101906107879190611911565b6009546000908152600a60205260409020600201549091506107b490600160a01b900461ffff1682610fe6565b156108e457600980546000908152600a60205260408082206002908101805460ff60b01b1916600160b01b179055835483528183208101805460ff60b81b1916600160b81b179055925482528120909101805461ffff8416600160c01b0261ffff60c01b1990911617905580610828611037565b600980546000908152600a6020526040808220600301859055915481522060020154919350915061086590839083906001600160a01b031661107c565b6009546000908152600a60209081526040918290206002015460035483516001600160a01b03909216825260019282019290925261ffff8616928101929092526060820184905260808201527f90152513942e2aa2816826366268668d335149c05e1a0870302f245488dfcf459060a0015b60405180910390a1505050565b600980546000908152600a60205260408082206002908101805460ff60b01b1916600160b01b179055835483528183208101805460ff60b81b191690558354835281832060030183905592548252902001805461ffff8316600160c01b0261ffff60c01b1990911617905560055461095b9061134f565b6009546000908152600a602090815260408083206002015460035482516001600160a01b03909216825292810184905261ffff851691810191909152606081019290925260808201527f90152513942e2aa2816826366268668d335149c05e1a0870302f245488dfcf459060a0015b60405180910390a15b50565b6005548214610a275760405162461bcd60e51b815260206004820152600860248201527f496e76616c696420000000000000000000000000000000000000000000000000604482015260640161037e565b6004546001600160a01b0316610a7f5760405162461bcd60e51b815260206004820152600d60248201527f4d7573742075736520466c6f7700000000000000000000000000000000000000604482015260640161037e565b610a8881610ec4565b600480546040516323b872dd60e01b81523392810192909252306024830152604482018490526001600160a01b0316906323b872dd906064016020604051808303816000875af1158015610ae0573d6000803e3d6000fd5b505050506040513d601f19601f82011682018060405250810190610b04919061193b565b508160036000828254610b1791906118cc565b909155505060008054604080516308903fb560e11b815290516001600160a01b03909216916311207f6a91600480820192602092909190829003018187875af1158015610b68573d6000803e3d6000fd5b505050506040513d601f19601f82011682018060405250810190610b8c91906118df565b9050600160086000828254610ba191906118cc565b909155505060408051610100810182528281524360208083019182523383850181815261ffff8089166060870190815260006080880181815260a0890182815260c08a0183815260e08b018481526008548552600a909952928b902099518a55975160018a0155935160028901805493519551985192518516600160c01b0261ffff60c01b19931515600160b81b0260ff60b81b199a1515600160b01b029a909a1661ffff60b01b1997909616600160a01b0275ffffffffffffffffffffffffffffffffffffffffffff199095166001600160a01b03939093169290921793909317949094169290921795909517161790925551600392830155905491517fa5c1c40d4a5b56b243db9298ebb618d3f618999d4e053a0d3bd9e85322de2b33926108d792918691906001600160a01b0393909316835261ffff919091166020830152604082015260600190565b6004546001600160a01b0316610d465760405162461bcd60e51b815260206004820152601360248201527f43616e27742066756e642074686520706f6f6c00000000000000000000000000604482015260640161037e565b600480546040516323b872dd60e01b81523392810192909252306024830152604482018390526001600160a01b0316906323b872dd906064016020604051808303816000875af1158015610d9e573d6000803e3d6000fd5b505050506040513d601f19601f82011682018060405250810190610dc2919061193b565b508060036000828254610dd591906118cc565b90915550506040518181527f9d81ff1364df34467b23be983916ca00ebe5b231f3c47645a0ad063b56589f48906020016109ca565b6004546001600160a01b031615610e635760405162461bcd60e51b815260206004820152601360248201527f43616e27742066756e642074686520706f6f6c00000000000000000000000000604482015260640161037e565b348114610eb25760405162461bcd60e51b815260206004820152601660248201527f496e76616c6964206465706f73697420616d6f756e7400000000000000000000604482015260640161037e565b8060036000828254610dd591906118cc565b600b54640100000000900461ffff16600003610f9457600b5461ffff9081169082161015610f345760405162461bcd60e51b815260206004820152601260248201527f426574206d757374206265203e3d206d696e0000000000000000000000000000604482015260640161037e565b600b5461ffff62010000909104811690821611156109d35760405162461bcd60e51b815260206004820152601260248201527f426574206d757374206265203c3d206d61780000000000000000000000000000604482015260640161037e565b61ffff8116156109d35760405162461bcd60e51b815260206004820152601960248201527f4e6f7420616363657074696e6720637573746f6d206265747300000000000000604482015260640161037e565b600b54600090640100000000900461ffff168103611010578161ffff168361ffff16149050611031565b600b5461102990640100000000900461ffff1683611973565b61ffff161590505b92915050565b6000806000611047600354611586565b90506000611054826115ab565b9050600060075482846110679190611997565b6110719190611997565b959194509092505050565b6000611087836115bf565b905060006110958285611997565b905060006110a1611654565b6004549091506001600160a01b0316611108576110cf836110c06116e4565b6001600160a01b031690611747565b6110e26001600160a01b03821683611747565b6007546110f0903390611747565b6111036001600160a01b03851687611747565b611318565b6004546001600160a01b031663a9059cbb6111216116e4565b6040517fffffffff0000000000000000000000000000000000000000000000000000000060e084901b1681526001600160a01b039091166004820152602481018690526044016020604051808303816000875af1158015611186573d6000803e3d6000fd5b505050506040513d601f19601f820116820180604052508101906111aa919061193b565b506004805460405163a9059cbb60e01b81526001600160a01b03848116938201939093526024810185905291169063a9059cbb906044016020604051808303816000875af1158015611200573d6000803e3d6000fd5b505050506040513d601f19601f82011682018060405250810190611224919061193b565b506004805460075460405163a9059cbb60e01b8152339381019390935260248301526001600160a01b03169063a9059cbb906044016020604051808303816000875af1158015611278573d6000803e3d6000fd5b505050506040513d601f19601f8201168201806040525081019061129c919061193b565b506004805460405163a9059cbb60e01b81526001600160a01b03878116938201939093526024810189905291169063a9059cbb906044016020604051808303816000875af11580156112f2573d6000803e3d6000fd5b505050506040513d601f19601f82011682018060405250810190611316919061193b565b505b856007548661132791906118cc565b61133191906118cc565b600360008282546113429190611997565b9091555050505050505050565b600061135a826115ab565b90506000611367826115bf565b905060006113758284611997565b90506000611381611654565b6004549091506001600160a01b03166113c6576113a76001600160a01b03821683611747565b6113b3836110c06116e4565b6007546113c1903390611747565b61155c565b6004805460405163a9059cbb60e01b81526001600160a01b03848116938201939093526024810185905291169063a9059cbb906044016020604051808303816000875af115801561141b573d6000803e3d6000fd5b505050506040513d601f19601f8201168201806040525081019061143f919061193b565b506004546001600160a01b031663a9059cbb6114596116e4565b6040517fffffffff0000000000000000000000000000000000000000000000000000000060e084901b1681526001600160a01b039091166004820152602481018690526044016020604051808303816000875af11580156114be573d6000803e3d6000fd5b505050506040513d601f19601f820116820180604052508101906114e2919061193b565b506004805460075460405163a9059cbb60e01b8152339381019390935260248301526001600160a01b03169063a9059cbb906044016020604051808303816000875af1158015611536573d6000803e3d6000fd5b505050506040513d601f19601f8201168201806040525081019061155a919061193b565b505b60075461156990856118cc565b6003600082825461157a9190611997565b90915550505050505050565b600454600090600160a01b900460ff166115a16064846119aa565b61103191906119be565b60065460009060ff166115a16064846119aa565b600154604080517fb0e21e8a00000000000000000000000000000000000000000000000000000000815290516000926001600160a01b03169163b0e21e8a9160048083019260209291908290030181865afa158015611622573d6000803e3d6000fd5b505050506040513d601f19601f8201168201806040525081019061164691906119d5565b60ff166115a16064846119aa565b6001546002546040517f6352211e00000000000000000000000000000000000000000000000000000000815260048101919091526000916001600160a01b031690636352211e90602401602060405180830381865afa1580156116bb573d6000803e3d6000fd5b505050506040513d601f19601f820116820180604052508101906116df91906119f8565b905090565b600154604080517f8da5cb5b00000000000000000000000000000000000000000000000000000000815290516000926001600160a01b031691638da5cb5b9160048083019260209291908290030181865afa1580156116bb573d6000803e3d6000fd5b8047101561178a576040517fcf4791810000000000000000000000000000000000000000000000000000000081524760048201526024810182905260440161037e565b600080836001600160a01b03168360405160006040518083038185875af1925050503d80600081146117d8576040519150601f19603f3d011682016040523d82523d6000602084013e6117dd565b606091505b5091509150816117f0576117f0816117f6565b50505050565b8051156118065780518082602001fd5b6040517fd6bda27500000000000000000000000000000000000000000000000000000000815260040160405180910390fd5b803561ffff8116811461184a57600080fd5b919050565b60006020828403121561186157600080fd5b61186a82611838565b9392505050565b60006020828403121561188357600080fd5b5035919050565b6000806040838503121561189d57600080fd5b823591506118ad60208401611838565b90509250929050565b634e487b7160e01b600052601160045260246000fd5b80820180821115611031576110316118b6565b6000602082840312156118f157600080fd5b5051919050565b60006001820161190a5761190a6118b6565b5060010190565b60006020828403121561192357600080fd5b815167ffffffffffffffff8116811461186a57600080fd5b60006020828403121561194d57600080fd5b8151801515811461186a57600080fd5b634e487b7160e01b600052601260045260246000fd5b600061ffff8316806119875761198761195d565b8061ffff84160691505092915050565b81810381811115611031576110316118b6565b6000826119b9576119b961195d565b500490565b8082028115828204841417611031576110316118b6565b6000602082840312156119e757600080fd5b815160ff8116811461186a57600080fd5b600060208284031215611a0a57600080fd5b81516001600160a01b038116811461186a57600080fdfea2646970667358221220d857afe17186300b4638328ce3873841081a3513d05eb23368ef8e1bb51d6d3664736f6c634300081c0033a2646970667358221220f3435678b5f144e957492ce5e607621753f0c78c8eb1b58b744e54abdfe458eb64736f6c634300081c0033608060405234801561001057600080fd5b50604051611fa9380380611fa983398101604081905261002f916103f8565b60648560ff1611156100885760405162461bcd60e51b815260206004820152601760248201527f5072697a652073686172652069732031303025206d617800000000000000000060448201526064015b60405180910390fd5b60648360ff1611156100dc5760405162461bcd60e51b815260206004820152601660248201527f486f75736520656467652069732031303025206d617800000000000000000000604482015260640161007f565b83821061012b5760405162461bcd60e51b815260206004820152601c60248201527f52657665616c20636f6d70656e736174696f6e20746f6f206869676800000000604482015260640161007f565b836101358161037f565b61013f90846104f7565b1061019d5760405162461bcd60e51b815260206004820152602860248201527f696e76616c696420486f7573652065646765206f722072657665616c436f6d7060448201526732b739b0ba34b7b760c11b606482015260840161007f565b604081015161ffff166001036101f55760405162461bcd60e51b815260206004820152601460248201527f62657454797065203120697320696e76616c6964000000000000000000000000604482015260640161007f565b6020810151815161ffff9182169116106102515760405162461bcd60e51b815260206004820152601660248201527f6d696e206d757374206265203c207468616e206d617800000000000000000000604482015260640161007f565b6020810151604082015161ffff918216911611156102b15760405162461bcd60e51b815260206004820152601f60248201527f42657420747970652063616e2774206265206d6f7265207468616e206d617800604482015260640161007f565b600080546001600160a01b03998a166001600160a01b0319918216178255600180549091163317905560029790975560038790556004805460ff968716600160a01b026001600160a81b0319909116979099169690961797909717909455600591909155600680549190921660ff1990911617905560075560088190556009558051600b8054602084015160409094015161ffff948516620100000293851663ffffffff19909216919091179290921761ffff60201b19166401000000009390921692909202179055610543565b60065460009060ff1661039360648461050a565b61039d919061052c565b92915050565b80516001600160a01b03811681146103ba57600080fd5b919050565b805160ff811681146103ba57600080fd5b634e487b7160e01b600052604160045260246000fd5b805161ffff811681146103ba57600080fd5b600080600080600080600080610140898b03121561041557600080fd5b61041e896103a3565b60208a0151909850965061043460408a016103a3565b955061044260608a016103bf565b60808a0151909550935061045860a08a016103bf565b60c08a0151909350915060ff89018a1361047157600080fd5b604051606081016001600160401b0381118282101715610493576104936103d0565b604052806101408b018c8111156104a957600080fd5b60e08c015b818110156104cd576104bf816103e6565b8352602092830192016104ae565b505050809150509295985092959890939650565b634e487b7160e01b600052601160045260246000fd5b8082018082111561039d5761039d6104e1565b60008261052757634e487b7160e01b600052601260045260246000fd5b500490565b808202811582820484141761039d5761039d6104e1565b611a57806105526000396000f3fe6080604052600436106100c75760003560e01c80637801f84211610074578063a6021ace1161004e578063a6021ace1461026a578063bfacd9ed146102a2578063d03c0ade1461031b57600080fd5b80637801f84214610221578063945b62b7146102375780639a0d39921461025757600080fd5b806322af00fa116100a557806322af00fa1461011f5780632c2f45c8146101eb578063676a3a971461020b57600080fd5b8063033b337d146100cc57806311d86d47146100e157806317ba50ed1461010a575b600080fd5b6100df6100da36600461184f565b610331565b005b3480156100ed57600080fd5b506100f760025481565b6040519081526020015b60405180910390f35b34801561011657600080fd5b506100df6105e0565b34801561012b57600080fd5b5061019a61013a366004611871565b600a602052600090815260409020805460018201546002830154600390930154919290916001600160a01b0382169161ffff600160a01b820481169260ff600160b01b8404811693600160b81b810490911692600160c01b909104169088565b6040805198895260208901979097526001600160a01b039095169587019590955261ffff92831660608701529015156080860152151560a085015290911660c083015260e082015261010001610101565b3480156101f757600080fd5b506100df61020636600461188a565b6109d6565b34801561021757600080fd5b506100f760035481565b34801561022d57600080fd5b506100f760085481565b34801561024357600080fd5b506100df610252366004611871565b610cee565b6100df610265366004611871565b610e0a565b34801561027657600080fd5b5060045461028a906001600160a01b031681565b6040516001600160a01b039091168152602001610101565b3480156102ae57600080fd5b50600454600554600654600754600b5460408051600160a01b90960460ff908116875260208701959095529390921692840192909252606083019190915261ffff8082166080840152620100008204811660a08401526401000000009091041660c082015260e001610101565b34801561032757600080fd5b506100f760095481565b60055434146103875760405162461bcd60e51b815260206004820152601260248201527f496e76616c69642076616c75652073656e74000000000000000000000000000060448201526064015b60405180910390fd5b6004546001600160a01b0316156103e05760405162461bcd60e51b815260206004820152600960248201527f4f6e6c7920464c6f770000000000000000000000000000000000000000000000604482015260640161037e565b6103e981610ec4565b600554600360008282546103fd91906118cc565b909155505060008054604080516308903fb560e11b815290516001600160a01b03909216916311207f6a91600480820192602092909190829003018187875af115801561044e573d6000803e3d6000fd5b505050506040513d601f19601f8201168201806040525081019061047291906118df565b905060016008600082825461048791906118cc565b909155505060408051610100810182528281524360208083019182523383850181815261ffff8089166060870190815260006080880181815260a0890182815260c08a0183815260e08b018481526008548552600a909952928b902099518a55975160018a0155935160028901805493519551985192518516600160c01b0261ffff60c01b19931515600160b81b0260ff60b81b199a1515600160b01b029a909a1661ffff60b01b1997909616600160a01b0275ffffffffffffffffffffffffffffffffffffffffffff199095166001600160a01b03939093169290921793909317949094169290921795909517161790925551600392830155905491517fa5c1c40d4a5b56b243db9298ebb618d3f618999d4e053a0d3bd9e85322de2b33926105d492918691906001600160a01b0393909316835261ffff919091166020830152604082015260600190565b60405180910390a15050565b600954600854116106335760405162461bcd60e51b815260206004820152601660248201527f416c6c2062657473206172652066696e616c697a656400000000000000000000604482015260640161037e565b60098054906000610643836118f8565b90915550506009546000908152600a602052604090206001015443116106d15760405162461bcd60e51b815260206004820152602760248201527f43616e277420726f6c6c20616e642072657665616c20696e207468652073616d60448201527f6520626c6f636b00000000000000000000000000000000000000000000000000606482015260840161037e565b600080546009548252600a602052604080832054600b5491517f70dcea8b000000000000000000000000000000000000000000000000000000008152600481019190915261ffff80831660248301526201000090920490911660448201526001600160a01b03909116906370dcea8b906064016020604051808303816000875af1158015610763573d6000803e3d6000fd5b505050506040513d601f19601f820116820180604052508101906107879190611911565b6009546000908152600a60205260409020600201549091506107b490600160a01b900461ffff1682610fe6565b156108e457600980546000908152600a60205260408082206002908101805460ff60b01b1916600160b01b179055835483528183208101805460ff60b81b1916600160b81b179055925482528120909101805461ffff8416600160c01b0261ffff60c01b1990911617905580610828611037565b600980546000908152600a6020526040808220600301859055915481522060020154919350915061086590839083906001600160a01b031661107c565b6009546000908152600a60209081526040918290206002015460035483516001600160a01b03909216825260019282019290925261ffff8616928101929092526060820184905260808201527f90152513942e2aa2816826366268668d335149c05e1a0870302f245488dfcf459060a0015b60405180910390a1505050565b600980546000908152600a60205260408082206002908101805460ff60b01b1916600160b01b179055835483528183208101805460ff60b81b191690558354835281832060030183905592548252902001805461ffff8316600160c01b0261ffff60c01b1990911617905560055461095b9061134f565b6009546000908152600a602090815260408083206002015460035482516001600160a01b03909216825292810184905261ffff851691810191909152606081019290925260808201527f90152513942e2aa2816826366268668d335149c05e1a0870302f245488dfcf459060a0015b60405180910390a15b50565b6005548214610a275760405162461bcd60e51b815260206004820152600860248201527f496e76616c696420000000000000000000000000000000000000000000000000604482015260640161037e565b6004546001600160a01b0316610a7f5760405162461bcd60e51b815260206004820152600d60248201527f4d7573742075736520466c6f7700000000000000000000000000000000000000604482015260640161037e565b610a8881610ec4565b600480546040516323b872dd60e01b81523392810192909252306024830152604482018490526001600160a01b0316906323b872dd906064016020604051808303816000875af1158015610ae0573d6000803e3d6000fd5b505050506040513d601f19601f82011682018060405250810190610b04919061193b565b508160036000828254610b1791906118cc565b909155505060008054604080516308903fb560e11b815290516001600160a01b03909216916311207f6a91600480820192602092909190829003018187875af1158015610b68573d6000803e3d6000fd5b505050506040513d601f19601f82011682018060405250810190610b8c91906118df565b9050600160086000828254610ba191906118cc565b909155505060408051610100810182528281524360208083019182523383850181815261ffff8089166060870190815260006080880181815260a0890182815260c08a0183815260e08b018481526008548552600a909952928b902099518a55975160018a0155935160028901805493519551985192518516600160c01b0261ffff60c01b19931515600160b81b0260ff60b81b199a1515600160b01b029a909a1661ffff60b01b1997909616600160a01b0275ffffffffffffffffffffffffffffffffffffffffffff199095166001600160a01b03939093169290921793909317949094169290921795909517161790925551600392830155905491517fa5c1c40d4a5b56b243db9298ebb618d3f618999d4e053a0d3bd9e85322de2b33926108d792918691906001600160a01b0393909316835261ffff919091166020830152604082015260600190565b6004546001600160a01b0316610d465760405162461bcd60e51b815260206004820152601360248201527f43616e27742066756e642074686520706f6f6c00000000000000000000000000604482015260640161037e565b600480546040516323b872dd60e01b81523392810192909252306024830152604482018390526001600160a01b0316906323b872dd906064016020604051808303816000875af1158015610d9e573d6000803e3d6000fd5b505050506040513d601f19601f82011682018060405250810190610dc2919061193b565b508060036000828254610dd591906118cc565b90915550506040518181527f9d81ff1364df34467b23be983916ca00ebe5b231f3c47645a0ad063b56589f48906020016109ca565b6004546001600160a01b031615610e635760405162461bcd60e51b815260206004820152601360248201527f43616e27742066756e642074686520706f6f6c00000000000000000000000000604482015260640161037e565b348114610eb25760405162461bcd60e51b815260206004820152601660248201527f496e76616c6964206465706f73697420616d6f756e7400000000000000000000604482015260640161037e565b8060036000828254610dd591906118cc565b600b54640100000000900461ffff16600003610f9457600b5461ffff9081169082161015610f345760405162461bcd60e51b815260206004820152601260248201527f426574206d757374206265203e3d206d696e0000000000000000000000000000604482015260640161037e565b600b5461ffff62010000909104811690821611156109d35760405162461bcd60e51b815260206004820152601260248201527f426574206d757374206265203c3d206d61780000000000000000000000000000604482015260640161037e565b61ffff8116156109d35760405162461bcd60e51b815260206004820152601960248201527f4e6f7420616363657074696e6720637573746f6d206265747300000000000000604482015260640161037e565b600b54600090640100000000900461ffff168103611010578161ffff168361ffff16149050611031565b600b5461102990640100000000900461ffff1683611973565b61ffff161590505b92915050565b6000806000611047600354611586565b90506000611054826115ab565b9050600060075482846110679190611997565b6110719190611997565b959194509092505050565b6000611087836115bf565b905060006110958285611997565b905060006110a1611654565b6004549091506001600160a01b0316611108576110cf836110c06116e4565b6001600160a01b031690611747565b6110e26001600160a01b03821683611747565b6007546110f0903390611747565b6111036001600160a01b03851687611747565b611318565b6004546001600160a01b031663a9059cbb6111216116e4565b6040517fffffffff0000000000000000000000000000000000000000000000000000000060e084901b1681526001600160a01b039091166004820152602481018690526044016020604051808303816000875af1158015611186573d6000803e3d6000fd5b505050506040513d601f19601f820116820180604052508101906111aa919061193b565b506004805460405163a9059cbb60e01b81526001600160a01b03848116938201939093526024810185905291169063a9059cbb906044016020604051808303816000875af1158015611200573d6000803e3d6000fd5b505050506040513d601f19601f82011682018060405250810190611224919061193b565b506004805460075460405163a9059cbb60e01b8152339381019390935260248301526001600160a01b03169063a9059cbb906044016020604051808303816000875af1158015611278573d6000803e3d6000fd5b505050506040513d601f19601f8201168201806040525081019061129c919061193b565b506004805460405163a9059cbb60e01b81526001600160a01b03878116938201939093526024810189905291169063a9059cbb906044016020604051808303816000875af11580156112f2573d6000803e3d6000fd5b505050506040513d601f19601f82011682018060405250810190611316919061193b565b505b856007548661132791906118cc565b61133191906118cc565b600360008282546113429190611997565b9091555050505050505050565b600061135a826115ab565b90506000611367826115bf565b905060006113758284611997565b90506000611381611654565b6004549091506001600160a01b03166113c6576113a76001600160a01b03821683611747565b6113b3836110c06116e4565b6007546113c1903390611747565b61155c565b6004805460405163a9059cbb60e01b81526001600160a01b03848116938201939093526024810185905291169063a9059cbb906044016020604051808303816000875af115801561141b573d6000803e3d6000fd5b505050506040513d601f19601f8201168201806040525081019061143f919061193b565b506004546001600160a01b031663a9059cbb6114596116e4565b6040517fffffffff0000000000000000000000000000000000000000000000000000000060e084901b1681526001600160a01b039091166004820152602481018690526044016020604051808303816000875af11580156114be573d6000803e3d6000fd5b505050506040513d601f19601f820116820180604052508101906114e2919061193b565b506004805460075460405163a9059cbb60e01b8152339381019390935260248301526001600160a01b03169063a9059cbb906044016020604051808303816000875af1158015611536573d6000803e3d6000fd5b505050506040513d601f19601f8201168201806040525081019061155a919061193b565b505b60075461156990856118cc565b6003600082825461157a9190611997565b90915550505050505050565b600454600090600160a01b900460ff166115a16064846119aa565b61103191906119be565b60065460009060ff166115a16064846119aa565b600154604080517fb0e21e8a00000000000000000000000000000000000000000000000000000000815290516000926001600160a01b03169163b0e21e8a9160048083019260209291908290030181865afa158015611622573d6000803e3d6000fd5b505050506040513d601f19601f8201168201806040525081019061164691906119d5565b60ff166115a16064846119aa565b6001546002546040517f6352211e00000000000000000000000000000000000000000000000000000000815260048101919091526000916001600160a01b031690636352211e90602401602060405180830381865afa1580156116bb573d6000803e3d6000fd5b505050506040513d601f19601f820116820180604052508101906116df91906119f8565b905090565b600154604080517f8da5cb5b00000000000000000000000000000000000000000000000000000000815290516000926001600160a01b031691638da5cb5b9160048083019260209291908290030181865afa1580156116bb573d6000803e3d6000fd5b8047101561178a576040517fcf4791810000000000000000000000000000000000000000000000000000000081524760048201526024810182905260440161037e565b600080836001600160a01b03168360405160006040518083038185875af1925050503d80600081146117d8576040519150601f19603f3d011682016040523d82523d6000602084013e6117dd565b606091505b5091509150816117f0576117f0816117f6565b50505050565b8051156118065780518082602001fd5b6040517fd6bda27500000000000000000000000000000000000000000000000000000000815260040160405180910390fd5b803561ffff8116811461184a57600080fd5b919050565b60006020828403121561186157600080fd5b61186a82611838565b9392505050565b60006020828403121561188357600080fd5b5035919050565b6000806040838503121561189d57600080fd5b823591506118ad60208401611838565b90509250929050565b634e487b7160e01b600052601160045260246000fd5b80820180821115611031576110316118b6565b6000602082840312156118f157600080fd5b5051919050565b60006001820161190a5761190a6118b6565b5060010190565b60006020828403121561192357600080fd5b815167ffffffffffffffff8116811461186a57600080fd5b60006020828403121561194d57600080fd5b8151801515811461186a57600080fd5b634e487b7160e01b600052601260045260246000fd5b600061ffff8316806119875761198761195d565b8061ffff84160691505092915050565b81810381811115611031576110316118b6565b6000826119b9576119b961195d565b500490565b8082028115828204841417611031576110316118b6565b6000602082840312156119e757600080fd5b815160ff8116811461186a57600080fd5b600060208284031215611a0a57600080fd5b81516001600160a01b038116811461186a57600080fdfea2646970667358221220d857afe17186300b4638328ce3873841081a3513d05eb23368ef8e1bb51d6d3664736f6c634300081c0033",
  "linkReferences": {},
  "deployedLinkReferences": {}
}