{
  "_format": "hh-sol-artifact-1",
  "contractName": "NFTSale",
  "sourceName": "contracts/NFTSale.sol",
  "abi": [
    {
      "inputs": [
        {
          "internalType": "uint256",
          "name": "_USDcost",
          "type": "uint256"
        },
        {
          "internalType": "address",
          "name": "_priceFeedContract",
          "type": "address"
        }
      ],
      "stateMutability": "nonpayable",
      "type": "constructor"
    },
    {
      "inputs": [],
      "name": "FailedCall",
      "type": "error"
    },
    {
      "inputs": [
        {
          "internalType": "uint256",
          "name": "balance",
          "type": "uint256"
        },
        {
          "internalType": "uint256",
          "name": "needed",
          "type": "uint256"
        }
      ],
      "name": "InsufficientBalance",
      "type": "error"
    },
    {
      "inputs": [
        {
          "internalType": "address",
          "name": "owner",
          "type": "address"
        }
      ],
      "name": "OwnableInvalidOwner",
      "type": "error"
    },
    {
      "inputs": [
        {
          "internalType": "address",
          "name": "account",
          "type": "address"
        }
      ],
      "name": "OwnableUnauthorizedAccount",
      "type": "error"
    },
    {
      "anonymous": false,
      "inputs": [
        {
          "indexed": true,
          "internalType": "address",
          "name": "previousOwner",
          "type": "address"
        },
        {
          "indexed": true,
          "internalType": "address",
          "name": "newOwner",
          "type": "address"
        }
      ],
      "name": "OwnershipTransferred",
      "type": "event"
    },
    {
      "inputs": [
        {
          "internalType": "string",
          "name": "coupon",
          "type": "string"
        },
        {
          "internalType": "address",
          "name": "to",
          "type": "address"
        },
        {
          "internalType": "address",
          "name": "ERC20Address",
          "type": "address"
        },
        {
          "internalType": "uint8",
          "name": "winnerPrizeShare",
          "type": "uint8"
        },
        {
          "internalType": "uint256",
          "name": "diceRollCost",
          "type": "uint256"
        },
        {
          "internalType": "uint8",
          "name": "houseEdge",
          "type": "uint8"
        },
        {
          "internalType": "uint256",
          "name": "revealCompensation",
          "type": "uint256"
        },
        {
          "internalType": "uint16[3]",
          "name": "betParams",
          "type": "uint16[3]"
        }
      ],
      "name": "buyNFT",
      "outputs": [],
      "stateMutability": "payable",
      "type": "function"
    },
    {
      "inputs": [
        {
          "internalType": "uint256",
          "name": "newPrice",
          "type": "uint256"
        },
        {
          "internalType": "string",
          "name": "coupon",
          "type": "string"
        }
      ],
      "name": "getComission",
      "outputs": [
        {
          "internalType": "uint256",
          "name": "",
          "type": "uint256"
        }
      ],
      "stateMutability": "view",
      "type": "function"
    },
    {
      "inputs": [
        {
          "internalType": "string",
          "name": "coupon",
          "type": "string"
        }
      ],
      "name": "getCoupon",
      "outputs": [
        {
          "internalType": "address",
          "name": "",
          "type": "address"
        },
        {
          "internalType": "uint8",
          "name": "",
          "type": "uint8"
        },
        {
          "internalType": "uint8",
          "name": "",
          "type": "uint8"
        },
        {
          "internalType": "uint8",
          "name": "",
          "type": "uint8"
        }
      ],
      "stateMutability": "view",
      "type": "function"
    },
    {
      "inputs": [],
      "name": "getExpectedPriceInFlow",
      "outputs": [
        {
          "internalType": "uint256",
          "name": "",
          "type": "uint256"
        }
      ],
      "stateMutability": "nonpayable",
      "type": "function"
    },
    {
      "inputs": [
        {
          "internalType": "string",
          "name": "coupon",
          "type": "string"
        },
        {
          "internalType": "uint256",
          "name": "flowPrice",
          "type": "uint256"
        }
      ],
      "name": "getReducedPrice",
      "outputs": [
        {
          "internalType": "uint256",
          "name": "",
          "type": "uint256"
        }
      ],
      "stateMutability": "view",
      "type": "function"
    },
    {
      "inputs": [],
      "name": "getUSDPriceInFlow",
      "outputs": [
        {
          "internalType": "uint256",
          "name": "",
          "type": "uint256"
        }
      ],
      "stateMutability": "nonpayable",
      "type": "function"
    },
    {
      "inputs": [],
      "name": "owner",
      "outputs": [
        {
          "internalType": "address",
          "name": "",
          "type": "address"
        }
      ],
      "stateMutability": "view",
      "type": "function"
    },
    {
      "inputs": [],
      "name": "renounceOwnership",
      "outputs": [],
      "stateMutability": "nonpayable",
      "type": "function"
    },
    {
      "inputs": [
        {
          "internalType": "string",
          "name": "coupon",
          "type": "string"
        },
        {
          "internalType": "address",
          "name": "recipient",
          "type": "address"
        },
        {
          "internalType": "uint8",
          "name": "percentageOff",
          "type": "uint8"
        },
        {
          "internalType": "uint8",
          "name": "comission",
          "type": "uint8"
        },
        {
          "internalType": "uint8",
          "name": "_couponUsesLeft",
          "type": "uint8"
        }
      ],
      "name": "setCoupon",
      "outputs": [],
      "stateMutability": "nonpayable",
      "type": "function"
    },
    {
      "inputs": [
        {
          "internalType": "int32",
          "name": "_expectedExpo",
          "type": "int32"
        },
        {
          "internalType": "uint8",
          "name": "_usedExpo",
          "type": "uint8"
        }
      ],
      "name": "setExpo",
      "outputs": [],
      "stateMutability": "nonpayable",
      "type": "function"
    },
    {
      "inputs": [
        {
          "internalType": "address",
          "name": "to",
          "type": "address"
        }
      ],
      "name": "setNFTAddress",
      "outputs": [],
      "stateMutability": "nonpayable",
      "type": "function"
    },
    {
      "inputs": [
        {
          "internalType": "uint256",
          "name": "to",
          "type": "uint256"
        }
      ],
      "name": "setUSDcost",
      "outputs": [],
      "stateMutability": "nonpayable",
      "type": "function"
    },
    {
      "inputs": [
        {
          "internalType": "address",
          "name": "newOwner",
          "type": "address"
        }
      ],
      "name": "transferOwnership",
      "outputs": [],
      "stateMutability": "nonpayable",
      "type": "function"
    },
    {
      "inputs": [
        {
          "internalType": "address",
          "name": "addr",
          "type": "address"
        },
        {
          "internalType": "string",
          "name": "coupon",
          "type": "string"
        }
      ],
      "name": "usedCouponAlready",
      "outputs": [
        {
          "internalType": "bool",
          "name": "",
          "type": "bool"
        }
      ],
      "stateMutability": "view",
      "type": "function"
    }
  ],
  "bytecode": "0x608060405234801561001057600080fd5b5060405161150f38038061150f83398101604081905261002f91610158565b338061005657604051631e4fbdf760e01b8152600060048201526024015b60405180910390fd5b61005f81610108565b506002829055600180546001600160a01b031916331790556001600160a01b0381166100cd5760405162461bcd60e51b815260206004820152601660248201527f50726963652066656564206d7573742062652073657400000000000000000000604482015260640161004d565b600480546001600160a01b0319166001600160a01b0392909216919091179055506003805464ffffffffff19166408fffffff8179055610195565b600080546001600160a01b038381166001600160a01b0319831681178455604051919092169283917f8be0079c531659141344cd1fd0a4f28419497f9722a3daafe3b4186f6b6457e09190a35050565b6000806040838503121561016b57600080fd5b825160208401519092506001600160a01b038116811461018a57600080fd5b809150509250929050565b61136b806101a46000396000f3fe6080604052600436106100dd5760003560e01c80638da5cb5b1161007f578063aaa98e9111610059578063aaa98e911461022c578063d563544414610241578063ecd5c44114610294578063f2fde38b146102b457600080fd5b80638da5cb5b146101d157806397b0cd59146101f9578063aa02e0cd1461021957600080fd5b8063402ce783116100bb578063402ce7831461016757806369d037381461018757806370a5d41c146101a7578063715018a6146101bc57600080fd5b80631eceac1c146100e257806321f82183146101175780633d3dbb3b14610139575b600080fd5b3480156100ee57600080fd5b506101026100fd366004610e79565b6102d4565b60405190151581526020015b60405180910390f35b34801561012357600080fd5b50610137610132366004610eec565b610318565b005b34801561014557600080fd5b50610159610154366004610f21565b61034b565b60405190815260200161010e565b34801561017357600080fd5b50610137610182366004610f6d565b61039d565b34801561019357600080fd5b506101376101a2366004610ff2565b6104f5565b3480156101b357600080fd5b50610159610540565b3480156101c857600080fd5b506101376106c6565b3480156101dd57600080fd5b506000546040516001600160a01b03909116815260200161010e565b34801561020557600080fd5b50610159610214366004611014565b6106da565b61013761022736600461106f565b61071e565b34801561023857600080fd5b50610159610b21565b34801561024d57600080fd5b5061026161025c36600461117e565b610b61565b604080516001600160a01b03909516855260ff93841660208601529183169184019190915216606082015260800161010e565b3480156102a057600080fd5b506101376102af3660046111c0565b610c11565b3480156102c057600080fd5b506101376102cf366004610ff2565b610c1e565b6001600160a01b03831660009081526009602052604080822090516102fc90859085906111d9565b9081526040519081900360200190205460ff1690509392505050565b610320610c75565b6003805460ff9092166401000000000264ffffffffff1990921663ffffffff90931692909217179055565b600080600685856040516103609291906111d9565b9081526040519081900360200190205460ff1661037e6064856111ff565b6103889190611221565b9050610394818461123e565b95945050505050565b6103a5610c75565b6001600160a01b0384166104005760405162461bcd60e51b815260206004820152601160248201527f696e76616c696420726563697069656e7400000000000000000000000000000060448201526064015b60405180910390fd5b83600587876040516104139291906111d9565b908152602001604051809103902060006101000a8154816001600160a01b0302191690836001600160a01b0316021790555082600687876040516104589291906111d9565b908152602001604051809103902060006101000a81548160ff021916908360ff16021790555081600787876040516104919291906111d9565b908152602001604051809103902060006101000a81548160ff021916908360ff16021790555080600887876040516104ca9291906111d9565b908152604051908190036020019020805460ff9290921660ff19909216919091179055505050505050565b6104fd610c75565b600380546001600160a01b0390921665010000000000027fffffffffffffff0000000000000000000000000000000000000000ffffffffff909216919091179055565b6000806000600460009054906101000a90046001600160a01b03166001600160a01b03166398d5fdca6040518163ffffffff1660e01b815260040160408051808303816000875af1158015610599573d6000803e3d6000fd5b505050506040513d601f19601f820116820180604052508101906105bd9190611251565b6003805492945090925082810b91900b1461061a5760405162461bcd60e51b815260206004820181905260248201527f546865206578706f6e656e74696174696f6e20697320756e657870656374656460448201526064016103f7565b600480546003546040517fd41ac92300000000000000000000000000000000000000000000000000000000815267ffffffffffffffff861693810193909352640100000000900460ff1660248301526001600160a01b03169063d41ac923906044016020604051808303816000875af115801561069b573d6000803e3d6000fd5b505050506040513d601f19601f820116820180604052508101906106bf9190611291565b9250505090565b6106ce610c75565b6106d86000610cbb565b565b6000600783836040516106ee9291906111d9565b9081526040519081900360200190205460ff1661070c6064866111ff565b6107169190611221565b949350505050565b8715610a1b5760006001600160a01b031660058a8a6040516107419291906111d9565b908152604051908190036020019020546001600160a01b0316036107a75760405162461bcd60e51b815260206004820152600e60248201527f496e76616c696420636f75706f6e00000000000000000000000000000000000060448201526064016103f7565b600889896040516107b99291906111d9565b9081526040519081900360200190205460ff1660000361081b5760405162461bcd60e51b815260206004820152601260248201527f436f75706f6e207761732075736564207570000000000000000000000000000060448201526064016103f7565b3360009081526009602052604090819020905161083b908b908b906111d9565b9081526040519081900360200190205460ff161561089b5760405162461bcd60e51b815260206004820152601b60248201527f4164647265737320616c7265616479207573656420636f75706f6e000000000060448201526064016103f7565b600160088a8a6040516108af9291906111d9565b90815260405190819003602001902080546000906108d190849060ff166112aa565b92506101000a81548160ff021916908360ff160217905550600160096000336001600160a01b03166001600160a01b031681526020019081526020016000208a8a6040516109209291906111d9565b908152604051908190036020019020805491151560ff19909216919091179055600061094a610b21565b905060006109598b8b8461034b565b90503481146109aa5760405162461bcd60e51b815260206004820152601960248201527f496e76616c6964207072696365207769746820636f75706f6e0000000000000060448201526064016103f7565b60006109b7828d8d6106da565b905060006109c5828461123e565b6001549091506109de906001600160a01b031682610d23565b610a1260058e8e6040516109f39291906111d9565b908152604051908190036020019020546001600160a01b031683610d23565b50505050610a87565b610a23610b21565b3414610a715760405162461bcd60e51b815260206004820152600d60248201527f496e76616c69642070726963650000000000000000000000000000000000000060448201526064016103f7565b600154610a87906001600160a01b031634610d23565b6003546040517f80450bf9000000000000000000000000000000000000000000000000000000008152650100000000009091046001600160a01b0316906380450bf990610ae4908a908a908a908a908a908a908a906004016112c3565b600060405180830381600087803b158015610afe57600080fd5b505af1158015610b12573d6000803e3d6000fd5b50505050505050505050505050565b6000610b2b610540565b600254610b4090670de0b6b3a7640000611221565b610b4a91906111ff565b610b5c90670de0b6b3a7640000611221565b905090565b60008060008060058686604051610b799291906111d9565b908152604051908190036020018120546001600160a01b031690600690610ba390899089906111d9565b9081526040519081900360200181205460ff1690600790610bc7908a908a906111d9565b9081526040519081900360200181205460ff1690600890610beb908b908b906111d9565b90815260405190819003602001902054929650909450925060ff16905092959194509250565b610c19610c75565b600255565b610c26610c75565b6001600160a01b038116610c69576040517f1e4fbdf7000000000000000000000000000000000000000000000000000000008152600060048201526024016103f7565b610c7281610cbb565b50565b6000546001600160a01b031633146106d8576040517f118cdaa70000000000000000000000000000000000000000000000000000000081523360048201526024016103f7565b600080546001600160a01b038381167fffffffffffffffffffffffff0000000000000000000000000000000000000000831681178455604051919092169283917f8be0079c531659141344cd1fd0a4f28419497f9722a3daafe3b4186f6b6457e09190a35050565b80471015610d66576040517fcf479181000000000000000000000000000000000000000000000000000000008152476004820152602481018290526044016103f7565b600080836001600160a01b03168360405160006040518083038185875af1925050503d8060008114610db4576040519150601f19603f3d011682016040523d82523d6000602084013e610db9565b606091505b509150915081610dcc57610dcc81610dd2565b50505050565b805115610de25780518082602001fd5b6040517fd6bda27500000000000000000000000000000000000000000000000000000000815260040160405180910390fd5b80356001600160a01b0381168114610e2b57600080fd5b919050565b60008083601f840112610e4257600080fd5b50813567ffffffffffffffff811115610e5a57600080fd5b602083019150836020828501011115610e7257600080fd5b9250929050565b600080600060408486031215610e8e57600080fd5b610e9784610e14565b9250602084013567ffffffffffffffff811115610eb357600080fd5b610ebf86828701610e30565b9497909650939450505050565b8060030b8114610c7257600080fd5b803560ff81168114610e2b57600080fd5b60008060408385031215610eff57600080fd5b8235610f0a81610ecc565b9150610f1860208401610edb565b90509250929050565b600080600060408486031215610f3657600080fd5b833567ffffffffffffffff811115610f4d57600080fd5b610f5986828701610e30565b909790965060209590950135949350505050565b60008060008060008060a08789031215610f8657600080fd5b863567ffffffffffffffff811115610f9d57600080fd5b610fa989828a01610e30565b9097509550610fbc905060208801610e14565b9350610fca60408801610edb565b9250610fd860608801610edb565b9150610fe660808801610edb565b90509295509295509295565b60006020828403121561100457600080fd5b61100d82610e14565b9392505050565b60008060006040848603121561102957600080fd5b83359250602084013567ffffffffffffffff811115610eb357600080fd5b634e487b7160e01b600052604160045260246000fd5b803561ffff81168114610e2b57600080fd5b60008060008060008060008060006101408a8c03121561108e57600080fd5b893567ffffffffffffffff8111156110a557600080fd5b6110b18c828d01610e30565b909a5098506110c4905060208b01610e14565b96506110d260408b01610e14565b95506110e060608b01610edb565b945060808a013593506110f560a08b01610edb565b925060c08a0135915060ff8a018b1361110d57600080fd5b6040516060810181811067ffffffffffffffff8211171561113057611130611047565b604052806101408c018d81111561114657600080fd5b60e08d015b8181101561116a5761115c8161105d565b83526020928301920161114b565b505050809150509295985092959850929598565b6000806020838503121561119157600080fd5b823567ffffffffffffffff8111156111a857600080fd5b6111b485828601610e30565b90969095509350505050565b6000602082840312156111d257600080fd5b5035919050565b8183823760009101908152919050565b634e487b7160e01b600052601160045260246000fd5b60008261121c57634e487b7160e01b600052601260045260246000fd5b500490565b8082028115828204841417611238576112386111e9565b92915050565b81810381811115611238576112386111e9565b6000806040838503121561126457600080fd5b82518060070b811461127557600080fd5b602084015190925061128681610ecc565b809150509250929050565b6000602082840312156112a357600080fd5b5051919050565b60ff8281168282160390811115611238576112386111e9565b6001600160a01b0388811682528716602082015260ff8681166040830152606082018690528416608082015260a08101839052610120810160c082018360005b600381101561132657815161ffff16835260209283019290910190600101611303565b5050509897505050505050505056fea2646970667358221220caf942b7bbd49236b626e3129c86ac25ff6c0114e6df24c344f81527b80969f664736f6c634300081c0033",
  "linkReferences": {},
  "deployedLinkReferences": {}
}