{
  "_format": "hh-sol-artifact-1",
  "contractName": "NFTSale",
  "sourceName": "contracts/NFTSale.sol",
  "abi": [
    {
      "inputs": [
        {
          "internalType": "uint256",
          "name": "_USDcost",
          "type": "uint256"
        },
        {
          "internalType": "address",
          "name": "_priceFeedContract",
          "type": "address"
        }
      ],
      "stateMutability": "nonpayable",
      "type": "constructor"
    },
    {
      "inputs": [],
      "name": "FailedCall",
      "type": "error"
    },
    {
      "inputs": [
        {
          "internalType": "uint256",
          "name": "balance",
          "type": "uint256"
        },
        {
          "internalType": "uint256",
          "name": "needed",
          "type": "uint256"
        }
      ],
      "name": "InsufficientBalance",
      "type": "error"
    },
    {
      "inputs": [
        {
          "internalType": "address",
          "name": "owner",
          "type": "address"
        }
      ],
      "name": "OwnableInvalidOwner",
      "type": "error"
    },
    {
      "inputs": [
        {
          "internalType": "address",
          "name": "account",
          "type": "address"
        }
      ],
      "name": "OwnableUnauthorizedAccount",
      "type": "error"
    },
    {
      "anonymous": false,
      "inputs": [
        {
          "indexed": true,
          "internalType": "address",
          "name": "previousOwner",
          "type": "address"
        },
        {
          "indexed": true,
          "internalType": "address",
          "name": "newOwner",
          "type": "address"
        }
      ],
      "name": "OwnershipTransferred",
      "type": "event"
    },
    {
      "inputs": [
        {
          "internalType": "string",
          "name": "coupon",
          "type": "string"
        },
        {
          "internalType": "address",
          "name": "to",
          "type": "address"
        },
        {
          "internalType": "address",
          "name": "ERC20Address",
          "type": "address"
        },
        {
          "internalType": "uint8",
          "name": "winnerPrizeShare",
          "type": "uint8"
        },
        {
          "internalType": "uint256",
          "name": "diceRollCost",
          "type": "uint256"
        },
        {
          "internalType": "uint8",
          "name": "houseEdge",
          "type": "uint8"
        },
        {
          "internalType": "uint256",
          "name": "revealCompensation",
          "type": "uint256"
        },
        {
          "internalType": "uint16[3]",
          "name": "betParams",
          "type": "uint16[3]"
        }
      ],
      "name": "buyNFT",
      "outputs": [],
      "stateMutability": "payable",
      "type": "function"
    },
    {
      "inputs": [],
      "name": "freeMint",
      "outputs": [
        {
          "internalType": "uint32",
          "name": "",
          "type": "uint32"
        }
      ],
      "stateMutability": "view",
      "type": "function"
    },
    {
      "inputs": [
        {
          "internalType": "string",
          "name": "coupon",
          "type": "string"
        }
      ],
      "name": "getCoupon",
      "outputs": [
        {
          "internalType": "address",
          "name": "",
          "type": "address"
        },
        {
          "internalType": "uint8",
          "name": "",
          "type": "uint8"
        },
        {
          "internalType": "uint8",
          "name": "",
          "type": "uint8"
        },
        {
          "internalType": "uint8",
          "name": "",
          "type": "uint8"
        }
      ],
      "stateMutability": "view",
      "type": "function"
    },
    {
      "inputs": [],
      "name": "getExpectedPriceInFlow",
      "outputs": [
        {
          "internalType": "uint256",
          "name": "",
          "type": "uint256"
        }
      ],
      "stateMutability": "view",
      "type": "function"
    },
    {
      "inputs": [
        {
          "internalType": "string",
          "name": "coupon",
          "type": "string"
        },
        {
          "internalType": "uint256",
          "name": "flowPrice",
          "type": "uint256"
        }
      ],
      "name": "getReducedPrice",
      "outputs": [
        {
          "internalType": "uint256",
          "name": "",
          "type": "uint256"
        }
      ],
      "stateMutability": "view",
      "type": "function"
    },
    {
      "inputs": [],
      "name": "getUSDPriceInFlow",
      "outputs": [
        {
          "internalType": "uint256",
          "name": "",
          "type": "uint256"
        }
      ],
      "stateMutability": "view",
      "type": "function"
    },
    {
      "inputs": [
        {
          "internalType": "uint256",
          "name": "newPrice",
          "type": "uint256"
        },
        {
          "internalType": "string",
          "name": "coupon",
          "type": "string"
        }
      ],
      "name": "getcommission",
      "outputs": [
        {
          "internalType": "uint256",
          "name": "",
          "type": "uint256"
        }
      ],
      "stateMutability": "view",
      "type": "function"
    },
    {
      "inputs": [],
      "name": "namehasher",
      "outputs": [
        {
          "internalType": "bytes32",
          "name": "",
          "type": "bytes32"
        }
      ],
      "stateMutability": "nonpayable",
      "type": "function"
    },
    {
      "inputs": [],
      "name": "owner",
      "outputs": [
        {
          "internalType": "address",
          "name": "",
          "type": "address"
        }
      ],
      "stateMutability": "view",
      "type": "function"
    },
    {
      "inputs": [],
      "name": "renounceOwnership",
      "outputs": [],
      "stateMutability": "nonpayable",
      "type": "function"
    },
    {
      "inputs": [
        {
          "internalType": "string",
          "name": "coupon",
          "type": "string"
        },
        {
          "internalType": "address",
          "name": "recipient",
          "type": "address"
        },
        {
          "internalType": "uint8",
          "name": "percentageOff",
          "type": "uint8"
        },
        {
          "internalType": "uint8",
          "name": "commission",
          "type": "uint8"
        },
        {
          "internalType": "uint8",
          "name": "_couponUsesLeft",
          "type": "uint8"
        }
      ],
      "name": "setCoupon",
      "outputs": [],
      "stateMutability": "nonpayable",
      "type": "function"
    },
    {
      "inputs": [
        {
          "internalType": "int32",
          "name": "_expectedExpo",
          "type": "int32"
        },
        {
          "internalType": "uint8",
          "name": "_usedExpo",
          "type": "uint8"
        }
      ],
      "name": "setExpo",
      "outputs": [],
      "stateMutability": "nonpayable",
      "type": "function"
    },
    {
      "inputs": [
        {
          "internalType": "address",
          "name": "to",
          "type": "address"
        }
      ],
      "name": "setNFTAddress",
      "outputs": [],
      "stateMutability": "nonpayable",
      "type": "function"
    },
    {
      "inputs": [
        {
          "internalType": "uint256",
          "name": "to",
          "type": "uint256"
        }
      ],
      "name": "setUSDcost",
      "outputs": [],
      "stateMutability": "nonpayable",
      "type": "function"
    },
    {
      "inputs": [
        {
          "internalType": "address",
          "name": "newOwner",
          "type": "address"
        }
      ],
      "name": "transferOwnership",
      "outputs": [],
      "stateMutability": "nonpayable",
      "type": "function"
    },
    {
      "inputs": [
        {
          "internalType": "address",
          "name": "addr",
          "type": "address"
        },
        {
          "internalType": "string",
          "name": "coupon",
          "type": "string"
        }
      ],
      "name": "usedCouponAlready",
      "outputs": [
        {
          "internalType": "bool",
          "name": "",
          "type": "bool"
        }
      ],
      "stateMutability": "view",
      "type": "function"
    }
  ],
  "bytecode": "0x608060405234801561001057600080fd5b5060405161157638038061157683398101604081905261002f9161016b565b338061005657604051631e4fbdf760e01b8152600060048201526024015b60405180910390fd5b61005f8161011b565b506002829055600180546001600160a01b031916331790556001600160a01b0381166100cd5760405162461bcd60e51b815260206004820152601660248201527f50726963652066656564206d7573742062652073657400000000000000000000604482015260640161004d565b600480546001600160a01b0319166001600160a01b0392909216919091179055506003805464ffffffffff19166408fffffff8179055600a80546103e863ffffffff199091161790556101a8565b600080546001600160a01b038381166001600160a01b0319831681178455604051919092169283917f8be0079c531659141344cd1fd0a4f28419497f9722a3daafe3b4186f6b6457e09190a35050565b6000806040838503121561017e57600080fd5b825160208401519092506001600160a01b038116811461019d57600080fd5b809150509250929050565b6113bf806101b76000396000f3fe6080604052600436106100f35760003560e01c8063715018a61161008a578063aaa98e9111610059578063aaa98e9114610284578063d563544414610299578063ecd5c441146102ec578063f2fde38b1461030c57600080fd5b8063715018a6146102145780638da5cb5b146102295780639442c50314610251578063aa02e0cd1461027157600080fd5b8063402ce783116100c6578063402ce7831461018d5780635b70ea9f146101ad57806369d03738146101df57806370a5d41c146101ff57600080fd5b80631eceac1c146100f857806321f821831461012d578063320cf4261461014f5780633d3dbb3b1461016d575b600080fd5b34801561010457600080fd5b50610118610113366004610ecd565b61032c565b60405190151581526020015b60405180910390f35b34801561013957600080fd5b5061014d610148366004610f40565b610370565b005b34801561015b57600080fd5b5060005b604051908152602001610124565b34801561017957600080fd5b5061015f610188366004610f75565b6103a3565b34801561019957600080fd5b5061014d6101a8366004610fc1565b6103f5565b3480156101b957600080fd5b50600a546101ca9063ffffffff1681565b60405163ffffffff9091168152602001610124565b3480156101eb57600080fd5b5061014d6101fa366004611046565b61054d565b34801561020b57600080fd5b5061015f610598565b34801561022057600080fd5b5061014d61071a565b34801561023557600080fd5b506000546040516001600160a01b039091168152602001610124565b34801561025d57600080fd5b5061015f61026c366004611068565b61072e565b61014d61027f3660046110c3565b610772565b34801561029057600080fd5b5061015f610b75565b3480156102a557600080fd5b506102b96102b43660046111d2565b610bb5565b604080516001600160a01b03909516855260ff938416602086015291831691840191909152166060820152608001610124565b3480156102f857600080fd5b5061014d610307366004611214565b610c65565b34801561031857600080fd5b5061014d610327366004611046565b610c72565b6001600160a01b0383166000908152600960205260408082209051610354908590859061122d565b9081526040519081900360200190205460ff1690509392505050565b610378610cc9565b6003805460ff9092166401000000000264ffffffffff1990921663ffffffff90931692909217179055565b600080600685856040516103b892919061122d565b9081526040519081900360200190205460ff166103d6606485611253565b6103e09190611275565b90506103ec8184611292565b95945050505050565b6103fd610cc9565b6001600160a01b0384166104585760405162461bcd60e51b815260206004820152601160248201527f696e76616c696420726563697069656e7400000000000000000000000000000060448201526064015b60405180910390fd5b836005878760405161046b92919061122d565b908152602001604051809103902060006101000a8154816001600160a01b0302191690836001600160a01b0316021790555082600687876040516104b092919061122d565b908152602001604051809103902060006101000a81548160ff021916908360ff16021790555081600787876040516104e992919061122d565b908152602001604051809103902060006101000a81548160ff021916908360ff160217905550806008878760405161052292919061122d565b908152604051908190036020019020805460ff9290921660ff19909216919091179055505050505050565b610555610cc9565b600380546001600160a01b0390921665010000000000027fffffffffffffff0000000000000000000000000000000000000000ffffffffff909216919091179055565b6000806000600460009054906101000a90046001600160a01b03166001600160a01b03166398d5fdca6040518163ffffffff1660e01b81526004016040805180830381865afa1580156105ef573d6000803e3d6000fd5b505050506040513d601f19601f8201168201806040525081019061061391906112a5565b6003805492945090925082810b91900b146106705760405162461bcd60e51b815260206004820181905260248201527f546865206578706f6e656e74696174696f6e20697320756e6578706563746564604482015260640161044f565b600480546003546040517fd41ac92300000000000000000000000000000000000000000000000000000000815267ffffffffffffffff861693810193909352640100000000900460ff1660248301526001600160a01b03169063d41ac92390604401602060405180830381865afa1580156106ef573d6000803e3d6000fd5b505050506040513d601f19601f8201168201806040525081019061071391906112e5565b9250505090565b610722610cc9565b61072c6000610d0f565b565b60006007838360405161074292919061122d565b9081526040519081900360200190205460ff16610760606486611253565b61076a9190611275565b949350505050565b8715610a6f5760006001600160a01b031660058a8a60405161079592919061122d565b908152604051908190036020019020546001600160a01b0316036107fb5760405162461bcd60e51b815260206004820152600e60248201527f496e76616c696420636f75706f6e000000000000000000000000000000000000604482015260640161044f565b6008898960405161080d92919061122d565b9081526040519081900360200190205460ff1660000361086f5760405162461bcd60e51b815260206004820152601260248201527f436f75706f6e2077617320757365642075700000000000000000000000000000604482015260640161044f565b3360009081526009602052604090819020905161088f908b908b9061122d565b9081526040519081900360200190205460ff16156108ef5760405162461bcd60e51b815260206004820152601b60248201527f4164647265737320616c7265616479207573656420636f75706f6e0000000000604482015260640161044f565b600160088a8a60405161090392919061122d565b908152604051908190036020019020805460009061092590849060ff166112fe565b92506101000a81548160ff021916908360ff160217905550600160096000336001600160a01b03166001600160a01b031681526020019081526020016000208a8a60405161097492919061122d565b908152604051908190036020019020805491151560ff19909216919091179055600061099e610b75565b905060006109ad8b8b846103a3565b90503481146109fe5760405162461bcd60e51b815260206004820152601960248201527f496e76616c6964207072696365207769746820636f75706f6e00000000000000604482015260640161044f565b6000610a0b828d8d61072e565b90506000610a198284611292565b600154909150610a32906001600160a01b031682610d77565b610a6660058e8e604051610a4792919061122d565b908152604051908190036020019020546001600160a01b031683610d77565b50505050610adb565b610a77610b75565b3414610ac55760405162461bcd60e51b815260206004820152600d60248201527f496e76616c696420707269636500000000000000000000000000000000000000604482015260640161044f565b600154610adb906001600160a01b031634610d77565b6003546040517f80450bf9000000000000000000000000000000000000000000000000000000008152650100000000009091046001600160a01b0316906380450bf990610b38908a908a908a908a908a908a908a90600401611317565b600060405180830381600087803b158015610b5257600080fd5b505af1158015610b66573d6000803e3d6000fd5b50505050505050505050505050565b6000610b7f610598565b600254610b9490670de0b6b3a7640000611275565b610b9e9190611253565b610bb090670de0b6b3a7640000611275565b905090565b60008060008060058686604051610bcd92919061122d565b908152604051908190036020018120546001600160a01b031690600690610bf7908990899061122d565b9081526040519081900360200181205460ff1690600790610c1b908a908a9061122d565b9081526040519081900360200181205460ff1690600890610c3f908b908b9061122d565b90815260405190819003602001902054929650909450925060ff16905092959194509250565b610c6d610cc9565b600255565b610c7a610cc9565b6001600160a01b038116610cbd576040517f1e4fbdf70000000000000000000000000000000000000000000000000000000081526000600482015260240161044f565b610cc681610d0f565b50565b6000546001600160a01b0316331461072c576040517f118cdaa700000000000000000000000000000000000000000000000000000000815233600482015260240161044f565b600080546001600160a01b038381167fffffffffffffffffffffffff0000000000000000000000000000000000000000831681178455604051919092169283917f8be0079c531659141344cd1fd0a4f28419497f9722a3daafe3b4186f6b6457e09190a35050565b80471015610dba576040517fcf4791810000000000000000000000000000000000000000000000000000000081524760048201526024810182905260440161044f565b600080836001600160a01b03168360405160006040518083038185875af1925050503d8060008114610e08576040519150601f19603f3d011682016040523d82523d6000602084013e610e0d565b606091505b509150915081610e2057610e2081610e26565b50505050565b805115610e365780518082602001fd5b6040517fd6bda27500000000000000000000000000000000000000000000000000000000815260040160405180910390fd5b80356001600160a01b0381168114610e7f57600080fd5b919050565b60008083601f840112610e9657600080fd5b50813567ffffffffffffffff811115610eae57600080fd5b602083019150836020828501011115610ec657600080fd5b9250929050565b600080600060408486031215610ee257600080fd5b610eeb84610e68565b9250602084013567ffffffffffffffff811115610f0757600080fd5b610f1386828701610e84565b9497909650939450505050565b8060030b8114610cc657600080fd5b803560ff81168114610e7f57600080fd5b60008060408385031215610f5357600080fd5b8235610f5e81610f20565b9150610f6c60208401610f2f565b90509250929050565b600080600060408486031215610f8a57600080fd5b833567ffffffffffffffff811115610fa157600080fd5b610fad86828701610e84565b909790965060209590950135949350505050565b60008060008060008060a08789031215610fda57600080fd5b863567ffffffffffffffff811115610ff157600080fd5b610ffd89828a01610e84565b9097509550611010905060208801610e68565b935061101e60408801610f2f565b925061102c60608801610f2f565b915061103a60808801610f2f565b90509295509295509295565b60006020828403121561105857600080fd5b61106182610e68565b9392505050565b60008060006040848603121561107d57600080fd5b83359250602084013567ffffffffffffffff811115610f0757600080fd5b634e487b7160e01b600052604160045260246000fd5b803561ffff81168114610e7f57600080fd5b60008060008060008060008060006101408a8c0312156110e257600080fd5b893567ffffffffffffffff8111156110f957600080fd5b6111058c828d01610e84565b909a509850611118905060208b01610e68565b965061112660408b01610e68565b955061113460608b01610f2f565b945060808a0135935061114960a08b01610f2f565b925060c08a0135915060ff8a018b1361116157600080fd5b6040516060810181811067ffffffffffffffff821117156111845761118461109b565b604052806101408c018d81111561119a57600080fd5b60e08d015b818110156111be576111b0816110b1565b83526020928301920161119f565b505050809150509295985092959850929598565b600080602083850312156111e557600080fd5b823567ffffffffffffffff8111156111fc57600080fd5b61120885828601610e84565b90969095509350505050565b60006020828403121561122657600080fd5b5035919050565b8183823760009101908152919050565b634e487b7160e01b600052601160045260246000fd5b60008261127057634e487b7160e01b600052601260045260246000fd5b500490565b808202811582820484141761128c5761128c61123d565b92915050565b8181038181111561128c5761128c61123d565b600080604083850312156112b857600080fd5b82518060070b81146112c957600080fd5b60208401519092506112da81610f20565b809150509250929050565b6000602082840312156112f757600080fd5b5051919050565b60ff828116828216039081111561128c5761128c61123d565b6001600160a01b0388811682528716602082015260ff8681166040830152606082018690528416608082015260a08101839052610120810160c082018360005b600381101561137a57815161ffff16835260209283019290910190600101611357565b5050509897505050505050505056fea264697066735822122067ddf15e6e94e82bbea0183c2aa9bd41c4eb4f5273a702ca9c3dde2f7ac51c7c64736f6c634300081c0033",
  "linkReferences": {},
  "deployedLinkReferences": {}
}