{
  "_format": "hh-sol-artifact-1",
  "contractName": "NFTSale",
  "sourceName": "contracts/NFTSale.sol",
  "abi": [
    {
      "inputs": [
        {
          "internalType": "uint256",
          "name": "_USDcost",
          "type": "uint256"
        },
        {
          "internalType": "address",
          "name": "_priceFeedContract",
          "type": "address"
        }
      ],
      "stateMutability": "nonpayable",
      "type": "constructor"
    },
    {
      "inputs": [],
      "name": "FailedCall",
      "type": "error"
    },
    {
      "inputs": [
        {
          "internalType": "uint256",
          "name": "balance",
          "type": "uint256"
        },
        {
          "internalType": "uint256",
          "name": "needed",
          "type": "uint256"
        }
      ],
      "name": "InsufficientBalance",
      "type": "error"
    },
    {
      "inputs": [
        {
          "internalType": "address",
          "name": "owner",
          "type": "address"
        }
      ],
      "name": "OwnableInvalidOwner",
      "type": "error"
    },
    {
      "inputs": [
        {
          "internalType": "address",
          "name": "account",
          "type": "address"
        }
      ],
      "name": "OwnableUnauthorizedAccount",
      "type": "error"
    },
    {
      "anonymous": false,
      "inputs": [
        {
          "indexed": true,
          "internalType": "address",
          "name": "previousOwner",
          "type": "address"
        },
        {
          "indexed": true,
          "internalType": "address",
          "name": "newOwner",
          "type": "address"
        }
      ],
      "name": "OwnershipTransferred",
      "type": "event"
    },
    {
      "inputs": [
        {
          "internalType": "string[2]",
          "name": "stringParams",
          "type": "string[2]"
        },
        {
          "internalType": "address",
          "name": "to",
          "type": "address"
        },
        {
          "internalType": "address",
          "name": "ERC20Address",
          "type": "address"
        },
        {
          "internalType": "uint8",
          "name": "winnerPrizeShare",
          "type": "uint8"
        },
        {
          "internalType": "uint256",
          "name": "diceRollCost",
          "type": "uint256"
        },
        {
          "internalType": "uint8",
          "name": "houseEdge",
          "type": "uint8"
        },
        {
          "internalType": "uint256",
          "name": "revealCompensation",
          "type": "uint256"
        },
        {
          "internalType": "uint16[3]",
          "name": "betParams",
          "type": "uint16[3]"
        }
      ],
      "name": "buyNFT",
      "outputs": [],
      "stateMutability": "payable",
      "type": "function"
    },
    {
      "inputs": [
        {
          "internalType": "string",
          "name": "coupon",
          "type": "string"
        }
      ],
      "name": "getCoupon",
      "outputs": [
        {
          "internalType": "address",
          "name": "",
          "type": "address"
        },
        {
          "internalType": "uint8",
          "name": "",
          "type": "uint8"
        },
        {
          "internalType": "uint8",
          "name": "",
          "type": "uint8"
        },
        {
          "internalType": "uint8",
          "name": "",
          "type": "uint8"
        }
      ],
      "stateMutability": "view",
      "type": "function"
    },
    {
      "inputs": [],
      "name": "getExpectedPriceInFlow",
      "outputs": [
        {
          "internalType": "uint256",
          "name": "",
          "type": "uint256"
        }
      ],
      "stateMutability": "view",
      "type": "function"
    },
    {
      "inputs": [
        {
          "internalType": "string",
          "name": "coupon",
          "type": "string"
        },
        {
          "internalType": "uint256",
          "name": "flowPrice",
          "type": "uint256"
        }
      ],
      "name": "getReducedPrice",
      "outputs": [
        {
          "internalType": "uint256",
          "name": "",
          "type": "uint256"
        }
      ],
      "stateMutability": "view",
      "type": "function"
    },
    {
      "inputs": [],
      "name": "getUSDPriceInFlow",
      "outputs": [
        {
          "internalType": "uint256",
          "name": "",
          "type": "uint256"
        }
      ],
      "stateMutability": "view",
      "type": "function"
    },
    {
      "inputs": [
        {
          "internalType": "uint256",
          "name": "newPrice",
          "type": "uint256"
        },
        {
          "internalType": "string",
          "name": "coupon",
          "type": "string"
        }
      ],
      "name": "getcommission",
      "outputs": [
        {
          "internalType": "uint256",
          "name": "",
          "type": "uint256"
        }
      ],
      "stateMutability": "view",
      "type": "function"
    },
    {
      "inputs": [],
      "name": "owner",
      "outputs": [
        {
          "internalType": "address",
          "name": "",
          "type": "address"
        }
      ],
      "stateMutability": "view",
      "type": "function"
    },
    {
      "inputs": [],
      "name": "renounceOwnership",
      "outputs": [],
      "stateMutability": "nonpayable",
      "type": "function"
    },
    {
      "inputs": [
        {
          "internalType": "string",
          "name": "coupon",
          "type": "string"
        },
        {
          "internalType": "address",
          "name": "recipient",
          "type": "address"
        },
        {
          "internalType": "uint8",
          "name": "percentageOff",
          "type": "uint8"
        },
        {
          "internalType": "uint8",
          "name": "commission",
          "type": "uint8"
        },
        {
          "internalType": "uint8",
          "name": "_couponUsesLeft",
          "type": "uint8"
        }
      ],
      "name": "setCoupon",
      "outputs": [],
      "stateMutability": "nonpayable",
      "type": "function"
    },
    {
      "inputs": [
        {
          "internalType": "int32",
          "name": "_expectedExpo",
          "type": "int32"
        },
        {
          "internalType": "uint8",
          "name": "_usedExpo",
          "type": "uint8"
        }
      ],
      "name": "setExpo",
      "outputs": [],
      "stateMutability": "nonpayable",
      "type": "function"
    },
    {
      "inputs": [
        {
          "internalType": "address",
          "name": "to",
          "type": "address"
        }
      ],
      "name": "setNFTAddress",
      "outputs": [],
      "stateMutability": "nonpayable",
      "type": "function"
    },
    {
      "inputs": [
        {
          "internalType": "uint256",
          "name": "to",
          "type": "uint256"
        }
      ],
      "name": "setUSDcost",
      "outputs": [],
      "stateMutability": "nonpayable",
      "type": "function"
    },
    {
      "inputs": [
        {
          "internalType": "address",
          "name": "newOwner",
          "type": "address"
        }
      ],
      "name": "transferOwnership",
      "outputs": [],
      "stateMutability": "nonpayable",
      "type": "function"
    },
    {
      "inputs": [
        {
          "internalType": "address",
          "name": "addr",
          "type": "address"
        },
        {
          "internalType": "string",
          "name": "coupon",
          "type": "string"
        }
      ],
      "name": "usedCouponAlready",
      "outputs": [
        {
          "internalType": "bool",
          "name": "",
          "type": "bool"
        }
      ],
      "stateMutability": "view",
      "type": "function"
    }
  ],
  "bytecode": "0x608060405234801561001057600080fd5b506040516115c63803806115c683398101604081905261002f91610158565b338061005657604051631e4fbdf760e01b8152600060048201526024015b60405180910390fd5b61005f81610108565b506002829055600180546001600160a01b031916331790556001600160a01b0381166100cd5760405162461bcd60e51b815260206004820152601660248201527f50726963652066656564206d7573742062652073657400000000000000000000604482015260640161004d565b600480546001600160a01b0319166001600160a01b0392909216919091179055506003805464ffffffffff19166408fffffff8179055610195565b600080546001600160a01b038381166001600160a01b0319831681178455604051919092169283917f8be0079c531659141344cd1fd0a4f28419497f9722a3daafe3b4186f6b6457e09190a35050565b6000806040838503121561016b57600080fd5b825160208401519092506001600160a01b038116811461018a57600080fd5b809150509250929050565b611422806101a46000396000f3fe6080604052600436106100dd5760003560e01c8063715018a61161007f578063aaa98e9111610059578063aaa98e911461022c578063d563544414610241578063ecd5c44114610294578063f2fde38b146102b457600080fd5b8063715018a6146101cf5780638da5cb5b146101e45780639442c5031461020c57600080fd5b80633d3dbb3b116100bb5780633d3dbb3b1461014c578063402ce7831461017a57806369d037381461019a57806370a5d41c146101ba57600080fd5b80631eceac1c146100e25780631fffadcb1461011757806321f821831461012c575b600080fd5b3480156100ee57600080fd5b506101026100fd366004610ea3565b6102d4565b60405190151581526020015b60405180910390f35b61012a610125366004610f2f565b610318565b005b34801561013857600080fd5b5061012a61014736600461104c565b61074e565b34801561015857600080fd5b5061016c610167366004611081565b610781565b60405190815260200161010e565b34801561018657600080fd5b5061012a6101953660046110cd565b6107d3565b3480156101a657600080fd5b5061012a6101b5366004611152565b610926565b3480156101c657600080fd5b5061016c610971565b3480156101db57600080fd5b5061012a610af3565b3480156101f057600080fd5b506000546040516001600160a01b03909116815260200161010e565b34801561021857600080fd5b5061016c610227366004611174565b610b07565b34801561023857600080fd5b5061016c610b4b565b34801561024d57600080fd5b5061026161025c3660046111a7565b610b8b565b604080516001600160a01b03909516855260ff93841660208601529183169184019190915216606082015260800161010e565b3480156102a057600080fd5b5061012a6102af3660046111e9565b610c3b565b3480156102c057600080fd5b5061012a6102cf366004611152565b610c48565b6001600160a01b03831660009081526009602052604080822090516102fc9085908590611202565b9081526040519081900360200190205460ff1690509392505050565b3660006103258a80611212565b909250905036600061033a60208d018d611212565b909250905080156106415760006001600160a01b031660058383604051610362929190611202565b908152604051908190036020019020546001600160a01b0316036103cd5760405162461bcd60e51b815260206004820152600e60248201527f496e76616c696420636f75706f6e00000000000000000000000000000000000060448201526064015b60405180910390fd5b600882826040516103df929190611202565b9081526040519081900360200190205460ff166000036104415760405162461bcd60e51b815260206004820152601260248201527f436f75706f6e207761732075736564207570000000000000000000000000000060448201526064016103c4565b336000908152600960205260409081902090516104619084908490611202565b9081526040519081900360200190205460ff16156104c15760405162461bcd60e51b815260206004820152601b60248201527f4164647265737320616c7265616479207573656420636f75706f6e000000000060448201526064016103c4565b6001600883836040516104d5929190611202565b90815260405190819003602001902080546000906104f790849060ff1661126f565b92506101000a81548160ff021916908360ff160217905550600160096000336001600160a01b03166001600160a01b031681526020019081526020016000208383604051610546929190611202565b908152604051908190036020019020805491151560ff199092169190911790556000610570610b4b565b9050600061057f848484610781565b90503481146105d05760405162461bcd60e51b815260206004820152601960248201527f496e76616c6964207072696365207769746820636f75706f6e0000000000000060448201526064016103c4565b60006105dd828686610b07565b905060006105eb828461128e565b600154909150610604906001600160a01b031682610c9f565b61063860058787604051610619929190611202565b908152604051908190036020019020546001600160a01b031683610c9f565b505050506106ad565b610649610b4b565b34146106975760405162461bcd60e51b815260206004820152600d60248201527f496e76616c69642070726963650000000000000000000000000000000000000060448201526064016103c4565b6001546106ad906001600160a01b031634610c9f565b6003546040517f789b7489000000000000000000000000000000000000000000000000000000008152650100000000009091046001600160a01b03169063789b74899061070e908e908e908e908e908e908e908e908e908e906004016112ca565b600060405180830381600087803b15801561072857600080fd5b505af115801561073c573d6000803e3d6000fd5b50505050505050505050505050505050565b610756610d4e565b6003805460ff9092166401000000000264ffffffffff1990921663ffffffff90931692909217179055565b60008060068585604051610796929190611202565b9081526040519081900360200190205460ff166107b460648561135a565b6107be919061137c565b90506107ca818461128e565b95945050505050565b6107db610d4e565b6001600160a01b0384166108315760405162461bcd60e51b815260206004820152601160248201527f696e76616c696420726563697069656e7400000000000000000000000000000060448201526064016103c4565b8360058787604051610844929190611202565b908152602001604051809103902060006101000a8154816001600160a01b0302191690836001600160a01b031602179055508260068787604051610889929190611202565b908152602001604051809103902060006101000a81548160ff021916908360ff16021790555081600787876040516108c2929190611202565b908152602001604051809103902060006101000a81548160ff021916908360ff16021790555080600887876040516108fb929190611202565b908152604051908190036020019020805460ff9290921660ff19909216919091179055505050505050565b61092e610d4e565b600380546001600160a01b0390921665010000000000027fffffffffffffff0000000000000000000000000000000000000000ffffffffff909216919091179055565b6000806000600460009054906101000a90046001600160a01b03166001600160a01b03166398d5fdca6040518163ffffffff1660e01b81526004016040805180830381865afa1580156109c8573d6000803e3d6000fd5b505050506040513d601f19601f820116820180604052508101906109ec9190611393565b6003805492945090925082810b91900b14610a495760405162461bcd60e51b815260206004820181905260248201527f546865206578706f6e656e74696174696f6e20697320756e657870656374656460448201526064016103c4565b600480546003546040517fd41ac92300000000000000000000000000000000000000000000000000000000815267ffffffffffffffff861693810193909352640100000000900460ff1660248301526001600160a01b03169063d41ac92390604401602060405180830381865afa158015610ac8573d6000803e3d6000fd5b505050506040513d601f19601f82011682018060405250810190610aec91906113d3565b9250505090565b610afb610d4e565b610b056000610d94565b565b600060078383604051610b1b929190611202565b9081526040519081900360200190205460ff16610b3960648661135a565b610b43919061137c565b949350505050565b6000610b55610971565b600254610b6a90670de0b6b3a764000061137c565b610b74919061135a565b610b8690670de0b6b3a764000061137c565b905090565b60008060008060058686604051610ba3929190611202565b908152604051908190036020018120546001600160a01b031690600690610bcd9089908990611202565b9081526040519081900360200181205460ff1690600790610bf1908a908a90611202565b9081526040519081900360200181205460ff1690600890610c15908b908b90611202565b90815260405190819003602001902054929650909450925060ff16905092959194509250565b610c43610d4e565b600255565b610c50610d4e565b6001600160a01b038116610c93576040517f1e4fbdf7000000000000000000000000000000000000000000000000000000008152600060048201526024016103c4565b610c9c81610d94565b50565b80471015610ce2576040517fcf479181000000000000000000000000000000000000000000000000000000008152476004820152602481018290526044016103c4565b600080836001600160a01b03168360405160006040518083038185875af1925050503d8060008114610d30576040519150601f19603f3d011682016040523d82523d6000602084013e610d35565b606091505b509150915081610d4857610d4881610dfc565b50505050565b6000546001600160a01b03163314610b05576040517f118cdaa70000000000000000000000000000000000000000000000000000000081523360048201526024016103c4565b600080546001600160a01b038381167fffffffffffffffffffffffff0000000000000000000000000000000000000000831681178455604051919092169283917f8be0079c531659141344cd1fd0a4f28419497f9722a3daafe3b4186f6b6457e09190a35050565b805115610e0c5780518082602001fd5b6040517fd6bda27500000000000000000000000000000000000000000000000000000000815260040160405180910390fd5b80356001600160a01b0381168114610e5557600080fd5b919050565b60008083601f840112610e6c57600080fd5b50813567ffffffffffffffff811115610e8457600080fd5b602083019150836020828501011115610e9c57600080fd5b9250929050565b600080600060408486031215610eb857600080fd5b610ec184610e3e565b9250602084013567ffffffffffffffff811115610edd57600080fd5b610ee986828701610e5a565b9497909650939450505050565b803560ff81168114610e5557600080fd5b634e487b7160e01b600052604160045260246000fd5b803561ffff81168114610e5557600080fd5b600080600080600080600080610140898b031215610f4c57600080fd5b883567ffffffffffffffff811115610f6357600080fd5b8901604081018b1015610f7557600080fd5b9750610f8360208a01610e3e565b9650610f9160408a01610e3e565b9550610f9f60608a01610ef6565b945060808901359350610fb460a08a01610ef6565b925060c0890135915060ff89018a13610fcc57600080fd5b6040516060810181811067ffffffffffffffff82111715610fef57610fef610f07565b604052806101408b018c81111561100557600080fd5b60e08c015b818110156110295761101b81610f1d565b83526020928301920161100a565b505050809150509295985092959890939650565b8060030b8114610c9c57600080fd5b6000806040838503121561105f57600080fd5b823561106a8161103d565b915061107860208401610ef6565b90509250929050565b60008060006040848603121561109657600080fd5b833567ffffffffffffffff8111156110ad57600080fd5b6110b986828701610e5a565b909790965060209590950135949350505050565b60008060008060008060a087890312156110e657600080fd5b863567ffffffffffffffff8111156110fd57600080fd5b61110989828a01610e5a565b909750955061111c905060208801610e3e565b935061112a60408801610ef6565b925061113860608801610ef6565b915061114660808801610ef6565b90509295509295509295565b60006020828403121561116457600080fd5b61116d82610e3e565b9392505050565b60008060006040848603121561118957600080fd5b83359250602084013567ffffffffffffffff811115610edd57600080fd5b600080602083850312156111ba57600080fd5b823567ffffffffffffffff8111156111d157600080fd5b6111dd85828601610e5a565b90969095509350505050565b6000602082840312156111fb57600080fd5b5035919050565b8183823760009101908152919050565b6000808335601e1984360301811261122957600080fd5b83018035915067ffffffffffffffff82111561124457600080fd5b602001915036819003821315610e9c57600080fd5b634e487b7160e01b600052601160045260246000fd5b60ff828116828216039081111561128857611288611259565b92915050565b8181038181111561128857611288611259565b81835281816020850137506000828201602090810191909152601f909101601f19169091010190565b6001600160a01b038a1681526001600160a01b038916602082015260ff8816604082015286606082015260ff861660808201528460a0820152600060c082018560005b600381101561133057815161ffff1683526020928301929091019060010161130d565b50505061014061012083015261134b610140830184866112a1565b9b9a5050505050505050505050565b60008261137757634e487b7160e01b600052601260045260246000fd5b500490565b808202811582820484141761128857611288611259565b600080604083850312156113a657600080fd5b82518060070b81146113b757600080fd5b60208401519092506113c88161103d565b809150509250929050565b6000602082840312156113e557600080fd5b505191905056fea264697066735822122012d209ba791a78526b0ae63d5bc76638e85bed1dbf7d491a542bc8b4f8eb9bcb64736f6c634300081c0033",
  "linkReferences": {},
  "deployedLinkReferences": {}
}