{
  "_format": "hh-sol-artifact-1",
  "contractName": "NFTSale_v2",
  "sourceName": "contracts/NFTSaleV2.sol",
  "abi": [
    {
      "inputs": [
        {
          "internalType": "uint256",
          "name": "_flowCost",
          "type": "uint256"
        }
      ],
      "stateMutability": "nonpayable",
      "type": "constructor"
    },
    {
      "inputs": [],
      "name": "FailedCall",
      "type": "error"
    },
    {
      "inputs": [
        {
          "internalType": "uint256",
          "name": "balance",
          "type": "uint256"
        },
        {
          "internalType": "uint256",
          "name": "needed",
          "type": "uint256"
        }
      ],
      "name": "InsufficientBalance",
      "type": "error"
    },
    {
      "inputs": [
        {
          "internalType": "address",
          "name": "owner",
          "type": "address"
        }
      ],
      "name": "OwnableInvalidOwner",
      "type": "error"
    },
    {
      "inputs": [
        {
          "internalType": "address",
          "name": "account",
          "type": "address"
        }
      ],
      "name": "OwnableUnauthorizedAccount",
      "type": "error"
    },
    {
      "anonymous": false,
      "inputs": [
        {
          "indexed": true,
          "internalType": "address",
          "name": "previousOwner",
          "type": "address"
        },
        {
          "indexed": true,
          "internalType": "address",
          "name": "newOwner",
          "type": "address"
        }
      ],
      "name": "OwnershipTransferred",
      "type": "event"
    },
    {
      "inputs": [
        {
          "internalType": "string",
          "name": "name",
          "type": "string"
        },
        {
          "internalType": "string",
          "name": "coupon",
          "type": "string"
        },
        {
          "internalType": "address",
          "name": "erc20Address",
          "type": "address"
        },
        {
          "internalType": "uint8",
          "name": "winnerPrizeShare",
          "type": "uint8"
        },
        {
          "internalType": "uint256",
          "name": "diceRollCost",
          "type": "uint256"
        },
        {
          "internalType": "uint8",
          "name": "houseEdge",
          "type": "uint8"
        },
        {
          "internalType": "uint16",
          "name": "min",
          "type": "uint16"
        },
        {
          "internalType": "uint16",
          "name": "max",
          "type": "uint16"
        },
        {
          "internalType": "uint16",
          "name": "betType",
          "type": "uint16"
        }
      ],
      "name": "buyNFT",
      "outputs": [],
      "stateMutability": "payable",
      "type": "function"
    },
    {
      "inputs": [],
      "name": "flowCost",
      "outputs": [
        {
          "internalType": "uint256",
          "name": "",
          "type": "uint256"
        }
      ],
      "stateMutability": "view",
      "type": "function"
    },
    {
      "inputs": [
        {
          "internalType": "string",
          "name": "coupon",
          "type": "string"
        }
      ],
      "name": "getCoupon",
      "outputs": [
        {
          "internalType": "address",
          "name": "",
          "type": "address"
        },
        {
          "internalType": "uint8",
          "name": "",
          "type": "uint8"
        },
        {
          "internalType": "uint8",
          "name": "",
          "type": "uint8"
        },
        {
          "internalType": "uint8",
          "name": "",
          "type": "uint8"
        }
      ],
      "stateMutability": "view",
      "type": "function"
    },
    {
      "inputs": [
        {
          "internalType": "string",
          "name": "coupon",
          "type": "string"
        }
      ],
      "name": "getReducedPrice",
      "outputs": [
        {
          "internalType": "uint256",
          "name": "",
          "type": "uint256"
        }
      ],
      "stateMutability": "view",
      "type": "function"
    },
    {
      "inputs": [
        {
          "internalType": "uint256",
          "name": "newPrice",
          "type": "uint256"
        },
        {
          "internalType": "string",
          "name": "coupon",
          "type": "string"
        }
      ],
      "name": "getcommission",
      "outputs": [
        {
          "internalType": "uint256",
          "name": "",
          "type": "uint256"
        }
      ],
      "stateMutability": "view",
      "type": "function"
    },
    {
      "inputs": [],
      "name": "owner",
      "outputs": [
        {
          "internalType": "address",
          "name": "",
          "type": "address"
        }
      ],
      "stateMutability": "view",
      "type": "function"
    },
    {
      "inputs": [],
      "name": "renounceOwnership",
      "outputs": [],
      "stateMutability": "nonpayable",
      "type": "function"
    },
    {
      "inputs": [
        {
          "internalType": "string",
          "name": "coupon",
          "type": "string"
        },
        {
          "internalType": "address",
          "name": "recipient",
          "type": "address"
        },
        {
          "internalType": "uint8",
          "name": "percentageOff",
          "type": "uint8"
        },
        {
          "internalType": "uint8",
          "name": "commission",
          "type": "uint8"
        },
        {
          "internalType": "uint8",
          "name": "_couponUsesLeft",
          "type": "uint8"
        }
      ],
      "name": "setCoupon",
      "outputs": [],
      "stateMutability": "nonpayable",
      "type": "function"
    },
    {
      "inputs": [
        {
          "internalType": "uint256",
          "name": "to",
          "type": "uint256"
        }
      ],
      "name": "setFlowcost",
      "outputs": [],
      "stateMutability": "nonpayable",
      "type": "function"
    },
    {
      "inputs": [
        {
          "internalType": "address",
          "name": "to",
          "type": "address"
        }
      ],
      "name": "setNFTAddress",
      "outputs": [],
      "stateMutability": "nonpayable",
      "type": "function"
    },
    {
      "inputs": [
        {
          "internalType": "address",
          "name": "newOwner",
          "type": "address"
        }
      ],
      "name": "transferOwnership",
      "outputs": [],
      "stateMutability": "nonpayable",
      "type": "function"
    },
    {
      "inputs": [
        {
          "internalType": "address",
          "name": "addr",
          "type": "address"
        },
        {
          "internalType": "string",
          "name": "coupon",
          "type": "string"
        }
      ],
      "name": "usedCouponAlready",
      "outputs": [
        {
          "internalType": "bool",
          "name": "",
          "type": "bool"
        }
      ],
      "stateMutability": "view",
      "type": "function"
    }
  ],
  "bytecode": "0x60803460c157601f610d7138819003918201601f19168301916001600160401b0383118484101760c65780849260209460405283398101031260c15751331560ab5760008054336001600160a01b0319821681178355604051939290916001600160a01b0316907f8be0079c531659141344cd1fd0a4f28419497f9722a3daafe3b4186f6b6457e09080a3600255600180546001600160a01b03191633179055610c9490816100dd8239f35b631e4fbdf760e01b600052600060045260246000fd5b600080fd5b634e487b7160e01b600052604160045260246000fdfe6080604052600436101561001257600080fd5b6000803560e01c8063057a9dda146109ed5780631eceac1c1461097f578063402ce7831461082357806369d03738146107d7578063715018a6146107715780637636ecf0146107345780638da5cb5b1461070e5780639442c503146106c6578063b5a5a8d714610222578063d4359db314610204578063d56354441461014e5763f2fde38b146100a157600080fd5b3461014b57602036600319011261014b576001600160a01b036100c2610a10565b6100ca610b4e565b16801561011f576001600160a01b0382548273ffffffffffffffffffffffffffffffffffffffff198216178455167f8be0079c531659141344cd1fd0a4f28419497f9722a3daafe3b4186f6b6457e08380a380f35b6024827f1e4fbdf700000000000000000000000000000000000000000000000000000000815280600452fd5b80fd5b503461014b57602036600319011261014b576004359067ffffffffffffffff821161014b5760806101823660048501610a2b565b6001600160a01b0360405182848237602081848101600481520301902054169160ff80604051848482376020818681016005815203019020541692602082604051838682378281858101600681520301902054169382604051938492833781016007815203019020541691604051938452602084015260408301526060820152f35b503461014b578060031936011261014b576020600254604051908152f35b5061012036600319011261014b5760043567ffffffffffffffff81116106c257610250903690600401610a2b565b9060243567ffffffffffffffff81116106be57610271903690600401610a2b565b929091604435936001600160a01b0385168095036106ba57610291610a59565b9360a4359060ff82168092036105095760c4359261ffff84168094036106b65760e4359061ffff82168092036106b257610104359261ffff84168094036106ae578115610645576001600160a01b036040518383823760208185810160048152030190205416156106015760ff6040518383823760208185810160078152030190205416156105bd57338b52600860205260ff61033260408d208484610a69565b54166105795760405182828237602081848101600781520301902060001960ff8254160160ff81116105655760ff1660ff19825416179055338b52600860205261038060408c208383610a69565b805460ff191660011790556103958282610ab8565b9034820361052157826020826103ce6103c46103bd6103e8986001600160a01b039789610aee565b8097610aab565b8560015416610b90565b826040519384928337810160048152030190205416610b90565b604051936060850185811067ffffffffffffffff82111761050d576040528452602084015260408301526001600160a01b036003541694853b15610509576040517f789b7489000000000000000000000000000000000000000000000000000000008152336004820152602481019790975260ff16604487015260848035606488015286015260a485018690528592859290918460c485015b600382106104e957505050836101648484839895829561014061012485015281610144850152848401378181018301849052601f01601f191681010301925af180156104dc576104ce5780f35b6104d791610b16565b388180f35b50604051903d90823e3d90fd5b825161ffff16815289965088955060209283019260019092019101610481565b8780fd5b60248b634e487b7160e01b81526041600452fd5b606460405162461bcd60e51b815260206004820152601960248201527f496e76616c6964207072696365207769746820636f75706f6e000000000000006044820152fd5b60248d634e487b7160e01b81526011600452fd5b606460405162461bcd60e51b815260206004820152601b60248201527f4164647265737320616c7265616479207573656420636f75706f6e00000000006044820152fd5b606460405162461bcd60e51b815260206004820152601260248201527f436f75706f6e20776173207573656420757000000000000000000000000000006044820152fd5b606460405162461bcd60e51b815260206004820152600e60248201527f496e76616c696420636f75706f6e0000000000000000000000000000000000006044820152fd5b5050600254340361066a57610665346001600160a01b0360015416610b90565b6103e8565b606460405162461bcd60e51b815260206004820152600d60248201527f496e76616c6964207072696365000000000000000000000000000000000000006044820152fd5b8a80fd5b8980fd5b8880fd5b8580fd5b8380fd5b5080fd5b503461014b57604036600319011261014b576024359067ffffffffffffffff821161014b5760206107066106fd3660048601610a2b565b90600435610aee565b604051908152f35b503461014b578060031936011261014b576001600160a01b036020915416604051908152f35b503461014b57602036600319011261014b576004359067ffffffffffffffff821161014b57602061070661076b3660048601610a2b565b90610ab8565b503461014b578060031936011261014b5761078a610b4e565b806001600160a01b03815473ffffffffffffffffffffffffffffffffffffffff1981168355167f8be0079c531659141344cd1fd0a4f28419497f9722a3daafe3b4186f6b6457e08280a380f35b503461014b57602036600319011261014b576001600160a01b036107f9610a10565b610801610b4e565b1673ffffffffffffffffffffffffffffffffffffffff19600354161760035580f35b503461014b5760a036600319011261014b5760043567ffffffffffffffff81116106c257610855903690600401610a2b565b602435906001600160a01b0382168092036106be576044359160ff8316830361097b57610880610a59565b936084359460ff8616860361097757610897610b4e565b82156109335760ff9460209360405186858237858188810160048152030190209073ffffffffffffffffffffffffffffffffffffffff19825416179055856040518685823785818881016005815203019020911686198254161790558460405185848237848187810160068152030190209116851982541617905582604051938492833781016007815203019020911660ff1982541617905580f35b606460405162461bcd60e51b815260206004820152601160248201527f696e76616c696420726563697069656e740000000000000000000000000000006044820152fd5b8680fd5b8480fd5b503461014b57604036600319011261014b57610999610a10565b60243567ffffffffffffffff81116109e95760ff916001600160a01b0360406020956109cc6109dd953690600401610a2b565b939094168152600887522091610a69565b54166040519015158152f35b8280fd5b503461014b57602036600319011261014b57610a07610b4e565b60043560025580f35b600435906001600160a01b0382168203610a2657565b600080fd5b9181601f84011215610a265782359167ffffffffffffffff8311610a265760208381860195010111610a2657565b6064359060ff82168203610a2657565b6020919283604051948593843782019081520301902090565b81810292918115918404141715610a9557565b634e487b7160e01b600052601160045260246000fd5b91908203918211610a9557565b610ae560ff610aeb9360206002549482604051938492833781016005815203019020541660648304610a82565b90610aab565b90565b9060ff610aeb9360206064938260405193849283378101600681520301902054169104610a82565b90601f8019910116810190811067ffffffffffffffff821117610b3857604052565b634e487b7160e01b600052604160045260246000fd5b6001600160a01b03600054163303610b6257565b7f118cdaa7000000000000000000000000000000000000000000000000000000006000523360045260246000fd5b814710610c2c5760008080936001600160a01b038294165af13d15610c24573d9067ffffffffffffffff8211610b385760405191610bd8601f8201601f191660200184610b16565b82523d6000602084013e5b15610beb5750565b805115610bfa57805190602001fd5b7fd6bda2750000000000000000000000000000000000000000000000000000000060005260046000fd5b606090610be3565b50477fcf4791810000000000000000000000000000000000000000000000000000000060005260045260245260446000fdfea264697066735822122055b4ee358927bcb5af787c65e2295255a8eb4042fafc8079f7aaf3a5bd5645d864736f6c634300081c0033",
  "linkReferences": {},
  "deployedLinkReferences": {}
}